:020000041000EA
:10000000F2EB88716C43001094430010A8000010BC
:1000100090A31AE7D3DEFFFF420101114403000061
:100020003600001000200820FF0400000C650000CE
:10003000793512AB79A8973100109381E1B517217A
:100040000810130121FC172500101305B5F77310D4
:100050005530732540F135ED1707000013070705EC
:100060000C4391C55043144731071D28D5BF972530
:1000700000109385E511172600101306263721A0DE
:1000800023A005009105E39DC5FEEF30807EBD2ACB
:10009000EF30C07D0290FDBF884108C29105110676
:1000A000E36CD6FE82800100944300100000002023
:1000B0008C2100202065001000000820000008208E
:1000C000206500100010082000100820000000002B
:1000D000828021651305C5DF028552B837240020D0
:1000E0008347043199EF9307000089CB374500100F
:1000F000130505F797000000E70000008547230877
:10010000F43052BE9307000089CFB7250020374551
:10011000001093854531130505F7170300006700AC
:1001200000008280411122C406C62E84EF10500EBA
:1001300037270020832687398327C739B306D54060
:100140003336D500B387F540918F635EF006B7274D
:10015000002023AA8738232CA738232EB73893777B
:100160008400B1C7B727002003A7073A83A70181FE
:10017000B70600D0214690D23307E540414690D2E1
:10018000B387F5403338E50013060002B387074113
:1001900090D26351F00483A6818185066340F00606
:1001A000A1CBB70700D0414798CF23ACD1801188AD
:1001B00019C4B727002023A0A73A23A8B180B240D2
:1001C000224441018280E5FFB1679387F734E3E081
:1001D000D7F8F5B799E7B71603009386F6D3E3ECA3
:1001E000E6FAB70700D0214798CF118869D8D1B770
:1001F000B7470F0093877762E3F5E7FAB70700D0B8
:100200001307000298CF23ACD18055B7011106CE59
:1002100022CC26CA4AC84EC6EF30900F0145AD2108
:10022000370400D08544A685014624C00145A52693
:100230000D459929A149232C34031145B121414988
:10024000232C240315458921930700021CDC23205D
:100250003403232024031CD0EF10807BB70600104A
:100260002A88AE88B7270020268693864612B14595
:1002700001453749001023AC073923AE173913095C
:1002800009F70D2E83A5818183A741814A85638863
:10029000B700EF30D02383A7818123AAF180514595
:1002A000EF10A050C5B7B70700D090430111938756
:1002B00041824AC84EC6B347F62006CE52C483A92F
:1002C00007003789024051C613090929014A63878B
:1002D000090856C2938AC1815AC022CC26CAB34AA1
:1002E0005621378B024093573A00B3C72721845BCE
:1002F0005284210A8DCC93F5F400930604FE91807C
:1003000085C593573400137774000A079387C7088D
:1003100003A60A003397E500B3C76721228563C6A9
:10032000060298C3829981C40504E36644FD9307DD
:100330000002E31AFAFA6244D244924A024BF240B3
:100340004249B249224A05618280B3568648E1FE9D
:10035000C9BF13098924014AE39D09F61385C181A8
:100360003345A62001471308000293553700B3C751
:1003700025219C5B930887006387071813F3F70018
:1003800093D6470063020302130E07FE832E050077
:10039000634F0E169385C508378E0240B3C5C5213D
:1003A00023A0650063810616BD8A93D5870095C694
:1003B000130E17FE832E05001303170063420E1859
:1003C000135333001303C308378E0240920633439E
:1003D000C3212320D30063880512BD8993D6C700AB
:1003E00095C5130E27FE832E050013032700634EC9
:1003F0000E14135333001303C308378E0240A205B3
:100400003343C3212320B300638F060EBD8A93D5E7
:1004100007018DC6130E37FE832E05001303370028
:1004200063410E10135333001303C308378E024089
:10043000B2063343C3212320D300F1C5BD8913D3B2
:10044000470185C99386C181B346D620130E47FE66
:1004500083AE060093064700634A0E0C8D82938696
:10046000C608378E0240C205B3C6C6218CC2630CD3
:1004700003081373F30093D587016309030293867E
:10048000C181B346D620130E57FE83AE06009306F5
:10049000570063420E0A8D829386C608378E02404B
:1004A0005203B3C6C62123A06600B1CDBD89F18336
:1004B000A5C59386C1813343D620130E67FE832ED4
:1004C00003001303670063470E081353330013033D
:1004D000C308378E0240E2053343C3212320B30013
:1004E0001D0795C3B346D62003A30600930607FE57
:1004F00063C706060D831307C708B7860240F207D5
:100500003347D7201CC3E38C08E34687B9BD33DEED
:10051000EE48E3010EE879B5FDD71D079386C1814A
:10052000D1B733DE6E48E30F0EEE01BF33DEDE4897
:10053000E3060EF22DBF33DEDE48E30E0EF4B5B750
:1005400033DE6E48E30E0EE679B533DE6E48E30225
:100550000EEA5DBD33DE6E48E3090EF651B7B356C1
:10056000E348D5F241BFB78703409107B347F52071
:1005700098438566BE96134707041377070C3786A2
:10058000024098C23365C5200D67BA974CC1130766
:10059000001098C38280B787034091073345F52048
:1005A0001C418E050A064D8E3D8E8567318A3E952B
:1005B00010C18280370300D08327030093884182D3
:1005C00033CE1721032F0E00797106D6B28E2A87FB
:1005D0002E883E86630E0F04C9C2B3C7172194C389
:1005E000B78602409386862409C6B7860240938662
:1005F0000629935737001D8B0A071386C7083785CE
:100600000240B315E8003347A6200CC3B3C7D72078
:10061000638A0E000967B250BA978CC38545554569
:100620004561C9A2B2500D67BA978CC345618280FB
:10063000C5DA2EC8B70500102AC601469385652A7B
:10064000554576CA2320DE00912C370300D00326BF
:100650000300D24E4248324761B72ECAB705001098
:100660002AC89385652A554536CE76CC3EC62D2DB3
:10067000370300D09388418203260300F246E24EFE
:1006800052484247B24791BFB316A028370700D05F
:10069000B787034034C3910714D3B347F520984379
:1006A0008566BE96134707041377070C378602400A
:1006B00098C23365C52015478D6658C1B697130794
:1006C000001098C3828039713743001022CC2A84ED
:1006D000130543F906CE2ED232D436D63AD83EDAB6
:1006E00042DC46DEEF30E04D01CC4C1022852EC6B8
:1006F000EF30A01237450010130545FAEF30604C7B
:100700000545EF306016F3760430B7270020938755
:100710007733139737003317E028F19B2FA8E7446E
:100720003378E800E31C08FE0F00300393D7350050
:100730003E950347050093F77500B317F02833780B
:10074000F700631108025D8F2300E5000F003003FE
:10075000B72700209387C732A3850700A18A73A01B
:10076000063082804111328506C6B13F372700200E
:1007700003450718DD469307150093F7F70F63F35A
:10078000F600C1472300F7188280B7260020938621
:10079000C6328147130600020F0030033387F6008C
:1007A000230007008507E399C7FE828081463D4804
:1007B0001D459305400393F736008A073317F80069
:1007C00013D626004207518F733037BEB317F5009A
:1007D000C207D18F73A037BE8506E39EB6FC736057
:1007E000043082809357550086073315A028C176C0
:1007F000E98E138717004205558F5D8D91C97330BF
:1008000025BE733027BE732005BE732007BE8280CD
:10081000733005BE733007BE8280011106CE737738
:100820000430B72700209387573393963700B316C9
:10083000D028F19B2FA6D744758E6DFE0F00300394
:10084000F327503013054503F19BB347F52094433C
:100850006380D502B727002093874716638AF60086
:100860002EC62AC43AC2EF102056B245224512477E
:10087000F3275030F19B3345F5200CC10F003003B6
:100880000F003003B72700209387C732A3840700E7
:10089000218B73200730F24005618280797106D682
:1008A00073780430B72700209387573313973700A6
:1008B0003317E028F19BAFA6E744F98EEDFE0F0059
:1008C00030030383C1826343032AB7280020B32780
:1008D00063209388C8F533CE17218346AE009392E8
:1008E0002700931E13002386D182F327503013056F
:1008F0004503F19BB347F52003AF07009307F002D0
:1009000033071F4163E9E71C8347BF00FA8F636029
:10091000F610A305CE00372600201306C6F83306CE
:10092000C6412322BE00B706100093159600B7FEFD
:100930000F00F58DB37ED60193878200B386F80051
:10094000B3E7D501B7B5AAAA9385B5AA0987330736
:10095000B702135346017E031376E67FB306DF40EA
:10096000B3E7670052065D8E05639397160093D830
:100970003600939576001366F62E93F84800B3F789
:100980006700931EB0282320CE002305EE00B3E7B6
:10099000170133F7D5019395160003264F00D98F21
:1009A00093F5056013D72600CD8F13770710939822
:1009B0001600D98F93D5160093F808081317160060
:1009C000B3E7170193F505048A0693F68603337798
:1009D0006700CD8F3297D58FE9768506137707802C
:1009E00052061317B748D58F1366760E2314FE00F0
:1009F0001367770B1316F6282320EF002322CF006E
:100A0000728F2DAA83C6B700637FD616BE8F038769
:100A1000AF00B327E720B3C71721E35507FE939331
:100A200015008567B3F3F300AE9393F30380D2050B
:100A30009393B34893E5750EB16293E3730B93956B
:100A4000F528938222E493868F00B306DE409A9EB7
:100A5000B3CE1E21939716008568B3F7170193D87C
:100A6000360093F8480023856F00B3E7170113138E
:100A7000B02893987600B3F8680013931600B3E794
:100A800017011373036093D82600B3E7670093F848
:100A9000081013931600B3E717011373030893D8D4
:100AA0001600B3E7670093F808048A0693F68603F6
:100AB000B3E71701D58FE9768506D58F2394FF001C
:100AC00023A07E0023A2BE0023945E002385EE00B7
:100AD000A385CE00A5A0B7270020938747166310F3
:100AE000FF1AB72700209387C7F8B387C74113972A
:100AF0009700B706100037FF0F0033FFE701758F2F
:100B000093D647013367E701FE0693F7E77F558FDA
:100B1000D207D98F769371773343132193E7F72E5A
:100B2000130727E4FD562322B300A305C300728FE9
:100B30002320F3002314E3002305D300F3275030D0
:100B4000F19B3345F5202320E5010F0030030F0012
:100B50003003B72700209387C732A3840700137898
:100B6000880073200830B2504561828032C82EC69A
:100B70002AC442C2EF1040250383C1824246B245D7
:100B80002245124899B383D38F0093878200C6977A
:100B90009392330093868F0093F20202B387F6405C
:100BA000969793D2130022D413F40204A2971394BD
:100BB000130013740408A297139423004AD093F2ED
:100BC00002302289969713D4230093D27300937333
:100BD00009409E9793F202019373E400B3E272001E
:100BE0009313B0289697B3727400B3875740139449
:100BF000770026D293921700B3747400056493D3E0
:100C00003700B3F2820093F34300B3E27200939390
:100C10001700B3E2920093F3036093D42700B3E28A
:100C2000720093F4041093931700B3E2920093F3CD
:100C30000308B3E272009393150093D41700B3F343
:100C40008300AE9313F404048A07B3E2820093F79F
:100C50008703697493F30380D205B3E7F20093939B
:100C6000B3489302140093E5750E2254925402592E
:100C7000B3E2570093E3730B9395F528F9B332CEA3
:100C80002ECC76CA2AC842C672C41AC2EF10C0134C
:100C9000B72700207246E245D24E42453248224EE6
:100CA00012439388C7F535BD797106D6737E04303B
:100CB000B727002093875733139737003317E0285F
:100CC000F19BAFA6E744F98EEDFE0F003003F3274A
:100CD0005030F19B930F4503B3C7FF2003A80700D3
:100CE00037270020930E47166300D80B630EB80811
:100CF000372F0020130FCFF53307E8419307F00299
:100D000063E5E70822D493574500F3A707BE937223
:100D1000F5003317A02893585500C183931307019A
:100D20008608B3125028B3F2F200B3E3130173B094
:100D300003BEC1777D8F8508B3E8E80073B008BEB5
:100D40000F003003F32750BE13970701014463508F
:100D5000071CC28701439843D44313768700137757
:100D600007801317B74813D5464119E2B306A70009
:100D70006385D5040387A7003E83B327E720634C30
:100D80000716B3C7E721C1BF7688F3275030F19B20
:100D9000B3C7FF2023A007010F0030030F0030036B
:100DA000B72700209387C732A384070093778E006C
:100DB00073A00730B250456182800386A700634E5E
:100DC00006183327C6203347E7211443584393F5C9
:100DD000860099E593F606809396B6485187369734
:100DE00063830703931617008565ED8EBA9693F615
:100DF00006809396B648520793E6760B1367770EF4
:100E000094C31317F728B326C62033C5E62103433E
:100E1000B50093952600D8C3A38567008306A50077
:100E20003167130727E42385D70063CA060A835670
:100E30008500A105FA9513D5160013973600137394
:100E400005041377070233676700138387003307AE
:100E500067401393160013730308137505301A9730
:100E6000139326002A971373034013D526009D82FF
:100E70001A97C18A1373E500B3E666003697131319
:100E8000B0282E9733756500098F93161700856576
:100E9000ED8E9355370013157700918933756500F2
:100EA000CD8E93151700C98E93F505601355270055
:100EB000CD8E1375051093151700C98E93F505088F
:100EC00013551700CD8E137505049315270033E7CE
:100ED000A60093F68503558FE9768506558F03C5E1
:100EE000C182B326C6202394E700B3C7E621238638
:100EF000C1822385A700638C020473B023BE73B044
:100F000028BE73A003BE73A008BE2254BDBD91834A
:100F100093F7F71F13844703E30DF5E22ECE7ECC43
:100F200072CA46C81EC616C442C2EF00F069B7278F
:100F30000020938E4716B72700201248A242B243E2
:100F4000C248524EE24FF245138FC7F519B573B040
:100F500003BE73B008BE22540DBD0DEC6302030A3C
:100F60007177130727E4FD562314E3002305D3000C
:100F70003387E741B7B6AAAA9386B6AA098733078B
:100F8000D70203C6C1822385C7002386E182E3809E
:100F900002FCA5B7B726002013878700938686F941
:100FA000998E139716000566718F13D63600118A35
:100FB000518F9315B028139676006D8E9395160079
:100FC000518F93F5056013D626004D8F13760610CA
:100FD00093951600518F93F5050813D616004D8F83
:100FE000137606048A06518F93F68603558F13678E
:100FF00017001317D7282394E700E38A02F4F5BDFE
:101000007688BDB7F32750BE139707018145634922
:101010000700918393F7F71F938747039395270062
:1010200073760430B7270020938757331397370020
:101030003317E028F19BAFA6E744F98EEDFE0F00D1
:101040003003372700201307C7F5B307E540B7B6CD
:10105000AAAA9386B6AA8987B387D70293974760CF
:10106000F3265030F19AAE9694426384A604830628
:10107000A700638AF604830667016384F606830685
:1010800027026382F6068306E7026380F60683C6BC
:10109000C1822386F1822305D5000F003003B727D4
:1010A00000209387C732A3840700218A732006306B
:1010B000828073275030B7260020719B2E9793862D
:1010C000461614C3E9B78146B3A6D620B3C6E620B8
:1010D00071777D58130727E4238506012394E600E2
:1010E0007DB78546D5B78946C5B78D46F1BFB727C9
:1010F00000209387C732AE971CC18280011122CC99
:1011000026CA37240020B724002006CE1304441832
:101110009384C418637794024AC84EC61309F00F2B
:10112000FD591C4085C7EFF06FE4AA852285C137C1
:10113000231224010F0030032104E36494FE42498A
:10114000B249F2406244D24405618280EFF00FE27E
:10115000AA852285693F230234010F003003210450
:10116000E36194FCE9BF83A701837377043013968E
:1011700037003316C028F19BAFA5C744F18DEDFDB4
:101180000F00300383A701830F0030032380070083
:101190009377870073A00730332010000145814505
:1011A0008280397106DE22DC26DA4AD84ED652D445
:1011B00056D25AD05ECE62CC66CA6AC8F32750BEF9
:1011C000139707016348073213D947009377C91F64
:1011D00013793900B3192029B70B0B4063980734F2
:1011E00037270020B3C7272113074737B3C7E720A6
:1011F00083AA07008D6793874704DE97371A00108C
:1012000023A03701130A2A1A7D54FD54039B8A0038
:1012100023AE3B0363580B0883D74A00939757606C
:1012200063DD071483C76A006396071E039B8A0069
:1012300063470B0403A74A01332B6B21FD57336B24
:10124000EB20032C8B00032BCB006302FC2AB3465C
:10125000792103A78B029C4A3306EC40998F636087
:10126000F60483A70B02B3D7274995CB5E85EF0021
:10127000207963C66501E31BBBF8E37985F9332068
:101280001000F2506254D2544259B259225A925A22
:10129000025BF24B624CD24C424D2161828023A80A
:1012A0008601E9B783A74A01332C6B215E85336C35
:1012B000FC20832CCC00032D8C009927E3CE95F5E0
:1012C0006383BC1C63C50C1C83270C0183254C0164
:1012D0006385472503978A0003552C004207598DE3
:1012E00082972E87AA87B3E6E7006382061A6359BE
:1012F0000720B306FD40333DDD00B387EC40B387E4
:10130000A74103170C002324DC002326FC00E3453F
:1013100007F003A84A013325E720131617003365A9
:1013200005214C4583288500E3C8B7EE6394F5009A
:10133000E3E416EF2394EA0013858A0031A08328A2
:1013400086004C46131617003A9663CEB7006383A7
:10135000F51E33650621031705003326E7203366A3
:101360000621E35E07FC2310EC002310650183D700
:101370004A0093975760E3C707EA83A70A01737788
:10138000043093963700B316D028F19B2FA6D7448C
:10139000758E6DFE0F00300383D84A00FD572392EF
:1013A000FA009398586083A70A010F003003238046
:1013B00007009377870073A00730E3C508E603A50D
:1013C0004A0103978A0033A818213368A82093851F
:1013D0008A0063450702032388000326C80001A88A
:1013E000638BC60E03970700BE8563490700B327CA
:1013F000E720B3E7A720D447E354D6FE2390150196
:10140000831808002310E800E3DD08FA83C76A00A8
:10141000E38E07E023830A00039B8A00FD555A8769
:10142000E30FBBE403A54A01B327E7203A86B3E7FD
:10143000A72083D627000397070013888A00939676
:10144000566063C206023E88E304B7DEB327E72096
:10145000B3E7A72083D627003A8603970700939621
:101460005660E3D206FE80C7C4C7E30FCBFC23104F
:10147000E80083D68A00328B2390D7002394CA00D9
:10148000E316B7FC75B3E369A5D9E3DF0CE20357B4
:101490000C0083A70A012394EA0073770430939623
:1014A0003700B316D028F19B2FA6D744758E6DFE5A
:1014B0000F00300383D62A0083A70A012310DC0023
:1014C00023916A010F003003238007009377870080
:1014D00073A0073091B39447E376D3F023901501BE
:1014E000831808002310E800E3DD08EC05B7E310DB
:1014F0008BD7ADBB8549CE870149B78B0B40CDB1AA
:101500005E853AC63EC4ED29A2473247B306F500D0
:10151000B3B7A600BA95AE97EDB39C492E852EC4FD
:10152000829735D5A2459C41D84175BB8547B78B7D
:101530000B407DB1E3FF16E13DB5B727002093874F
:1015400087FA984B09C713850183A9454DB6411108
:101550008D4537050B4006C622C46921372400207B
:10156000930784FA37080B4023A60701EFF00FA07A
:10157000930784FAAA850D452380A700370700D07A
:1015800003230700B7260020D84B9386C6323706C0
:101590001100AE967D16BD4894CBA380670090C71E
:1015A00023911701FD550943914815469946239209
:1015B000B70023146704231C17072318C708231434
:1015C000D70A9D42A146A54F294FAD4E314E354316
:1015D000B9480546231CD70C2310A7062310570C27
:1015E0002318F70F2314E7112310D713231CC71355
:1015F00023186714231417172310B7002318C702E2
:10160000231C070037080B40B71500102320D80211
:10161000372700209385251A2320F738EFF0EF9F16
:1016200085450D45EFF00F9C2244B240B7270B4093
:10163000A146B4C313850183A94541014DBCB283C2
:10164000AA8710492E83F37504301315360033151D
:10165000A028719A2F28A6443378A800E31C08FE1E
:101660000F0030038398270013F685008C4B63CE60
:101670000808C84B33A818213368A8200355080070
:101680002391A7000F00300323800500732006304C
:10169000035628008545139508012E964606458277
:1016A0003376B60A232AE8002328D80023246800CA
:1016B000232678002311C800518D984BF37604300F
:1016C000131637003316C028719BAF25C744F18D20
:1016D000EDFD0F00300303D64700984B2310C800E0
:1016E000239217010F0030032300070013F7860031
:1016F0007320073003C70700DC47896693864604DA
:101700003317E028B69798C382800F0030032380F8
:101710000500732006307D5582800357A50093D7BE
:10172000054163D8E7045449B3A7F7201849B3E744
:10173000D720F3760430131637003316C028719B78
:101740002F28C7443378C800E31C08FE0F0030037D
:1017500003D62700B3C5050813F78600B34606086D
:10176000630BB6001C490F00300323800700732071
:101770000730014582806176D18E2391D70085475D
:101780002303F50014490F00300323800600732063
:101790000730834605005845096613064604B3160C
:1017A000D02832973E8514C38280011122CC26CAEC
:1017B0004EC6AA8406CE4AC8A12C1307803E3384A5
:1017C000E402B7070080FD17B3B4E402B309A40034
:1017D00033B48900AE94269463F487003E84FD59A7
:1017E0009384A9FF33B934019307F4FF3E99636AE8
:1017F000240363068902292C3385A440B305B9402C
:10180000B3B7A4009D8D634AB002DDC5A2856244D2
:10181000F240D24442494E85B2490561B5A4E3FC89
:1018200099FCFD22814401493385A440B305B940A8
:10183000B3B7A4009D8DE35AB0FCD92A3385A440E8
:1018400033B5A400B305B940898D63C10502B7164D
:1018500000103725002093866616130585FA014788
:10186000A6854A86E93BFD57E302F5FAB7060B4029
:10187000DC5263E727019856E31AF9F8E37897F802
:1018800083A701837377043093953700B315B0288D
:10189000F19B2FA5B7446D8D6DFD0F00300383A71D
:1018A00001830F003003238007009377870073A024
:1018B0000730332000006DBF31D941B7F32750BE48
:1018C00013970701635A0706B72700200111938772
:1018D00087FAD84722CC26CA06CE83C70700AA8437
:1018E0003A852E843EC63AC4212A2247B247B30520
:1018F000B440B3C7E7209C4B3387A440B3B6E400A1
:10190000958D898F63CD0504A9C933200000B706E2
:101910000B40D8528147636B87009C56018F333749
:10192000E000B3B7970093B71700D98FF240624435
:10193000D2443E8505618280B7060B40D85281476C
:10194000636BB7009C560D8F3337E000B3B7A70029
:1019500093B71700D98F3E858280E378F7FA4D2838
:101960003385A44033B5A400B305B440898D63C763
:101970000504B7160010B7270020938666160147A6
:10198000A6852286138587FA5D396359A002370739
:101990000B405C5363EB87021857639487006366C0
:1019A0009702B7270020AA85138587FABD33B706AB
:1019B0000B40D8528147E36B87F685B737070B405A
:1019C0005C5363F78700814795B733200000D1BF90
:1019D0001857818FB337F00033379700133717004C
:1019E000D98FA9B7B787F4BFAA9793B71700138504
:1019F0004183374600103E95130686FA6FE0BFD04C
:101A00004C51AA8788572E87CC53E31DB7FE82809E
:101A1000B7070B40CC5388572E87CC53E39DE5FE88
:101A2000828037070B405C5303288702BE865C53D5
:101A3000E39CD7FE33060501BE953335A6002E95EF
:101A4000636CF5026388A702B7070B40DC5363F7AA
:101A5000A70037070B405C53E3EFA7FE639BA7008B
:101A600037070B4021A054536395F6001457E3EC5D
:101A7000C6FE8280E37A06FDB7070B40DC537D5536
:101A80002A86E398A7FCE9BF37070B405C53E3EFD6
:101A9000B7FE639BF500B7070B4021A0D8536395B1
:101AA000E5009857E36CA7FE8280011122CC2A84BE
:101AB000194526CA06CEAE84F52A51CDB787074010
:101AC00037070004630DF40EB727024098C3B7062A
:101AD0000240B737024098C3A1069C42B377F74053
:101AE000EDFFB787F8BFA2971387818393B71700DD
:101AF000B3A7E7201945130700102390E7005D2ADC
:101B000093173500B3D79702850713D7770029EBD2
:101B100093040004854654D018D4185893771700BE
:101B2000ADE385679387C702A297545423A00700AB
:101B300018D819453EC4BD2A0A0533559502585494
:101B4000A24713061030134707071377E70798C318
:101B50008D4610D834C4F2406244D244056182807C
:101B600041667916C166637FE604FD16014754D0CD
:101B700018D41858B7044000938404FC93771700D6
:101B8000CDD38D6793870703A2979306103094C334
:101B90005C50145419459A07B6973AC63EC4192AA0
:101BA000B7862B8F938656B73335D502A24781452A
:101BB000AA072D8133D5A702AD3532479DB7370728
:101BC000000819B785839316670093F7F703B3846A
:101BD000F600BA863E8781B7B70701403327A520B4
:101BE0003347F72003284700C1676373F8005CC3DD
:101BF0009387F5FF9308C5FF81E793B72800B5E702
:101C0000372800201308C834B347052103A3070071
:101C10008D67BA97131EB02823A0C7010A05631960
:101C20000302032307001606856733466600137612
:101C3000060EBA9790C30546637016078967BA9770
:101C40001316B02890C34295C16714C15CC382804B
:101C500083274801B3D767028507B3A7F7200100A0
:101C60009387E7FFE3DE07FE6DBF8D67BA970D48E8
:101C700023A007011C47858BF5DF03280700160604
:101C80008567334606011376060EBA97372800207B
:101C90000A0590C31308C834832807003316B028F8
:101CA000B3C8150193F8380023A017011C47F18F22
:101CB000F5DF69B7B72700209387C7343345F52090
:101CC00008418280B727B700938707B0B3D7B70220
:101CD00083280500C206320733E8E6003356F602D1
:101CE00063C40804B787054011676300F506B7278A
:101CF000024098C3B7060240B737024098C3A10616
:101D00009C42B377F740EDFF0D670CC1110710C57A
:101D10002A97930710021CC31C41E3DF07FE23260A
:101D20000501A1471CC382801C4193F7F703E39B85
:101D3000B7FA1C45D207D183E396C7FA5C453777DB
:101D40000700F98FE39007FB828021674DB7B787C3
:101D500010403325A5203345F5204CC185471CC1D3
:101D60008280A1679387A7DF83D707008545828795
:101D7000B7170E409387878298437DDF0F003003AB
:101D80008280B7170E4037170E409387C78013071E
:101D9000C7820F00300323A007009107E39BE7FEF3
:101DA00082808567938707AA378704401CC39307FF
:101DB000A0115CC7B7B6FA00B7A7044094C35C4350
:101DC000E3DF07FE82808280374500104111130552
:101DD000C5FC06C6EFE03F8F411122C426C237443E
:101DE0000010B744001006C6130444F39384C4F6ED
:101DF000637794001C4011048297E36D94FEB24017
:101E00002244924441018280B747EFEF9387F7B7AE
:101E1000B72602403707F4039CC25917B737024070
:101E2000B706024098C3A1069C42B377F740EDFF86
:101E30008280B7071150F847A1676303F7008280DB
:101E4000B727115037070400F8C7828037070020F2
:101E50007D17B7370240B706024098C3A1069C42DF
:101E6000B377F740EDFF82801565411113053525E5
:101E700006C6C53DB240AA87114541018287156556
:101E800041111305352506C6E93DB240AA8705452F
:101E9000410182876FE07F8F411122C406C626C2AE
:101EA0004AC03704014023220408E53DB73701400A
:101EB0000547D8DF7C40E39FE7FE0D47B737014079
:101EC00098DB0544370701401C5FE39F87FE3736E8
:101ED0006859A285130606F009479546370505405F
:101EE000D533154737968647BA86A285130606C0AE
:101EF00037850540C13BB726B700938606B001463B
:101F000089451145D139B7D6F008A28593860618C0
:101F100001461545D131B776DC02938606C00146ED
:101F2000814521455539B776DC02938606C00146C6
:101F3000814525455531B7D6F008938606180146E8
:101F4000814519455139B7D6F008938606180146E0
:101F500081451D4551311145B13BB7E71B4393877F
:101F600037E8B334F50201441949C9802285A685B2
:101F70000504F13BE31C24FFB24022449244024991
:101F800041018280828079714AD04ECE52CC56CAAD
:101F90005AC862C466C26AC0C68C06D622D426D28B
:101FA00093F838002A892E8AB289B68A3A8B3E8DF8
:101FB000428C63850806D1C75EC6B2843304AB0188
:101FC000B38B84000345F4FF33868B40D686D285DD
:101FD0007D140299E3188BFEB24BEA9493FC2C001B
:101FE00063800C02B389344163FC89012686D6865E
:101FF000D28513050002850985040299E3E889FF6B
:10200000B25022540259F249624AD24A424B224CFF
:10201000924C024D268592544561828063F50703F8
:10202000B304F840B29432842286D6860504D28561
:10203000130500020299E31994FEE3030DFC5EC64A
:10204000B5BFB28461BFB284CDBFA24E3E83C28F02
:1020500093F72E00024E1248E9E7930703FEB337C9
:10206000F000333FC30133FFE70193F21E00630F1B
:10207000080E638D020E63960F0093F3CE00638308
:1020800003007D18630F0F06130F00030503B3074A
:102090006700A38FE7FF930703FEB337F000637376
:1020A000C301EDF7639F020493F70E01B9C393F7E1
:1020B0000E4089E763096E0C6307030DC14763890E
:1020C000F80EF9186394080E930703FEE5C393070F
:1020D00013003A939308200623001301930800028B
:1020E000638D170113831700BA97930800032380A9
:1020F000170193070002631DF30493070002F6889B
:1021000059B56370030391CF130F000311A091CB56
:102110000503B3076700A38FE7FF930703FEE36898
:1021200003FF93F70E01F1D793F70E40C1FBE313C2
:1021300003F8C1476387F80E89476392F80C930749
:102140002006930800032300F700A30017010943AA
:1021500063910F0293F74E00BDCBB3086700130ED7
:10216000B002930713002380C80151BFE31E0FF094
:102170004DBFB3086700130ED0022380C801930738
:102180001300F68809B59307F3FFD1C3138E08FF38
:10219000631F0E069308E3FF13FE0E02BA98631A3C
:1021A0000E08130E80072380C8013DBF9A873DB7F4
:1021B00093F70E028DCB93070002E300F3F493072D
:1021C00013003A93930880052300130101BF93F88D
:1021D0008E009A87E38508F23A93930800028507F8
:1021E0002300130129BF93070002E308F3F09307CC
:1021F00013003A939308800723001301C5B5930792
:1022000000032300F7000543E3860FF49DB7414E1A
:102210006386C803094EE399C8ED9A883E83C68752
:102220004DBD93D75E48B307F040819B93878707E6
:1022300009BF130E80052380C8017DB593F80E02F7
:10224000638608009A883E83C687A5BF9A883E8326
:10225000C68745B711E182806F10700C01C59C41A3
:10226000CC41828782801971CAD8D2D4D6D2DECE30
:102270002A892E8AB28BB68A3A85BE853A86BE8670
:10228000A2DCA6DACED6DAD0E2CC86DE0A4BBA845D
:102290003E84428CC68997000010E780A0A0631B93
:1022A000054AB747001003A6072D83A6472D2685AC
:1022B000A28597F0FF0FE78060F863400524B747D9
:1022C000001003A6872D83A6C72D2685A28597F02B
:1022D000FF0FE78040EB6346A018B747001003A646
:1022E000072C83A6472C2685A28597F0FF0FE78051
:1022F00080E96343A014B747001003A6072E83A606
:10230000472E2685A28597F0FF0FE78020F36345CF
:1023100005122685A28501468146EEC6E6CAEAC8B0
:1023200097F0FF0FE78080F1814D6348051A93779E
:102330000B4063920716374700108326872C03272C
:10234000C72C194CB68C3A8D1810A28526853ACE2A
:102350003ECC97000010E78020982ACA9700001012
:10236000E78060A32A86AE862685A28597F0FF0FB8
:10237000E780203A6686EA8697F0FF0FE78060F7ED
:102380002EC62AC497000010E780009B2AC8970039
:102390000010E78040A52A86AE862245B24597F018
:1023A000FF0FE7800037B747001003A6872E83A6EC
:1023B000C72E2AC42EC697F0FF0FE780C0DCC248A4
:1023C0005248E24772476352A026850846853ACCB8
:1023D0003ECA42C846C497000010E780C0A0668687
:1023E000EA8697F0FF0FE78000DAA2484248D2471A
:1023F00062476344050005088148630A0C1637D517
:10240000CCCC1305D5CC13030002254E638F672A6D
:1024100033B6A8028507B305F7007D1C0D82B346CD
:10242000C6208606B386D84093860603A38FD5FEC2
:10243000637D1E27B288D9BFA28766545AC1F65061
:10244000065B2687CE88D654B6596288D686664CF7
:10245000965A5E86D285F64B265A4A8546590961B8
:1024600061AE93774B00A5E73747001013070703CA
:102470008D476654F650D654664CDA884E88065B13
:10248000B659D6865E86965AF64BD2854A85265A26
:1024900046590961CDBCA546814718109305000334
:1024A00063F186358507B306F700A38FB6FE7D1C62
:1024B000938607FE13067CFF91C26DF6B7460010A7
:1024C00003A6062C83A6462CB28C368DBDBD37479D
:1024D000001013078702914769BF2686A28601452F
:1024E000814597F0FF0FE780C02293770B40AA84C5
:1024F0002E84854DE38107E479BFE6CA93773B00DC
:10250000937C2B00DE846386071E374C0010130C6F
:102510008C036284330B9400711C03453400330632
:102520008B40D686D2857D140299E31884FF9104EE
:1025300063810C02B387744163FD37012686D6861A
:10254000D2851305000285040299B3877441E3E73D
:1025500037FFF6506654D64C4659B659265A965A05
:10256000065BF64B664C2685D6540961828042850F
:102570003ACA42C43EC897000010E780C0812A864C
:10258000AE862685A28597F0FF0FE7808018B747B3
:10259000001003A4872E83A4C72E2A8C2286A68629
:1025A000AE8C97F0FF0FE78060C92248C2475247C0
:1025B000634F05002286A6866285E68597F0FF0FA9
:1025C000E78060BC2248C24752476350A01237657B
:1025D000666613057566930800021DA03316A802EF
:1025E0008507B305F7000986158EB346C620860613
:1025F000B306D84093860603A38FD5FE328825C242
:102600009356F841E39C17FD93763B00054663849F
:10261000C610DA884E88D6865E86D2854A85EFF067
:102620009F96AA84464DB64D2DB73ECCB7470010B5
:1026300003A6872E83A6C72E2245B2453ACE46CAA8
:1026400042C897F0FF0FE78060BF4248D248E24798
:102650007247E34405DA63940808850879BB9376EA
:102660003B000546638BC61493060002E383D7FA4A
:102670001306D00263950D0293764B0099EE937684
:102680008B00C1DA13060002B386C700B305C10090
:10269000AE962380C6FE8507ADBF1306B002B38693
:1026A00027002380C6028507ADB7638067023E9C82
:1026B0009305000313060002630CFC008507B306B4
:1026C000F700A38FB6FEE399C7FE9307000201B798
:1026D0000A9C9306E00285072300DC02CDBD93F639
:1026E0001800E38C06D0850809BB05081378E8FFBD
:1026F000F9BD9147E3FB37E11384CBFFB304340109
:102700005E842286D6860504D285130500020299CE
:10271000E31994FEDDBBE38E09EE63990D08937611
:10272000CB00C9E663F33703938607FE99CE130601
:10273000000311A095DA8507B306F700A38FC6FE44
:10274000938607FEE3E837FF05B793060002E3959B
:10275000D7F2C1B5E6CA93773B00937C2B005E8429
:10276000A5C3B744001093844403138BD4FF228C79
:1027700003C524006286D686D285FD14050C029915
:10278000E3189BFE93043400E3850CDCB3877441AB
:10279000E3F137DD2686D686D2851305000285044F
:1027A0000299B3877441E3E737FF65B3FD19E3FD91
:1027B00037EB938607FEA5FE45BDE38709EAB1BF67
:1027C0008D47E3F037FB1384DBFF4E94DE842686CF
:1027D000D6868504D285130500020299E39984FE0A
:1027E00049B7B746001093860626B366DC209042B0
:1027F000D442B28C368D91BE75714AC1DAD8DED61C
:10280000E6D22A892E8BB28CB68B3A85BE853A8663
:10281000BE8622C526C3CEDED2DCE2D406C7CA49B4
:10282000BA843E84428A468C97F0FF0FE780804747
:1028300041E1B747001003A6872D83A6C72D268543
:10284000A28597F0FF0FE78000946343A006B74787
:10285000001003A6072D83A6472D2685A28597F095
:10286000FF0FE780A09D634505042685A2850146EC
:102870008146D6DAEAD0EECE97F0FF0FE780009CD3
:1028800026D0931AF46963430500A28A9317B028EF
:10289000B3F7F90013F709403ECA3AC8B3E7540149
:1028A00015EFC1E7D247194A63860748154881A04A
:1028B0002687A2874EC9E2885288DE866686DA8538
:1028C0004A852A44BA409A440A49F659665A465BF0
:1028D000B65B265C965C49616FF0FF98A1EBD2472E
:1028E000638A074402C8C247014863CE4749268528
:1028F000A2850146814642C897F0FF0FE780009409
:1029000042482687D687635405009397FA699399BE
:10291000B94893E90940D65A065DF64D4EC9E2889A
:10292000DE866686DA854A8569BF194A13D54A016B
:102930001375F57F130515C097F0FF0FE780A045CD
:10294000B747001003A6072F83A6472F97F0FF0F66
:10295000E780209AB747001003A6872F83A6C72FCA
:1029600097E0FF0FE780A0DE9397CA003707F03F9C
:10297000B183D98FAE8DBE85B747001003A607304F
:1029800083A647302A8D268597F0FF0FE78060D811
:10299000B747001003A6873083A6C73097F0FF0F14
:1029A000E78020952A86AE866A85EE8597E0FF0F40
:1029B000E780E0D997F0FF0FE78000322AC897F050
:1029C000FF0FE780403DB747001003A6073183A6FD
:1029D00047312ACC2ECE97F0FF0FE7808091B74782
:1029E000001003A6872E83A6C72E97E0FF0FE7806F
:1029F00000D697F0FF0FE780202EB747001003A600
:102A0000873183A6C7312A8DF245624597F0FF0FC3
:102A1000E780208E2ACC6A856AD22ECE97F0FF0FEF
:102A2000E7806037B747001003A6073283A6473216
:102A300097F0FF0FE780E08B2A86AE866245F2456D
:102A400097F0FF0FE780E0CC2A86AE862A8DAE8D08
:102A500097F0FF0FE780E0892ACC2ECE6A86EE86BB
:102A60006A85EE8597E0FF0FE78060CEB7470010DC
:102A700003A6873283A6C7322AD42ED66245F245F2
:102A800097E0FF0FE78080243748001003260833C3
:102A90008326483397E0FF0FE78060CB2A86AE8617
:102AA0006245F24597E0FF0FE7804022B7470010EC
:102AB00003A6873383A6C73397E0FF0FE78020C9BB
:102AC0002A86AE866245F24597E0FF0FE780002038
:102AD000B74700102ACC2ECE03A5073483A5473470
:102AE0006A86EE8697F0FF0FE780A0C22A86AE8640
:102AF0006245F24597E0FF0FE78060C52A86AE8603
:102B00002255B25597E0FF0FE780401CB7470010F1
:102B100003A6873483A6C73497E0FF0FE78020C35E
:102B2000925701469387F73F9396470197E0FF0F2F
:102B3000E780207C2A862AD2AE862ECC2685D685B2
:102B400097E0FF0FE780806FE2471257635305025B
:102B500037480010BE85C247032608338326483312
:102B6000FD173A853EC897E0FF0FE78020162A87B9
:102B7000AE87C2469305600C3A86938636063E853C
:102B800013FD290063E9D512D246914D63920614D4
:102B90009146B68D63F78601631B0D1E9306CCFF2D
:102BA00036CAC24699CAD6853A86BE86268597E039
:102BB000FF0FE780A0112AD0AE8A2685A2850146A4
:102BC000814697E0FF0FE78060676344051A02576C
:102BD000D687D2489396B94893D95948528836C077
:102BE0006686DE86DA854A85FD19EFF0CFE793F930
:102BF00009022A86DE8613855904DA851304160035
:102C00000299C24737DECCCC938EFDFFB306F0406D
:102C1000C2471818130EDECCB3E6D70A13D8F70153
:102C2000814733B6C603850793B5A600B308F700FE
:102C3000138307FE0D823345C6200605898E9386D1
:102C40000603A38FD8FEB28699E1E31C03FC9546E8
:102C500036C476C202C02286A948DE86DA854A8555
:102C6000EFF0AFBEAA8463080D023304954163748C
:102C7000840333868C00DE86DA85130500020504A2
:102C80000299E36884FF3387944105078147637D98
:102C9000EC0C8504BE94BA402A44D65A065DF64D23
:102CA0000A49F659665A465BB65B265C965C2685F1
:102CB0009A4449618280D24699EA9546B68DE3F4FA
:102CC00086EF63180D0C9306BCFF36CAE9BD954D1F
:102CD000498EE30A06C0B746001003A6063583A650
:102CE00046352685D6853ACA3ECC97E0FF0FE78069
:102CF00080495247E24763420502B746001003A6E7
:102D0000862C83A6C62C2685D68597E0FF0FE78004
:102D1000E052E34A05BC5247E247630B0A0293F6CE
:102D200009409DC67D1A63F58D01630A0D04094DA6
:102D300002CA85BD93F729003E8D95E393374C0079
:102D4000FD171307CCFFF98F3ECA02C8914DB5B5E8
:102D5000E3F08DFF63050D0202CA094D99B502CA61
:102D600002C8094D914D91BD9387FCFFE297858F75
:102D70000DB702569396FA69B687328799BDB306A6
:102D8000BC4136CA39BD3308FA407D188DB6094DAD
:102D900009BD094D09BDB73700103571938767D953
:102DA00026CB4AC94EC752C5E6DA06CF22CDEAD8AD
:102DB00023AEF1822E8AB68C3A89B289AA846386C0
:102DC000053C03C50C00014D630A053C56C3DEDE1D
:102DD000B74A0010B74B00105AC1E2DCEED6938A16
:102DE0000A0C938B4B10130B5002414411A86A86B6
:102DF000CE86D2858294050D03C50C00630B0510A9
:102E0000850CE31665FF814603C50C0013871C0083
:102E1000930705FE93F7F70F6366F400B3C75721D6
:102E20009C438287930705FD93F7F70F2546637947
:102E3000F6089307A002814D630DF51A9307E0028F
:102E400001486305F50A930785F993F7F70F49469B
:102E5000636FF602B3C777219C43828793E616001F
:102E6000BA8C5DB793E62600BA8C79BF93E646002C
:102E7000BA8C59BF93E60601BA8C79B793E68600FF
:102E8000BA8C59B703C51C0093E6061005079307D3
:102E90007006BA8C63E9A70A93074002E3F9A7F426
:102EA0009307B5FD93F7F70F13072004E361F7F4D9
:102EB0003747001013070715B3C7E7209C438287E5
:102EC000814DB3CDBD21B3ADAD2003450700BA8C14
:102ED000938D0DFD930705FD93F7F70F0507E3723B
:102EE000F6FE9307E0020148E31FF5F403C51C005A
:102EF000A54593E60640930705FD93F7F70F3A863D
:102F000063F6F50C9307A002630DF52ABA8C05074A
:102F10001DBF9A4A0A4BF65B665CB65D6A846364C1
:102F20003D01138DF9FFCE866A86D28501458294D4
:102F3000FA4022856A44DA444A49BA492A4AD65CA8
:102F4000465D0D618280930575F913F7F50FBD4756
:102F5000E3EFE7E8256613061604B317E028F18FC0
:102F60006392072429466300C70A1D46E311C7E898
:102F70000327090011096309072693E81602BA8698
:102F80009800254531A013B60601631806269182E4
:102F900013F6F600930576036364C50093050603F4
:102FA00085073306F700A30FB6FE138607FE61FE02
:102FB000A14646C442C036C26A86C1480148CE8690
:102FC000D2852685EFF06F882A8D3DB533480821DC
:102FD00005063328A82003450600130808FD9307BB
:102FE00005FD93F7F70FE3F3F5FEB28C1307160018
:102FF00099BD832D0900110963C40D0803C51C0088
:10300000BA8C050725BD930749003ED4032C09005F
:1030100042866303081C03450C006296E287630A3C
:1030200005326386C70003C7170085077DFBB3879A
:1030300087413ED293F706406388071C93F726002A
:103040003ED09257B3D7070B3ED282576381073CDD
:1030500089473ED0B307A8013ECE6A8929A84A868F
:10306000CE86D285829405093307A941629703452C
:103070000700630E051AF247E39327FF3E8D4DAA22
:1030800003C51C0093E62600BA8CB30DB0410507BA
:1030900075B303C51C009307C006E317F5DE03C52F
:1030A0002C0093E6063013873C00D5B303C51C0003
:1030B00093E606200507E1BB03C51C0093078006C5
:1030C0006309F52293E606080507D1B39377D50F78
:1030D0001377F50D1D099387B7FB130797FB13793A
:1030E00089FF93B7170013371700032509008325BD
:1030F00049002E079607D98FD58F3EC02A87AE8705
:103100006A86EE88CE86D2852685EFF0EFEE21091D
:103110002A8DDDB1930760046300F5121D09137950
:1031200089FF03270900832749006A8636C0EE8895
:10313000CE86D2852685EFF00F9321092A8D6DB9B1
:103140006A86CE86D285130550028294050D6DB134
:1031500093074900898A3ED0130C1D006388061A24
:10316000034509006A86CE86D285829485476E9D86
:1031700063F3B7216286CE86050CD2851305000263
:103180008294E319ACFF025985B903C50C00B7243A
:103190000010938444F8014DE31A05C20144E3642E
:1031A0003DD941B39307F006630BF50863F9A72AED
:1031B000930780076308F5182946BD9A328C02DC14
:1031C00051A00328090003C52C00890C13871C009B
:1031D0003368080A110985B903450C007D566296CB
:1031E000E287E31005E4B5A293F8F6FE93F60640F5
:1031F00093E818029800E38506D8A14646C442C069
:1032000036C26A86C1485DBB93F726003ED0638212
:10321000072489473ED06A894A86CE86D285829421
:1032200005093307A94162970345070075F54A8DE3
:103230008257D1E32259C9B693E60602C5B52146A5
:10324000328C02DC13FF064013F336FF63060F00D7
:1032500013F326FF130F00409376032063900612AA
:1032600093770310930E49006390074A1377030482
:1032700071EF13770308630E0752035609006317B3
:1032800006121373F3FE63030F128147980076CE84
:103290001AC46EC242C0E2886A860148CE86D285D0
:1032A0002685EFE09FDA2A8D7249B9B693F726009A
:1032B0003ED0638007526A899257E3FDB7F7EA9DD3
:1032C000338DFD404A86CE860509D285130500025E
:1032D0008294E319A9FF225905B69307800563017B
:1032E000F502930720066313F5500946328C02DC81
:1032F00091BF03C52C0093E6060C13873C0041BE2A
:10330000414693E60602328C02DC2DBF854763FE00
:10331000B705130CFDFFB307BC013ECE6A8C628675
:10332000CE86D285130500028294F247050CE3187D
:10333000FCFE034509006286CE86D28582946E9D8E
:1033400002595DBC4146328C02DCEDBD03460900EA
:103350003DB793F706403ED2B1DB93F726003ED24D
:10336000638607466A8902D281BF034509006A86DF
:10337000CE86D28582940259628DBDBC1D09137917
:1033800089FF032E0900832E49002109B367DE015E
:10339000639C07221373F3FE63080F228147980092
:1033A0001AC46EC242C0E2886A8609B913575348EC
:1033B000130E100619C3130E1004591E9800A545CC
:1033C000B3768603850763E5D50293860603330546
:1033D000F700A30FD5FE938607FEE38A06EAE368AB
:1033E00086EB335686038507B3768603E3FFD5FC69
:1033F000F2963305F700A30FD5FE938607FEE38808
:1034000006E893360601E39406E8118255BF925709
:1034100063F6B73D930700403ED092573389AD0124
:103420003309F94042CE6A86CE86D2851305000262
:103430008294050D7248E3172DFF03450C00E30B42
:1034400005DE93871D003ED28257E38607DC02D05B
:1034500011B19257E3E3B7FD85073ED26DBB9307E9
:10346000900613F3F6FE631EF53613FF0640630461
:103470000F0013F3E6FE89C51305C5F96310053285
:1034800093750320BDE993770310130C49006394EF
:103490000722137703046302072003470900BA8653
:1034A0009358F7016301071EB7DECCCC938EDECCB8
:1034B000980021A0138607FE1DC233B6D6038507E8
:1034C00093B5A600330EF7000D823345C6200605DE
:1034D000898E93860603A30FDEFEB286E1DD42C02D
:1034E0001AC46EC246886A86A948CE86D2852685C9
:1034F000EFE0BFB562892A8D01B21D09137989FFFA
:103500008323490083250900210993DFF301B3E7F1
:103510007500638B072693D7F341BD8D3387F54044
:10352000B3C37700B387F34037D5CCCCB3B3E50052
:1035300037DFCCCCB3837740BA851305D5CC130FD6
:10354000CFCC81479800A542B386750033B6B6004C
:10355000B29633B6A6029E888507330EF700AE8E6C
:10356000135C2600719A6296918EB386D54033B66D
:10357000D5003386C3403306A602B383E6031E9606
:10358000B3B3A602B386A6021E96131CF60193538C
:1035900016008582E29633C6D62006063386C540DD
:1035A00013060603A30FCEFEB685639B080063E9EE
:1035B000D20142C01AC46EC27E886A86A94801B48C
:1035C000938607FED1F2F5B79357534813071006B9
:1035D00099C313071004930767FF3EDE98008147E5
:1035E00081467285F6853ADA1AD83ED642D432D26E
:1035F00072D076CE97D0FF0FE78040E2B257937635
:10360000F50FA545F24E025E12562258425352570C
:10361000850763E3D50493860603B305F700A38FFC
:10362000D5FE938607FEE38D06D6E256638BD6154C
:103630007285F68581463AD61AD43ED242D032CE31
:1036400097D0FF0FE78020AF72460258925722535F
:1036500032572A8EAE8E69B7F255AE96B305F70093
:10366000A38FD5FE63950E00BD46E3FBC6D39386BC
:1036700007FEE38706D29396CE01135E4E00369E78
:1036800093DE4E00B1BF9800E31B0FE493070003E5
:103690002300F1049800854799B513770308630365
:1036A0000710031709001356F740B346C700918E61
:1036B000B3C60608F5B38326090093D8F601EDCE0C
:1036C000B307D040B7DECCCCB3E6F60A938EDECC9F
:1036D000980033B6D603850593B7A600330EB7001E
:1036E0000D823345C6200605898E93860603A30FF7
:1036F000DEFEB28681E7938705FEE1FF42C01AC471
:103700006EC24688AE87C5B30326090011E613735F
:10371000F3FE980063100F0693575348130E1006DC
:1037200099C3130E1004591E9800A545B37786035C
:10373000850663E4F502938707033305D700A30FDB
:10374000F5FE938706FE9DC76366860333568603A0
:103750008506B3778603E3F0F5FEF2973305D700CD
:10376000A30FF5FE9337060191E7938706FE99C3F1
:1037700011826DBF76CE1AC46EC242C0E288B6878F
:1037800021BEE36FCEC06DB59800E3140FE293073E
:1037900000032300F1049800854721BD2946328C9F
:1037A00002DC5DBC03270900B306E040B366D70A1C
:1037B000C5B903260900E1B49800E3110FF493079B
:1037C00000032300F104980085450DBF93070040D6
:1037D0003ED0E3940DC422596FF00FE285073ED22C
:1037E00095B829469A86328C02DCA9BC13F3F6FE02
:1037F000930575F99DB90111B7280010AE872AC449
:1038000036872C00B2861385C8257D5606CE3EC667
:10381000EFF06FD8F2400561828083A7C183011168
:1038200006CE91CFAA86372500102E871305452591
:103830006C007D568297F2400545056182805126D5
:10384000F2400145056182800D45731025BE7D154E
:10385000E35D05FE05651305058073104530736053
:1038600004307310003482800290FDBF411106C6FF
:10387000E53F411122C426C237440010B74400106E
:103880001304C4F6938404F706C6EFE0EFD463771D
:1038900094001C4011048297E36D94FEB2402244D0
:1038A0009244410182801C412E85B28582878347E4
:1038B000550101114AC806CE2E89C1C76354C006FE
:1038C00022CC26CA83C705003284AA84D91781E78F
:1038D00083474501A1CF854701466304F40293065F
:1038E0001900854703C706003E888507591709E771
:1038F00003C7F6FF4D1729EF8506E315F4FE63585D
:1039000086009C40B305C4403305C9008297B305C7
:10391000890083C7F5FF6244CD1793B71700238A48
:10392000F400D244F2404249056182801C4137458F
:10393000001013058535894582970546E311C4FAC1
:10394000F9B71C41F2404A854249B2850561828738
:10395000B305C8403305C90063580601984036C610
:103960003EC40297B246A24798403745001013055F
:103970008535894536C63EC40297A247B2463E8683
:10398000A5BF9C41930600082E872A88638AD7002A
:103990009386170094C13387F5002302A700828025
:1039A00083A74184011122CC06CE1384450091EFF8
:1039B0008546814714C33E9723020701F2406244C3
:1039C0000561828099CA9C4BE5D79443A2853E85C8
:1039D000FDDA83A60184E397F6FE104342C63EC497
:1039E0003AC2F1353248A2471247F1BF397122DCA1
:1039F00026DA4AD856D206DEB28A4ED652D45ECEE7
:103A0000AE842A893684EFE0AF80B7470F009387F2
:103A10000724AA9733B6A700370700802E967D1794
:103A2000BE856374C7003A86FD55372A002013050A
:103A30004A1897C0FF0FE780E065FD57AA8B6381A6
:103A4000F40A39C4B74900109389E98A03A4418470
:103A50001DC063940A0429A0638C8700004801CC30
:103A60001C402686CA852285F5DB83A70184EDF7F5
:103A70008299004875F4639E0B04F25062544259D7
:103A8000B259225A925AF24B2685D2542161828031
:103A9000B74900109389698A55BF5AD0294B29A08C
:103AA000638C870000481DC01C402686CA8522857D
:103AB000F5DB83A70184EDF7829922859305F10058
:103AC0000546A30761018299004879FC025BE38601
:103AD0000BFA13054A1897C0FF0FE780406271BFC9
:103AE0004A85FD26AA84B1BF83A7418413874184F8
:103AF00099C76389A700138707019C4BFDFB91C100
:103B000008C38280FDFD944B14C323A80700828064
:103B1000411106C69D26B24005454101828079715A
:103B20004AD006D622D44ECE52CC2A89A307A10071
:103B3000EFD01FEEB7470F0093870724AA9733B63D
:103B4000A700370700802E967D17BE856374C700D7
:103B50003A86FD55B72900201385491897C0FF0FF5
:103B6000E780405303A441842A8A05C426D229A0B1
:103B7000630DF400004809CC1C4005469305F10094
:103B80002285EDDB83A70184E5F7153300486DF44A
:103B90009254631A0A00B2502254F249624A4A858A
:103BA0000259456182801385491897C0FF0FE7804D
:103BB0000055B2502254F249624A4A850259456181
:103BC0008280411106C622C426C22A841126AA84F4
:103BD00085462285A6853686113D03A4418411C4FD
:103BE0005C4091CB8297004865FCB2402244268518
:103BF000924441018280004865F4B2402244268507
:103C0000924441018280717122D526D306D74AD1D0
:103C10004ECF52CD56CB2A84AE84EFD07FDFB7474C
:103C20000F0093870724AA9733B6A70037070080B1
:103C30002E967D17BE856374C7003A86FD55B72959
:103C400000201385491897C0FF0FE780A0442A8AF7
:103C5000374500102286A6866C001305259802C6FB
:103C6000593EB24703A44184AA8AA9C315E002C6FB
:103C700063180A04BA502A549A540A59FA496A4AEB
:103C80005685DA4A4D618280638B8700004801CCFB
:103C90001C400C082285FDDB83A70184F5F7324622
:103CA0003931004875F403A4418402C671D05C40E8
:103CB00091C7829700484DDC5C40E5FF0048FDB7A6
:103CC0001385491897C0FF0FE780604365B73971C6
:103CD000130341022ED29A8506CE32D436D63AD874
:103CE0003EDA42DC46DE1AC6393FF240216182806C
:103CF000635EB00203A70185B787F8BFBA9793B791
:103D0000170093868183B3A7D72003980700330653
:103D1000B500B54583460500630BD8001C4F93F7EB
:103D20000702EDFF14C30505E316C5FE82801C4F94
:103D300093F70702EDFF0CC3D5B703A8C184635303
:103D4000B00603A7018581461C4FC18B85EF850610
:103D50001C4FC18BF5FF1043B307D500A38FC7FEDF
:103D6000E394D5FE630D0800930700051CDF5C5B40
:103D700085669386460393F7870336971CC3AE8602
:103D800036858280630D0800930700051CDF5C5BAD
:103D900005661306460393F7870332971CC3EDF2BB
:103DA000F556F9BFE30E08FE83A70185130700054A
:103DB000856698DFD85B93864603B69713778703AB
:103DC00098C3F55675BF83A7C18481CB03A701852E
:103DD00003A58184232C07028287828003A70185A3
:103DE0001C4FA18BF5FF828003A70185B787074091
:103DF00001112A863305F7401335150006CE2E88AB
:103E00001305150283A5C18409C68DC9F240056159
:103E10008280EDDD232C070281452AC6EFC09F9CDE
:103E20003245B7450010938565DCEFC0FFE7F240EF
:103E300023A6018423A4018405618280B745001074
:103E4000938565DC2AC623A6C18423A40185EFC01F
:103E5000DF9C32458545EFC0FF9883A70185130796
:103E60000005856698DFD85BF24093864603B697D7
:103E70001377870398C305618280B747001083C713
:103E800007394111B747001083C7C73822C4B74765
:103E9000001083C78738B70707408945014506C624
:103EA00023A8F184EFC02FEC89450545EFC0AFEBA7
:103EB00003A50185F16593850520EFD01FBF22443E
:103EC000B24037250020130585168545410129B9E3
:103ED000937735002A879DEFB7867F7F9386F6F725
:103EE000FD5510431107B377D600B697D18FD58F04
:103EF000E389B7FE8346C7FFB307A7408DCA834651
:103F0000D7FF9DC20345E7FF3335A0003E957915E5
:103F10008280F9D283470700050793763700F5FBC7
:103F2000098F1305F7FF82801385D7FF82801385E1
:103F3000C7FF8280681E0010081E0010321E00108D
:103F4000981E00104C1E0010821D0010941E0010C0
:103F5000701D0010FC1000103A150010C61D001056
:103F60007E1E001048380010AC070010040100103D
:103F70004E756D626572206F662074696D65732081
:103F8000627574746F6E20707265737365643A2520
:103F9000640A00000A2A2A2A2050414E4943202A56
:103FA0002A2A0A000A00000048617264776172657B
:103FB00020616C61726D20256420616C72656164A2
:103FC0007920636C61696D6564000000486172640A
:103FD000206173736572740052656C65617365006E
:103FE000626F6F74325F77323571303830000000A5
:103FF000322E322E30000000776176657368617270
:10400000655F7270323335305F6C63645F312E32BE
:10401000380000006C616232610000004D6179205F
:104020003138203230323600666E692B00000000D5
:10403000666E69006E616E00666E692D000000009C
:104040005541525420737464696E000055415254B6
:10405000207374646F7574005541525420737464F6
:10406000696E202F207374646F75740006005250BF
:10407000D3F07542D83F001006005250E182887F8D
:10408000E03F001006005250ABB36053F03F001009
:1040900006005250BBFF3CB6F83F001006005250DD
:1040A000861C030214400010060052505422A29DA8
:1040B0001C40001005005250DE65F46834650010A5
:1040C0007C2E0010242E0010242E0010742E0010C0
:1040D000242E0010242E0010242E0010242E001058
:1040E000242E0010242E0010242E00106C2E001000
:1040F000242E0010642E0010242E0010242E0010F8
:104100005C2E0010B83000108E2E0010AC30001065
:104110008E2E0010923000108E2E00108E2E001069
:104120008E2E00108E2E00108E2E00108E2E00105F
:104130008E2E0010842E00108E2E00108E2E001059
:104140008E2E00108E2E00108E2E0010842E001049
:1041500040310010EE2D0010EE2D0010EE2D00105D
:10416000EE2D0010EE2D0010EE2D0010EE2D0010A3
:10417000EE2D0010EE2D0010EE2D0010EE2D001093
:10418000EE2D0010EE2D0010EE2D0010EE2D001083
:10419000EE2D0010EE2D0010EE2D0010EE2D001073
:1041A000EE2D0010EE2D0010EE2D0010EE2D001063
:1041B000EE2D0010EE2D0010EE2D0010EE2D001053
:1041C000EE2D0010EE2D0010EE2D0010EE2D001043
:1041D000CC30001014310010CC300010EE2D001047
:1041E000EE2D0010EE2D0010EE2D0010EE2D001023
:1041F000EE2D0010EE2D0010EE2D0010EE2D001013
:10420000EE2D0010EE2D0010EE2D0010EE2D001002
:10421000EE2D0010EE2D0010EE2D0010DA32001001
:10422000EE2D0010EE2D0010EE2D0010EE2D0010E2
:10423000EE2D0010EE2D0010EE2D0010EE2D0010D2
:10424000EE2D0010DA32001050310010DA3200107A
:10425000CC30001014310010CC30001000000000F1
:10426000000000000000F03F0000000000002440BB
:1042700000000000000059400000000000408F4096
:10428000000000000088C34000000000006AF84001
:104290000000000080842E4100000000D012634125
:1042A0000000000084D797410000000065CDCD419B
:1042B0000600525053B4F4A1584000100000000012
:1042C0000000000065CDCD410000000080842E413B
:1042D000FFFFFFFFFFFFEFFFFFFFFFFFFFFFEF7F8E
:1042E0000000000065CDCDC1000000000000E03FEF
:1042F000FB799F501344D33FB3C8608B288AC63FD5
:10430000000000000000F83F61436F63A787D23FC1
:1043100071A379094F930A401655B5BBB16B0240A2
:10432000EF39FAFE422EE63F0000000000002C406C
:1043300000000000000024400000000000001840C1
:104340000000000000000040000000000000F03FFE
:104350002D431CEBE2361A3F0D0A000008005250B4
:0C436000120000000800525092100000F3
:10436C006C40001078400010844000109040001009
:10437C009C400010A8400010B44000106443001092
:08438C005C430010B042001078
:10439400B70700D09C43011122CC26CA4AC84EC696
:1043A40006CEBE842A842E89B28931A80F00300338
:1043B4002300070073A007304A85CE85972000F0BC
:1043C400E780008931E51C40737704309396370009
:1043D400B316D028F19B2FA6D744758E6DFE0F001F
:1043E400300383064400937787001840E3D006FC2B
:1043F400230294000F0030032300070073A007304A
:10440400F2406244D2444249B24905450561828082
:10441400F2406244D2444249B24901450561828076
:104424001C417377043093963700B316D028F19B60
:104434002FA8D7443378D800E31C08FE0F003003BC
:104444008306450093778700184163C206020F0074
:1044540030032300070073A00730B70700D0038799
:10446400070081476314D7003E85828015B7B706DD
:1044740000D094422302D5000F003003230007002C
:1044840073A0073085473E8582801C4173770430D2
:1044940093963700B316D028F19B2FA6D744758E78
:1044A4006DFE0F003003FD572302F5001C410F0081
:1044B400300323800700218B732007303320100042
:1044C400828032873688AA882E836398061AB72793
:1044D40000209387C7E563F6C50AC1666379D608E9
:1044E4009336061093B616008E06335ED600F29706
:1044F40083C70700B69793060002638DD7009D8E8D
:104504003393D500B357F5003317D60033E3670070
:10451400B318D50013550701B357A302B3450708D1
:1045240093D608013373A3023386F5024203B3E63C
:10453400660063F8C600BA9663F4C60063F0E60446
:10454400FD17918E33D6A602B3F6A602B385C50233
:10455400B3C6D80863F8B600BA9663F4B60063FC31
:10456400E6107D16C207D18F3E85C2858280370E44
:104574000001E146E37BC6F7C14685BFF917BA9649
:10458400C9B7814609CAC166637DD604933606104D
:1045940093B616008E063358D600C29783C7070019
:1045A40013080002B697639507053386C54005488E
:1045B40013550701B357A602B345070893D608015C
:1045C4003376A6023383F5024206D18E63F8660081
:1045D400BA9663F4660063FDE608FD17B386664089
:1045E40095B737080001E146E37706FBC14665B796
:1045F4003308F84033170601B3D6F500B3180501A4
:10460400B357F50013550701B395050133D8A60236
:10461400CD8FB345070813D60701B3F6A60233833B
:104624000503C206558E637866003A966374660085
:10463400637AE6027D1833066640B356A6023376E3
:10464400A602B385D50233C6C7086378B6003A9686
:104654006374B600637BE600FD1642080D8E336872
:10466400D800B9B779183A96F9B7F9163A96F5B762
:10467400F917BA96A5B77916F5B563E4D512C167EB
:1046840063FEF60213B70610133717000E07B72799
:10469400002033D8E6009387C7E5C29783C7070095
:1046A40093080002BA9763921703B337C50093B710
:1046B4001700B3B6B600D58F01487DB5B707000122
:1046C4006147E3F6F6FC4147D9B7B388F84033585D
:1046D400F600B39616013368D80033D7F500135E9D
:1046E4000801B357F500B3951501DD8DB357C70322
:1046F40033430808331616013377C703B30EF302A6
:104704009316070113D70501558F6378D701429794
:104714006374D70163710709FD173307D741B35693
:10472400C7033377C7033303D30233C7E50863787A
:10473400670042976374670063720707FD16C20738
:10474400D58F33480608B3C60608418293D50701BE
:10475400330767403383060333880503B386C602F1
:10476400B385C502C29613560301B29663F40601DB
:104774004166B29513D606012E96636CC700C20635
:1047840033430308331515019A96E377D5F2E315FD
:10479400C7F2FD1715B7F917429741B7F9164297B3
:1047A40079BF01488147C9B3B288AA872E88639527
:1047B400061C372700201307C7E563FEC50AC16638
:1047C4006374D60A9336061093B616008E063353D6
:1047D400D6001A97034707003697930600023383DF
:1047E400E640630CD700339865003357E500B318EF
:1047F400660033680701B317650013D50801B35683
:10480400A80233CE080813D707013378A802B38669
:10481400C603420833670701637DD7004697B33563
:1048240017013336D70093B515006D8E3306160382
:104834003297158FB356A7023377A702B386C60300
:1048440033C5E708637DD500469533371501B33783
:10485400D50013371700F98FB38717033E95158DCD
:10486400335565008145828037030001E146E370DA
:1048740066F6C146A9BF814609CAC1666378D606F1
:104884009336061093B616008E063358D600429718
:10489400034707003697930600023383E640631EFE
:1048A400D7043387C54093D508013356B70233C8BC
:1048B400080893D607013377B70233060603420785
:1048C400558F637DC700469733351701B336C7004C
:1048D40013351500E98EB38616033697118FB35638
:1048E400B7023377B702B386060399BF37080001CE
:1048F400E146E37C06F9C14649BFB3186600B3D666
:10490400E500B31765003357E50013D5080133D626
:10491400A60233CE0808B3956500D98D13D70501D7
:10492400B3F6A6023306C603C206558F637EC700DC
:10493400469733381701B336C70013381800B3F657
:104944000601B38616033697118FB356A702337741
:10495400A702B386C60333C7E508637DD70046972D
:10496400B33517013336D70093B515006D8E330672
:1049740016033297158F05BF63EAD514416763F5B3
:10498400E60413B70610133717000E07B7280020E4
:1049940033D3E6009388C8E59A9883C808001303C4
:1049A4000002BA98639968026374C50063FBB60099
:1049B4003308C540C287B386D540333805013388F0
:1049C40006413E85C2858280B70800016147E3FF46
:1049D40016FB414765BF33031341B3966600335E4C
:1049E4001601336EDE00B3D71501935E0E01B3D604
:1049F400D703B3956500335815013368B800B34540
:104A04000E083317660033156500B3F7D703338FE9
:104A1400D5021396070193570801D18F63F8E70174
:104A2400F29763F4E70163F4C70BFD16B387E7411C
:104A340033D6D703B3F7D703B385C502B347F80812
:104A440063F8B700F29763F4B70063F5C7097D16FE
:104A5400C206D18EC1823346060833480708B3859F
:104A6400B74093570701B30E060333880603330692
:104A7400F602B386F602429693D70E01B29763F418
:104A840007014166B29613D60701B3CE0E08C207DA
:104A9400B296F69763E6D500637CF500639AD50079
:104AA4003387E74033B6E700BA873307C601998EE8
:104AB400B307F5403335F500958D898DB39815010D
:104AC400B3D7670033E5F800B3D565008280F916E3
:104AD400F297A9BF7916F297A5BF370810007D1881
:104AE400B377B80013D745013378D80013DE4601F5
:104AF4009358D5010E081353D6011377F77F8E0709
:104B0400137EFE7FFD81FD82B3E7F800336303016A
:104B14000E050E063308C7419308F07F6392D5242F
:104B24006358000D63140E02B366C30091CE1308DC
:104B3400F7FF631908002A969A973335A600AA97B7
:104B4400054789A8631817012A86B5AAE30E17FF3B
:104B5400131373299306800363C70609FD46130ED6
:104B6400000263CD0605330E0E41B316C301B358DC
:104B74000601331EC601B3E61601333EC001B3E697
:104B8400C601335803013386A6003E98B336D600D7
:104B9400B307D8009396870063D8061805079306D1
:104BA400F07F630CD71A93561600058A139577493C
:104BB400558EFE075D8E93571500BDA2930608FE21
:104BC400B356D30081486308C80193080004B3882E
:104BD4000841B3181301B3E8C800B3381001B3E6B1
:104BE400160101484DB7B366C300B336D000D5BF34
:104BF4006300080A3308EE4001EF33E7A70011C74A
:104C04009306F8FF8DDA631A18019A87428765A81C
:104C1400630E1E4393977729C28613078003634468
:104C2400D7067D4793080002634AD702B388D84069
:104C3400339717013358D500B318150133670701AB
:104C4400B338100133671701B3D6D7003A96333718
:104C5400E6009A96B387E60072872DBF138706FE97
:104C640033D7E700014863881601130800043308AA
:104C7400D840339807013368A800333800013367FC
:104C840007018146E1B733E7A7003337E000D5BF1A
:104C94009306170013F8E67F631B0806B3E6A70024
:104CA40039EF638B06383367C300630907382A96E4
:104CB4009A973335A600AA9713978700635A072655
:104CC4009397774905470D829396D701D18E1306A2
:104CD400F07F8D836319C700DD8E814789C6B707CE
:104CE4000800814681451377F77FB207B1835207E5
:104CF4005D8FFE05B367B7003685BE85828063810C
:104D040006343363C300631703242A861DAE638C01
:104D140016332A963335A6009A97AA971397F70164
:104D24000582598E858336879376760081CE937675
:104D3400F60011456388A600B306A60033B5C60085
:104D4400AA97368693968700E3DF06F6050793064F
:104D5400F07F93977749E318D7F681470146A5B7C3
:104D64006352000D63110E08B366C300E38E06DCC4
:104D74001308F7FF631B08003306C540B387674079
:104D84003335C500898F0547A1A0E30F17DB9306D0
:104D9400800363C40609FD46130E000263CA0605B8
:104DA400330E0E41B316C301B3580601331EC601B8
:104DB400B3E61601333EC001B3E6C601335803011E
:104DC4003306D540338807413335C500B307A840BF
:104DD40093968700E3DA06F4B7088000FD18B3F869
:104DE4001701328875A2E30117D71313732945B746
:104DF400930608FEB356D30081486308C80193089C
:104E04000004B3880841B3181301B3E8C800B338E9
:104E14001001B3E61601014865B7B366C300B336A3
:104E2400D000D5BF630D080A3308EE400DE733E721
:104E3400A70005C31307F8FF19EB3305A640333762
:104E4400A600B307F3402A86998FB6852DBF631950
:104E54001801B6855DBB630A1E1F939777294287A5
:104E64009305800363C8E506FD459308000263CEFD
:104E7400E502B388E840B39517013358E500B31849
:104E84001501B3E50501B3381001B3E5150133D7B6
:104E9400E700B305B640B337B6003307E3402E86C8
:104EA400B307F740B685728725B7930507FEB3D5D8
:104EB400B700014863081701130800043308E840E9
:104EC400339807013368A80033380001B3E50501BE
:104ED4000147C1B7B3E5A700B335B000D5BF130888
:104EE40017001378E87F631F080633EEA7003368C2
:104EF400C30021EF63170E009A87631A08028145E5
:104F0400A9BD630D0812B308C540333E15013388AB
:104F140067403308C841131E880063510E023305ED
:104F2400A6403337A600B307F3402A86998FB68587
:104F34003367F600E30307E20147FDB333E60801F4
:104F440063090610C2874686E5B7631A0E00B68564
:104F54006318080E8145B70740000146DDA0E3064B
:104F640008DACDBF330EC540B33EC501B3886740F0
:104F7400B388D841939E8800728863D50E0633089F
:104F8400A640B308F34033360601B388C840B6855B
:104F94006381080693960860E11693070002958FD3
:104FA400B398D800B357F800B3E717013316D80005
:104FB40063C0E608998E138816007D471305000226
:104FC40063450705330505413397A700B35606012A
:104FD4003315A600558F3335A0003366A700B3D729
:104FE4000701B9B733661E0145F68145814701477C
:104FF400D9B993170860938687017D46E35FD6F895
:10500400E117B317F800014665B78516B3D6D70084
:1050140001476308A80013070004330707413397C7
:10502400E700518F3337E00033E6E600814709B7E4
:10503400158F93977749CDB99A87DDBD2A86CDBD63
:105044009A87468749B1368709BBB6859A8772879E
:105054009DB98145814785B9411193D845019397FD
:10506400C50022C626C493F8F87FB183FD81638E00
:1050740008061307F07F6383E80C1358D5018E07E5
:105084003368F80013187829131F3500938818C063
:10509400014E13D746019397C6001377F77FB18368
:1050A400FD8245CF1305F07F6301A7101355D60188
:1050B4008E07C98F9397772913153600130717C0E6
:1050C4000143B388E84013172E00336767007D1748
:1050D400B94E33C6D50063E7EE0EB72E0020938E8B
:1050E4000EE23347D7211843028733E8A700630E43
:1050F400080485CB13970760930857FF754813037B
:1051040087FF33081841B3976700335805013368A4
:10511400F800B31765009308D0C0B388E8403E8F09
:1051240085BF1318056093085801714313070802DB
:10513400E35613FD611833180501F1BF33E8A700E6
:1051440063190800014F094EA9B7014F8148054E64
:1051540089B72A8F3E880D4E2DBF33E5C70021CD78
:1051640085CB13950760930E55FF7543130785FF91
:105174003303D341B397E700335366003363F3003B
:10518400B317E6001307D0C0098F3E859A870DBF79
:1051940013170660930E5701714313050702E35674
:1051A400D3FD61173313E600F1BF33E5C70001E90E
:1051B4008147094339B781470147054319B7328508
:1051C4000D4301B763E607016318F8246366AF244F
:1051D4009315F80113571F009316FF011358180075
:1051E40033EFE500139E870093558501B3E5C501B0
:1051F400135E0E01131385003355C803B3CE05089F
:1052040093570F013378C8033387AE024208B3E7DC
:10521400070163F8E700AE9763E4B70063E1E720B2
:105224007D15998F33D8C70333F7C703B38F0E03A4
:105234003347EF086378F7012E976374F7016373BC
:10524400B71E7D184205B362050193D702011358B6
:10525400030133C50208334F0308B303E5033307DF
:10526400F7413384E7033305A802B30F850013D550
:1052740003017E95B387070363748500C16FFE97AE
:10528400935F0501B3C303084205BE9F1E95636681
:10529400F701631CF71963FAA618B383660033B4E5
:1052A400D300B304B40026979387F2FF9E8663E588
:1052B400E5000DE06390E5026366F701639CEF008F
:1052C40063FAA300B30673009387E2FFB3B26600E8
:1052D400AE921697B382A6403307F741B3B6560091
:1052E400158F7D55638CE50C3355C7033377C7039E
:1052F400B38FAE029316070113D70201558F63785B
:10530400F7012E976364B7006363F7137D153307C2
:10531400F741B35FC7033377C703B38EFE0333C7C5
:10532400E2086378D7012E976374D7016374B710CA
:10533400FD1F93160501B3E6F60133C506083307CE
:10534400D74193DE0601B30FAF02338FEE03B30EE2
:10535400D8033308A8023305E80113D80F012A98AB
:105364006374E8014165AA9E135E0801B3CF0F0878
:105374004208769E7E986366C701631FC703630E67
:10538400080AB38EE5001385F6FF768763E1BE0253
:1053940063E6CE016391CE03637B03011385E6FFCD
:1053A4009316130033B766002E97769736836314EB
:1053B40003016305C701AA8613E516001387F83FA6
:1053C4006352E00A9376750081CE9376F500914599
:1053D4006388B600B306B500B3B5A600AE973685AC
:1053E4009396770063D606009397874913870840FE
:1053F4009306E07F63C6E6109396D7010D81558D21
:105404008D833244B2075207B1835D8F7E06A24476
:10541400B365C70041018280FD188146E1B3791567
:10542400AE9701B579182E9731BD968765B5791574
:105434002E97F1BDF91F2E97EDBD0143368585BF2B
:1054440036861A8E0947630DEE0A0D476303EE0A8A
:105454000547E315EEF681470145ADA02E86C287C8
:105464007A85CDB735C3930690FCE346D7FE8956BB
:10547400634ED7048546998E9388E8413357D50007
:10548400331515013335A000B398170133651501A1
:10549400498FB3D7D7009376770081CE9376F70000
:1054A40091456388B600B306B700B3B5E600AE977E
:1054B40036879396870063CA06041395D7010D8334
:1054C400598D8D83014735BF85467DB70558B30691
:1054D400E840B3D6D7008145630607019388E843C3
:1054E400B3951701C98DB335B00033E7B6008147D2
:1054F4005DB7B707080001451307F07F014611B7F0
:10550400814701451307F07FEDBD814701450547FC
:10551400CDBD93D84501370710007D1713D8460138
:1055240093F8F87F9307F07F3373B7001378F87F0D
:10553400758FFD81FD82638DF800130EF07FC287A5
:10554400631FC801336EC700630B0E00F95731A007
:10555400336EA300F957E3020EFE3E858280014EAE
:1055640063960800336EA300133E1E006313080401
:10557400B36EC70063080E00E3810EFE9397160016
:10558400FD17E1BF63990E02B305B04093E7150020
:10559400E9B7E3C508FFE36967FE6374A600E305A2
:1055A400E3FE6365C5008147E379E3FA9397150049
:1055B400C1BFE3150EFCE399B6FCE35C18FDB3062A
:1055C400D04093E7160051BF93D845013707100028
:1055D4007D1713D8460193F8F87F9307F07F337350
:1055E400B7001378F87F758FFD81FD82638DF80015
:1055F400130EF07FC287631FC801336EC700630BAD
:105604000E00894731A0336EA3008947E3020EFEE2
:105614003E858280014E63960800336EA300133EDC
:105624001E0063130804B36EC70063080E00E38111
:105634000EFE93971600FD17E1BF63990E02B305A2
:10564400B04093E71500E9B7E3C508FFE36967FED7
:105654006374A600E305E3FE6365C5008147E3794F
:10566400E3FA93971500C1BFE3150EFCE399B6FC6A
:10567400E35C18FDB306D04093E7160051BF411117
:1056840093D745011398C50022C626C44AC293F78E
:10569400F77F1358C800FD81C9CB1307F07F6381DE
:1056A400E70E1357D5010E0833680701131878293C
:1056B400931E3500138317C0014F13D546019397EA
:1056C400C6001375F57FB183FD8279C91307F07F96
:1056D4006301E5121357D6018E07D98F9397772963
:1056E40013173600130515C0014E3306A300131516
:1056F4002F003365C501A9481303160063C7A81218
:105704008948B58D63C4A8107D15854663E8A61243
:10571400728F8946630CDF368D466305DF36854616
:105724006310DF268147814815A6B36EA800638104
:105734000E06630A080213170860930857FFF5471B
:10574400130387FFB387174133186800B357F50075
:10575400B3E70701331865001303D0C0C28E3303C7
:10576400E3403E8891BF93170560938857017143C6
:1057740013870702E35513FDE117B317F500E9BFDB
:10578400B36EA800639A0E0001483E83094F35B7F3
:1057940001480143054F15B7AA8E3E830D4F31BF13
:1057A40033E7C70029CF8DCB139E076013055EFF37
:1057B400F54813078EFFB388A840B397E700B358A2
:1057C4001601B3E8F800B317E6001305D0C03E870E
:1057D4003305C541C68709BF131706601305570172
:1057E400F148130E0702E3D5A8FC6117B318E600CD
:1057F400E9BF33E7C70001EB8147094EFDB5814797
:105804000145054EDDB532870D4EC5B53315A028CB
:105814009378055363910802137F0524631E0F24B4
:105824001375850801CDB685E5B53D46630CC524E1
:105834002D46E30AC5FEC2877687E1BD13DE0E015D
:1058440093560701B3CE0E08B343070833877E028D
:10585400B30F7E0293580701338FD6037E9FFA98C5
:105864003305DE0263F4F801416F7A953347070884
:1058740013D40801C208B3CF0708BA9813D7070195
:10588400B382FE03B307FE0313DF0201B30ED70393
:10589400BE9E769F330EEE026374FF00C1673E9E88
:1058A400B3440808935E0F0193170F01135F0801B7
:1058B400B3C20208969733897402F29E3E94B303EE
:1058C4007F02935209013388E603B38696029E96BB
:1058D400969663F47600416E7298B382F40313DEF5
:1058E4000601429E13980601334909084A98B30FEA
:1058F400FF0393D60201330FE703330797027E9722
:10590400BA9663F4F60141673A9F13970601B3C24E
:10591400020822951697BA9EB337F500F6972A988F
:105924003E9E33B7EE003335A800B3BED70172955F
:10593400C1823367D7013697B336FE00333EC501C3
:10594400B3E6C601BA961317980033671701FA969F
:105954003337E00013587801A6069357750133676F
:1059640007012605498F13957600D58F635C0506DC
:1059740093561700058BD98E1397F701558F85839E
:105984009306F33F6352D0061376770001CE137665
:10599400F70011456308A6003306A7003335E60077
:1059A400AA97328713967700635606009397874920
:1059B400930603401306E07F634AD60C9398D701FD
:1059C4000D83B3E8E8008D83B2073244B183D20675
:1059D400FE05DD8EB3E7B600A24412494685BE85B6
:1059E40041018280328369BFA5C6130690FCE3CBD4
:1059F400C6D2095663C0C6060546B306D64013038D
:105A0400E3413356D700331767003337E00033934D
:105A1400670033676700518FB3D7D7009376770059
:105A240081CE9376F70011466388C600B306C7009B
:105A340033B6E600B29736879396870063CD0604A3
:105A44009398D7010D83B3E8E8008D838146ADBFF9
:105A5400854675B705583306D84033D6C700014587
:105A6400638606011303E34333956700498F333795
:105A7400E000518F81475DB7B70708009306F07FB8
:105A8400814599B7B70708008148CDBF8147814850
:105A94009306F07F15BF81478148854635B737089F
:105AA40010007D18B377B8003378D80013DE4601B0
:105AB4000E081353D60113D745019358D5018E0709
:105AC40033630301137EFE7F1308F07F1377F77FA0
