:020000041000EA
:10000000F2EB887194C40410C0C40410A80000105E
:1000100090A31AE7D3DEFFFF420101114403000061
:100020003600001000200820FF0400004C320500BC
:10003000793512AB79A897910010938121981721F7
:100040000810130121FC176500101305B547731044
:100050005530732540F135ED1707000013070705EC
:100060000C4391C55043144731071D28D5BF9775E0
:100070000010938525D3178600101306A62521A00E
:1000800023A005009105E39DC5FEEF40100B592804
:10009000EF4030070290FDBF884108C2910511066C
:1000A000E36CD6FE82800100C0C404100000002072
:1000B000A06D00206032051000000820000008201C
:1000C0006032051000100820001008200000000019
:1000D000828021651305C5DF028552B83774002080
:1000E000834704F299EF9307000089CB371501107D
:1000F000130505BB97000000E700000085472300BB
:10010000F4F252BE9307000089CFB775002037156F
:100110000110938545F2130505BB17030000670026
:1001200000008280597186D6EF70707CA2D4A6D26E
:10013000CAD0CECED2CCD6CADAC8DEC6E2C40DC989
:10014000B777002083A747D937170110371601105A
:10015000C847B7150110130707BB130606BC9385E4
:1001600005C193065002EFB080277D55EF406079BE
:10017000EF108010054A370900D00146D2850145AD
:1001800023204905EF10200B852301458145EF0011
:1001900030481307F00A9307D00C9308A005130802
:1001A000E006130630079306500A8A850808B71A36
:1001B000030046D046C83AD23ADA3ACA3AC242D4E2
:1001C00042CC3ED63EDE3ECE3EC632D832C036DCD3
:1001D00036C4938AFAD3C520B7890020378B002014
:1001E000EF20C06A23AEB18023ACA180512283A549
:1001F000C181AA8B03A58181EF00B0692A8C81455A
:100200000145C9210327490083C70181058B05C129
:1002100059EB03A5818183A5C18199E723A0A91C7E
:1002200023A6B18023884181EF00903E55BF0DE7A2
:1002300099EB03A7818183A7C1812388418123A0F2
:10024000E91C23A6F18063940B00E30B0CF803A5D3
:10025000818183A5C181C9BFFDD783A7818103A700
:10026000091C83A6C18103A6C1803387E740238888
:100270000180B3B7E700918E6394F600E3F5EAFCE2
:1002800083278B1B850713D7F74179833385E700D5
:100290000D89198D232CAB1AEF00F06D03A5818118
:1002A00083A5C18151B7C5D703A5818183A5C1812C
:1002B0002388018095BF832F0500032F4500832EDF
:1002C0008500032EC50003A3050083A8450003A8ED
:1002D0008500C8454111B787002006C6938787155A
:1002E00037870020130787D423A0670023A21701B4
:1002F00023A40701C8C7014881472320F70123220F
:10030000E7012324D7012326C70123ACF18223AEC2
:10031000018323AA018223800184EF70D033FD453D
:100320006945EF00506E014681456945EF00B070A8
:1003300081456945EF001072FD456D45EF00B06CD9
:10034000014681456D45EF00106F81456D45EF0019
:1003500070705145EF005072B240B70700D03707B8
:100360001000B8C301468545514541016F00B06C8E
:1003700003C701842A861DC383A7818383A6C18303
:10038000B307F540B386D5403335F5006393A6181F
:10039000B7564C00938606B463EDF616B70700D047
:1003A00003A34700131EB30003C5018383A8418341
:1003B000634E0E0E01E9854623A4C18223A6B182B5
:1003C0002388D182014537070A401C433D63B71695
:1003D0000A40B3F767009CC2B7270A40914694C30E
:1003E0001C4393F70710EDDF54431C433D6337175D
:1003F0000A409397C768B3F767001CC31147B72734
:100400000A4098C337070A401C4393F70710EDDFF3
:100410005C4393870780939757606395080C138715
:1004200006801317576093088070894663CFE800F1
:100430009308800C854663CAE8009306808F634169
:10044000D722132787F3B306E04013078070634574
:10045000F7161307800C6340F70E1307808F63C3F2
:10046000E720130780F363C7E724D5CA0147B777AE
:100470000020938787D583A80700C843C6962A978C
:1004800063C9060A1305F00EB3C6A60A94C36340F7
:10049000070A9306F00E3347D70A0545D8C32380D1
:1004A000A18423ACC18223AEB18285A801DD23885B
:1004B000018283A7818203A3C182B307F6403383FD
:1004C0006540333EF600630DC3056389080E23AA19
:1004D0000182814805472380E18423ACC18223AE99
:1004E000B182D5B51307C05D6345F70A1307401FF6
:1004F0006345F704130740A263C8E7161307C0E07B
:1005000063C7E7188146014723A0D18223A2E18275
:1005100082802380018423AA018205458280828013
:10052000371303001303F3D3E37EF3E879BF0147E6
:10053000ADB78146A1BF05471DBF03A7018283A6B2
:1005400041823307E6403338E600B386D5406398EE
:100550000601B7A607009386F61163FCE60E054573
:10056000011106CE05472EC632C43EC26384E80E92
:10057000EF00B045B24522469247F24023A0C18227
:1005800023A2B18223ACC18223AEB18205450561AD
:10059000828003A7018283A641823307E640333875
:1005A000E600B386D540E39C06FBB756020093866F
:1005B000F69EE3E6E6FA8280094755BDE30B07F0B5
:1005C000B7770020B7880020938787D5938888D491
:1005D00083AE070003A7880003A3080003AE47000B
:1005E00083A748003327D70133A36E0013371700C2
:1005F00013331300B327FE003377670093B7170058
:10060000F98F89C783A7C80063DAC70BB7880020B2
:100610009388881503A7080003A3880083A74800D0
:1006200033A7EE003323D30113371700133313001E
:10063000B327FE003377670093B71700F98FE38A7B
:1006400007E883A7C800E3C6C7E9894823AA11833E
:1006500051B58280EF00303492472246B24531BF17
:10066000F956E5B3795721B503A7018283A64182E4
:100670003307E6403338E600B386D540639E060371
:10068000B75602009386F69E63E8E602828003A7CF
:10069000018283A641823307E6403338E600B38601
:1006A000D540639B0601B7A607009386F61163E564
:1006B000E60082807D5765BB7D555DB5854823AAE0
:1006C000118309BD11C9B7770020138787D5584317
:1006D00083A787D558C11CC189C583C701842380DE
:1006E000F50003A5418382805971014586D6A2D4C5
:1006F000A6D2CAD0CECED2CCD6CADAC8DEC6E2C422
:10070000E6C2EAC06EDEEF70303171651305052078
:100710008545EF20007F23A2A1846303056C1306A7
:10072000000FB28501478146378A8080B709FFFEF6
:10073000EF80C075130A1A089389F9EF7D59930465
:1007400080072944B3072041B367F90AB3C7F720EC
:1007500086071387170093155700B386E540B3B596
:10076000D500ED838D8F13166700B697B308E6406A
:100770001358A70133B7D70033361601BA9733BEE3
:1007800047033308C8404698333718013A983386F0
:10079000244193058007334606082E8501473333ED
:1007A0004803135E7E00931E8E00338ECE41B387C6
:1007B000C7419D8E05099357730013938700B307B4
:1007C000F3403308F840B3870841B3863603B38754
:1007D00037031398B6009607B3E70701DD8EB3C65B
:1007E0000608EF80B046E31F89F4B7C6041083AB58
:1007F000862703ABC627B7C70410B7C6041003A7E4
:10080000072703A6062883A7472783A64628014A69
:10081000814A32CC36CE3A89BA8C3A8CBA89BE84B7
:100820003EC03EC43EC85ED05AD25ED45AD6D28DA7
:10083000568D0144C1A8228597400010E780E0A2B0
:100840006246F24697300010E780E0F7B7C7041021
:1008500003A6872883A6C72897300010E780A0F654
:10086000B7C7041003A6072983A6472997300010AD
:10087000E780808C2A8AAE8A97000010E780406B60
:10088000025692562A8BAE8B97300010E780A0F369
:1008900097000010E7800071AA8D2E8D5285D685B5
:1008A00097000010E78080612256B2562A8AAE8AED
:1008B00097300010E78020F197000010E780806EED
:1008C0002A87AE874A86A6865A85DE853E8BBA8BF6
:1008D00097300010E78020EF97000010E780806CD1
:1008E0002A87AE874A86A6865285D6853A8ABE8AE8
:1008F00097300010E78020ED97000010E780806AB5
:100900002A87AE873A854A86A686BE85972000103C
:10091000E780A02A97400010E78040898246AA8796
:1009200066865285D68533CA070897200010E7806F
:10093000C02897400010E7806087A2466286B34ACD
:100940000508DA855E8597200010E780002797402C
:100950000010E780A085C2464E86334B0508EA8525
:100960006E8597200010E780402597400010E780B3
:10097000E0834167D2865686DA85334505087D17C0
:10098000EF80A06B0504B147E317F4EA37190110B3
:1009900037940410B78A8080370AFFFEB79488889E
:1009A000130949C213044402938A1A08130AFAEF7E
:1009B000938494888149834619008347090003473B
:1009C0002900034539009386F6FD1307F7FD938749
:1009D000F7FD13D646409355274092068A07D18FDC
:1009E000D58D1A071305F5FDB3E6B700598D13979A
:1009F00046601375F50F110901E7130715F079C368
:100A000093F7F70F13965700B307F6403336F60007
:100A10003386C7403338F6004296B338560393F511
:100A2000F50F93966500B385B6401317550033054F
:100A3000A740B3B6B600B386D5403337A70033B866
:100A4000B6003307E540C29693D878003338A70044
:100A500042971393880033B85603B3081341330603
:100A60001641918F33365703135878009318880036
:100A700033880841B3860641B386D5401D82B3B59D
:100A80009902131886003306C840118F3307E540DA
:100A9000B38747039D81139545000D8D120533855E
:100AA000A94033450508B3C50508B3864603139628
:100AB000B700330747039606558E598E334606080E
:100AC000EF8080478509E31889EEEF800040B78703
:100AD0000020938787B11307600E98C31307800720
:100AE000D8C3938B8700B7C7041083ACC72803AC67
:100AF0008728B7C7041083A9472903A90729B7C6C0
:100B00000410B7C7041037C7041003A4072783A431
:100B1000472703A8C62983A78629032D072A832DE3
:100B2000472A66C64ECA3EC042C262C4DE8C4AC86C
:100B300085494E8597300010E78020730246924623
:100B40008509A10C97300010E780E0C72246B24625
:100B500097300010E78020C74246D2469720001009
:100B6000E780805D2A8AAE8A97000010E780003512
:100B70006A86EE8697300010E780E0C49700001088
:100B8000E78040422A8BAE8B5285D68597000010B5
:100B9000E780003A6A86EE8697300010E780A0C2B0
:100BA00097000010E78000402286A6862A8AAE8A37
:100BB0005A85DE8597200010E780200097300010CE
:100BC000E780C05E23ACACFE2286A6865285D68521
:100BD00097200010E78060FE97300010E780005DEE
:100BE00023AEACFE9307C003E395F9F4B78700206A
:100BF000938787931307200D98C313078007D8C3E3
:100C000037C70410032D872A832DC72A938C8700AA
:100C100085494E8597300010E78020650246924650
:100C20008509A10C97300010E780E0B92246B24652
:100C300097300010E78020B94246D2469720001036
:100C4000E780804F2A8AAE8A97000010E78000274D
:100C50006A86EE8697300010E780E0B697000010B5
:100C6000E78040342A8BAE8B5285D68597000010E2
:100C7000E780002C6A86EE8697300010E780A0B4EB
:100C800097000010E78000322286A6862A8AAE8A64
:100C90005A85DE8597200010E78020F297300010FB
:100CA000E780C05023ACACFE2286A6865285D6854E
:100CB00097200010E78060F097300010E780004F29
:100CC00023AEACFE9307C003E395F9F4B777002099
:100CD000938787631307E00B98C3B7C60410130705
:100CE0008007D8C303A8462B37C70410938C87000E
:100CF00083A7062B032D872B832DC72B3EC042C213
:100D000085494E8597300010E7802056024692466E
:100D10008509A10C97300010E780E0AA2246B24670
:100D200097300010E78020AA4246D2469720001054
:100D3000E78080402A8AAE8A97000010E78000187A
:100D40006A86EE8697300010E780E0A797000010D3
:100D5000E78040252A8BAE8B5285D6859700001000
:100D6000E780001D6A86EE8697300010E780A0A518
:100D700097000010E78000232286A6862A8AAE8A82
:100D80005A85DE8597200010E78020E39730001019
:100D9000E780C04123ACACFE2286A6865285D6856C
:100DA00097200010E78060E197300010E780004056
:100DB00023AEACFE93070006E395F9F42654B65033
:100DC00096540659F649664AD64A464BB64B264CC7
:100DD000964C064DF25D03A5418465616F705037F6
:100DE000B777002083A747D93797041037960410A8
:100DF000C847B7150110130787021306060393852A
:100E000005C19306A004EFA0805D7D55EF30702FE3
:100E10001D7150100C10680886CEA2CCA6CACAC894
:100E2000CEC63926EF80200F9305B1012810EFF0D0
:100E30007F898347B1012A846396071E8547630F24
:100E4000F41C1307007E8947BA896307F41CF24635
:100E500037990410130649080818C1453AC6EF30FF
:100E600070153247C1643774002010189387F4FF5F
:100E7000930644D89305400B1305E004EF905018F7
:100E80009387F4FF379604103E87930644D81306E1
:100E900086089305400B13050007EF9070168256E5
:100EA000130649080818C145EF30D0104E87930645
:100EB00044D89387F4FF10189305400B13051008CE
:100EC000EF90101472468258B7B6AA2A9386B6AA33
:100ED000B317D6023794888892081304948813575E
:100EE000F64113DEF8413773002013038363930543
:100EF00080072E85339888028587998FB3A7F720BE
:100F00008A071D8E1307007E954746981358684040
:100F10003308C8413366062113068604B316D60289
:100F20001358F6419186B3860641B3A6D62096069D
:100F3000B306D64033E666208356460003560600C5
:100F4000EF80802C0256B788002093888893130680
:100F5000D602B31686021358F641930580072E85F4
:100F60008D471307007EB2969586B3860641139887
:100F70004600B306D8408A06B306D64033E61621AB
:100F80008356460003560600EF80002892563788A5
:100F90000020130888B19386D6023394860213D6B4
:100FA000F64193058007138704802E853694935766
:100FB0005440918F13964700B307F6408A07B387D2
:100FC000F640B3E7072183D6470003D60700EF803A
:100FD000C0065D2037960410AA861306C6080818B6
:100FE000C145EF30207D9387F4FFB77600201018BD
:100FF0003E879386C6D79305D00C1305C006EF90A5
:10100000300003A54184EF70B014F6406644D64426
:101010004649B64925618280FD4915BD7D47930942
:10102000007E35B5225515498356C1029304B00E92
:101030003346950A3365250B4A966D154167B6858B
:10104000334606083345050813070780EF70F07E26
:10105000B255035681024167B3C6950AB3E5250B25
:10106000CA96ED15B3C60608B3C505083285130741
:101070000780EF70907CD9B303A78184B767002005
:101080009387C7383345E7203325E5203345F520DE
:10109000828083A7018503A64185B3E6C70099E650
:1010A00023A8A18423AAB18401458280B306F54018
:1010B000918D3335D5006386A506B7460F0093861C
:1010C0000624BE9683A5C185B3B7F600B29723AABE
:1010D000F18423A8D184938715001307B0036346D6
:1010E000F70023AEF18405458280B776002083A700
:1010F00046D623AE018485076352F70223A206D6A3
:10110000B776002083A706D60545850713A7870174
:101110003307E040F98F23A0F6D6828023A2F6D6CB
:10112000D9B7B7450F009385F523E3E8D5F8ADBFF0
:101130003777002083A68185032707D6B7B7AA2A69
:101140009387B7AA3697B317F7029356F741898763
:10115000958FB3A7F7208E07B307F74063D3070037
:10116000E10737770020832647D603A7C1851CC136
:1011700094C118C28280B347A520376700201307A7
:10118000C738B3A7A720B3C7E720985723A4A184E3
:1011900023ACE184828037770020832607D6B7B757
:1011A000AA2A9387B7AA3695B317F5029356F54145
:1011B0008987958FB3A7F7208E07B307F54063D3D0
:1011C0000700E1072320F7D68280B776002003A727
:1011D00046D6B7978888938797883A95B317F502CC
:1011E0001357F541AA979587998F13974700B3072F
:1011F000F7408A07B307F54063D407009387C70316
:1012000023A2F6D68280B78703409107B347F52023
:1012100098438566BE96134707041377070C3786F5
:10122000024098C23365C5200D67BA974CC11307B9
:10123000001098C38280B787034091073345F5209B
:101240001C418E050A064D8E3D8E8567318A3E957E
:1012500010C18280B787034091073345F52099C5B7
:1012600089673E95930700041CC182808D673E9577
:10127000930700041CC18280B316A028370700D052
:10128000B787034034C3910714D3B347F52098437D
:101290008566BE96134707041377070C378602400E
:1012A00098C23365C52015478D6658C1B697130798
:1012B000001098C3828039713793041022CC2A849D
:1012C0001305030906CE2ED232D436D63AD83EDAEA
:1012D00042DC46DEEF30F01C01CC4C1022852EC6DD
:1012E000EF308054379504101305050AEF30701B5A
:1012F0000545EF304058F3760430B77700209387E8
:101300003724139737003317E028F19B2FA8E744C1
:101310003378E800E31C08FE0F00300393D7350054
:101320003E950347050093F77500B317F02833780F
:10133000F700631108025D8F2300E5000F00300302
:10134000B777002093878723A3850700A18A73A01E
:10135000063082804111328506C6B13F737E04306B
:10136000B777002093873724139837003318002964
:10137000F19BAFA80745B3F80801E39C08FE0F00F6
:10138000300363F6C60015A8050663E8C602935746
:101390003600AA9783C8070013787600331800290F
:1013A00033F30801E31203FEB3E808019356F60194
:1013B000328523801701F58D11A07D550F00300374
:1013C000B777002093878723A3850700137E8E00BD
:1013D00073200E3091E1828041113A8506C6E13DCD
:1013E00037770020034587D6DD469307150093F72E
:1013F000F70F63F3F600C1472304F7D68280AA856E
:10140000379704101307470A13850186FD46614686
:10141000B1B7B77600209386862381471306000272
:101420000F0030033387F600230007008507E39998
:10143000C7FE828081463D481D459305400393F7D2
:1014400036008A073317F80013D626004207518F5B
:10145000733037BEB317F500C207D18F73A037BE04
:101460008506E39EB6FC7360043082809357550076
:1014700086073315A028C176E98E13871700420529
:10148000558F5D8D91C9733025BE733027BE732093
:1014900005BE732007BE8280733005BE733007BE61
:1014A000828093574500F3A707BEC1833D8933D59A
:1014B000A74882809377F500B317F0281181C207FF
:1014C000C98F73A027BE8280F3275030F19B33452C
:1014D000F5200325050DB76700209387C7431D8DB1
:1014E000133505038280011106CE73770430B77778
:1014F00000209387172493963700B316D028F19BCA
:101500002FA6D744758E6DFE0F003003F3275030A1
:1015100013054503F19BB347F52094436380D5023F
:10152000B767002093874766638AF6002EC62AC4F1
:101530003AC2EF10207EB24522451247F3275030C1
:10154000F19B3345F5200CC10F0030030F00300331
:10155000B777002093878723A3840700218B73200C
:101560000730F24005618280797106D673780430C5
:10157000B777002093871724139737003317E02895
:10158000F19BAFA6E744F98EEDFE0F003003038315
:1015900041866343032AB7680020B32763209388FA
:1015A000C84333CE17218346AE0093922700931E83
:1015B00013002382D186F327503013054503F19B96
:1015C000B347F52003AF07009307F00233071F412D
:1015D00063E9E71C8347BF00FA8F6360F610A30539
:1015E000CE00376600201306C6463306C6412322C6
:1015F000BE00B706100093159600B7FE0F00F58DDC
:10160000B37ED60193878200B386F800B3E7D50195
:10161000B7B5AAAA9385B5AA09873307B7021353AA
:1016200046017E031376E67FB306DF40B3E767002B
:1016300052065D8E05639397160093D836009395F6
:1016400076001366F62E93F84800B3F76700931EF2
:10165000B0282320CE002305EE00B3E7170133F7AF
:10166000D5019395160003264F00D98F93F5056099
:1016700013D72600CD8F1377071093981600D98FB4
:1016800093D5160093F8080813171600B3E717014F
:1016900093F505048A0693F6860333776700CD8FAA
:1016A0003297D58FE9768506137707805206131790
:1016B000B748D58F1366760E2314FE001367770B99
:1016C0001316F6282320EF002322CF00728F2DAAB5
:1016D00083C6B700637FD616BE8F0387AF00B327DC
:1016E000E720B3C71721E35507FE939315008567DD
:1016F000B3F3F300AE9393F30380D2059393B3480F
:1017000093E5750EB16293E3730B9395F52893827D
:1017100022E493868F00B306DE409A9EB3CE1E214C
:10172000939716008568B3F7170193D8360093F89E
:10173000480023856F00B3E717011313B02893986F
:101740007600B3F8680013931600B3E7170113731C
:10175000036093D82600B3E7670093F8081013934B
:101760001600B3E717011373030893D81600B3E705
:10177000670093F808048A0693F68603B3E7170117
:10178000D58FE9768506D58F2394FF0023A07E00B0
:1017900023A2BE0023945E002385EE00A385CE0025
:1017A000A5A0B7670020938747666310FF1AB76745
:1017B00000209387C746B387C74113979700B706A2
:1017C000100037FF0F0033FFE701758F93D64701F5
:1017D0003367E701FE0693F7E77F558FD207D98F6E
:1017E000769371773343132193E7F72E130727E49A
:1017F000FD562322B300A305C300728F2320F300FC
:101800002314E3002305D300F3275030F19B334525
:10181000F5202320E5010F0030030F003003B777D8
:10182000002093878723A384070013788800732000
:101830000830B2504561828032C82EC62AC442C2E6
:10184000EF10404D038341864246B245224512487F
:1018500099B383D38F0093878200C6979392330006
:1018600093868F0093F20202B387F640969793D245
:10187000130022D413F40204A297139413001374D8
:101880000408A297139423004AD093F202302289CD
:10189000969713D4230093D27300937309409E97B5
:1018A00093F202019373E400B3E272009313B02841
:1018B0009697B3727400B38757401394770026D27B
:1018C00093921700B3747400056493D33700B3F296
:1018D000820093F34300B3E2720093931700B3E2E4
:1018E000920093F3036093D42700B3E2720093F461
:1018F000041093931700B3E2920093F30308B3E24A
:1019000072009393150093D41700B3F38300AE9342
:1019100013F404048A07B3E2820093F7870369741F
:1019200093F30380D205B3E7F2009393B348930295
:10193000140093E5750E225492540259B3E25700F5
:1019400093E3730B9395F528F9B332CE2ECC76CA78
:101950002AC842C672C41AC2EF10C03BB767002043
:101960007246E245D24E42453248224E1243938897
:10197000C74335BD797106D6737E0430B777002032
:1019800093871724139737003317E028F19BAFA6EE
:10199000E744F98EEDFE0F003003F3275030F19B42
:1019A000930F4503B3C7FF2003A807003767002044
:1019B000930E47666300D80B630EB808376F00209C
:1019C000130FCF433307E8419307F00263E5E708BD
:1019D00022D493574500F3A707BE9372F50033173F
:1019E000A02893585500C183931307018608B312AA
:1019F0005028B3F2F200B3E3130173B003BEC17712
:101A00007D8F8508B3E8E80073B008BE0F0030038F
:101A1000F32750BE1397070101446350071CC28788
:101A200001439843D4431376870013770780131735
:101A3000B74813D5464119E2B306A7006385D5041C
:101A40000387A7003E83B327E720634C0716B3C77D
:101A5000E721C1BF7688F3275030F19BB3C7FF2041
:101A600023A007010F0030030F003003B7770020D9
:101A700093878723A384070093778E0073A0073092
:101A8000B250456182800386A700634E0618332753
:101A9000C6203347E7211443584393F5860099E560
:101AA00093F606809396B64851873697638307036B
:101AB000931617008565ED8EBA9693F60680939679
:101AC000B648520793E6760B1367770E94C3131745
:101AD000F728B326C62033C5E6210343B500939506
:101AE0002600D8C3A38567008306A50031671307C6
:101AF00027E42385D70063CA060A83568500A1051B
:101B0000FA9513D51600139736001373050413774F
:101B10000702336767001383870033076740139317
:101B2000160013730308137505301A9713932600D4
:101B30002A971373034013D526009D821A97C18AF2
:101B40001373E500B3E6660036971313B0282E979B
:101B500033756500098F931617008565ED8E9355D3
:101B6000370013157700918933756500CD8E931575
:101B70001700C98E93F5056013552700CD8E137598
:101B8000051093151700C98E93F505081355170016
:101B9000CD8E137505049315270033E7A60093F641
:101BA0008503558FE9768506558F03C54186B32693
:101BB000C6202394E700B3C7E6212382C18623858C
:101BC000A700638C020473B023BE73B028BE73A059
:101BD00003BE73A008BE2254BDBD918393F7F71FC7
:101BE00013844703E30DF5E22ECE7ECC72CA46C8BD
:101BF0001EC616C442C2EF10E011B7670020938ED4
:101C00004766B76700201248A242B243C248524E0C
:101C1000E24FF245138FC74319B573B003BE73B0DB
:101C200008BE22540DBD0DEC6302030A7177130741
:101C300027E4FD562314E3002305D3003387E7414F
:101C4000B7B6AAAA9386B6AA09873307D70203C6EE
:101C500041862385C7002382E186E38002FCA5B785
:101C6000B76600201387870093868647998E13975F
:101C700016000566718F13D63600118A518F9315A1
:101C8000B028139676006D8E93951600518F93F5BC
:101C9000056013D626004D8F137606109395160017
:101CA000518F93F5050813D616004D8F1376060451
:101CB0008A06518F93F68603558F13671700131703
:101CC000D7282394E700E38A02F4F5BD7688BDB7F0
:101CD000F32750BE1397070181456349070091839D
:101CE00093F7F71F93874703939527007376043084
:101CF000B777002093871724139737003317E0280E
:101D0000F19BAFA6E744F98EEDFE0F003003376775
:101D100000201307C743B307E540B7B6AAAA9386C6
:101D2000B6AA8987B387D70293974760F3265030C6
:101D3000F19AAE9694426384A6048306A700638A50
:101D4000F604830667016384F6068306270263822E
:101D5000F6068306E7026380F60683C64186238281
:101D6000F1862305D5000F003003B7770020938755
:101D70008723A3840700218A73200630828073277B
:101D80005030B7660020719B2E979386466614C329
:101D9000E9B78146B3A6D620B3C6E62071777D5851
:101DA000130727E4238506012394E6007DB78546C3
:101DB000D5B78946C5B78D46F1BFAA8537970410B8
:101DC00041111307070C138551869546014606C637
:101DD000EFF0CFD863460500930730033385A74063
:101DE000B24041018280B777002093878723AE9766
:101DF0001CC18280011122CC26CA37740020B7741E
:101E0000002006CE130484D9938404DA6377940205
:101E10004AC84EC61309F00FFD591C4085C7EFF0A4
:101E20002FDCAA852285C137231224010F0030033D
:101E30002104E36494FE4249B249F2406244D24430
:101E400005618280EFF0CFD9AA852285693F230200
:101E500034010F0030032104E36194FCE9BF411118
:101E600006C622C42A84EFF0AFD7AA852285A53FF3
:101E7000FD572302F4000F003003B2402244410119
:101E80008280411122C42A84054506C6EFF02FD76F
:101E9000B777002093878723AA971CC00F003003D1
:101EA000B240224441018280B77700209387872384
:101EB000AE971CC10F003003828083A781867377A1
:101EC0000430139637003316C028F19BAFA5C744E2
:101ED000F18DEDFD0F00300383A781860F003003E5
:101EE000238007009377870073A00730332010000A
:101EF000014581458280397106DE22DC26DA4AD826
:101F00004ED652D456D25AD05ECE62CC66CA6AC879
:101F1000F32750BE139707016349073213D94700CF
:101F20009377C91F13793900B3192029B70B0B40D8
:101F30006399073437870020B3C727211307871613
:101F4000B3C7E72083AA07008D6793874704DE970E
:101F5000372A001023A03701130A6AEF7D54FD547D
:101F6000039B8A0023AE3B0363580B0883D74A00C8
:101F70009397576063DE071483C76A006397071E51
:101F8000039B8A0063470B0403A74A01332B6B2191
:101F9000FD57336BEB20032C8B00032BCB0063032B
:101FA000FC2AB346792103A78B029C4A3306EC40F6
:101FB000998F6360F60483A70B02B3D7274995CBAB
:101FC0005E85EF00B00B63C66501E31BBBF8E379E8
:101FD00085F933201000F2506254D2544259B2595C
:101FE000225A925A025BF24B624CD24C424D216112
:101FF000828023A88601E9B783A74A01332C6B218D
:102000005E85336CFC20832CCC00032D8C00EF000C
:10201000F006E3CD95F56383BC1C63C50C1C8327D8
:102020000C0183254C016385472503978A000355DE
:102030002C004207598D82972E87AA87B3E6E700C6
:102040006382061A63590720B306FD40333DDD0065
:10205000B387EC40B387A74103170C002324DC00AF
:102060002326FC00E34407F003A84A013325E720B8
:1020700013161700336505214C4583288500E3C7F7
:10208000B7EE6394F500E3E316EF2394EA001385BB
:102090008A0031A0832886004C46131617003A9612
:1020A00063CEB7006383F51E336506210317050071
:1020B0003326E72033660621E35E07FC2310EC009D
:1020C0002310650183D74A0093975760E3C607EA58
:1020D00083A70A017377043093963700B316D0288C
:1020E000F19B2FA6D744758E6DFE0F00300383D869
:1020F0004A00FD572392FA009398586083A70A017B
:102100000F003003238007009377870073A0073008
:10211000E3C408E603A54A0103978A0033A81821FF
:102120003368A82093858A0063450702032388004B
:102130000326C80001A8638BC60E03970700BE855F
:1021400063490700B327E720B3E7A720D447E35448
:10215000D6FE23901501831808002310E800E3DD64
:1021600008FA83C76A00E38D07E023830A00039B14
:102170008A00FD555A87E30EBBE403A54A01B32745
:10218000E7203A86B3E7A72083D627000397070006
:1021900013888A009396566063C206023E88E30362
:1021A000B7DEB327E720B3E7A72083D627003A8618
:1021B0000397070093965660E3D206FE80C7C4C714
:1021C000E30FCBFC2310E80083D68A00328B2390E8
:1021D000D7002394CA00E316B7FC6DB3E368A5D912
:1021E000E3DF0CE203570C0083A70A012394EA0003
:1021F0007377043093963700B316D028F19B2FA63F
:10220000D744758E6DFE0F00300383D62A0083A756
:102210000A012310DC0023916A010F0030032380A0
:1022200007009377870073A0073089B39447E3765C
:10223000D3F023901501831808002310E800E3DD94
:1022400008EC05B7E31F8BD5A5BB8549CE870149AF
:10225000B78B0B40C5B15E853AC63EC40525A24783
:102260003247B306F500B3B7A600BA95AE97EDB303
:102270009C492E852EC4829735D5A2459C41D841D4
:1022800075BB8547B78B0B4075B1E3FF16E13DB5D4
:10229000B767002093878748984B09C713858186C5
:1022A000A94591B641118D4537050B4006C622C49C
:1022B000452B376400209307844837080B4023A63A
:1022C0000701EFF0EF9193078448AA850D4523801D
:1022D000A700370700D003230700B7760020D84BAC
:1022E0009386862337061100AE967D16BD4894CBA3
:1022F000A380670090C723911701FD5509439148BA
:10230000154699462392B70023146704231C170728
:102310002318C7082314D70A9D42A146A54F294F69
:10232000AD4E314E3543B9480546231CD70C23101A
:10233000A7062310570C2318F70F2314E7112310B7
:10234000D713231CC713231867142314171723103C
:10235000B7002318C702231C070037080B40B72516
:1023600000102320D80237870020938565EF232AA9
:10237000F716EFF04F9785450D45EFF02F8F22446C
:10238000B240B7270B40A146B4C313858186A94547
:10239000410191BC37650020130585488280797121
:1023A00006D62A882E8395E73ACE36CC32CA2EC876
:1023B0002AC6E9294243524632483305A340333501
:1023C000A300B305B640898DE2467247014563C656
:1023D000050C83270801F375043013953700331576
:1023E000A028F19BAFA8A744B3F8A800E39C08FE7F
:1023F0000F0030038318280003250801A18963C159
:10240000080A032E4801B3A71821B3E7C72103DE4A
:1024100007002311C8010F0030032300050073A03B
:10242000053083D52700054E13950801F295C605A2
:10243000C581B3F5C50BD8CB94CB23A46700D0C717
:102440002391B7004D8D03270801F376043013164E
:1024500037003316C028719BAF25C744F18DEDFDC1
:102460000F00300303564800032708012390C700DC
:10247000231218010F0030032300070093F7860092
:1024800073A00730034708008327C8008966938636
:1024900046043317E028B69798C3B250456182804E
:1024A0000F0030032300050073A00530B2507D55A6
:1024B00045618280B283AA8710492E83F375043068
:1024C000131536003315A028719A2F28A6443378A7
:1024D000A800E31C08FE0F0030038398270013F6C2
:1024E00085008C4B63CE0808C84B33A8182133688D
:1024F000A820035508002391A7000F003003238074
:102500000500732006300356280085451395080101
:102510002E96460645823376B60A232AE8002328FB
:10252000D80023246800232678002311C800518D89
:10253000984BF3760430131637003316C028719B7E
:10254000AF25C744F18DEDFD0F00300303D64700E2
:10255000984B2310C800239217010F00300323006B
:10256000070013F786007320073003C70700DC4716
:102570008966938646043317E028B69798C382800D
:102580000F00300323800500732006307D558280C4
:102590000357A50093D7054163D8E7045449B3A76F
:1025A000F7201849B3E7D720F37604301316370025
:1025B0003316C028719B2F28C7443378C800E31C0A
:1025C00008FE0F00300303D62700B3C5050813F734
:1025D0008600B3460608630BB6001C490F003003A3
:1025E0002380070073200730014582806176D18EF9
:1025F0002391D70085472303F50014490F003003CA
:10260000238006007320073083460500584509667D
:1026100013064604B316D02832973E8514C3828031
:10262000034515008280011122CC26CA4EC6AA8419
:1026300006CE4AC8A12C1307803E3384E402B707B4
:102640000080FD17B3B4E402B309A40033B48900D9
:10265000AE94269463F487003E84FD599384A9FFC9
:1026600033B934019307F4FF3E99636A2403630688
:102670008902292C3385A440B305B940B3B7A4001F
:102680009D8D634AB002DDC5A2856244F240D2440A
:1026900042494E85B2490561B5A4E3FC99FCFD228F
:1026A000814401493385A440B305B940B3B7A400C0
:1026B0009D8DE35AB0FCD92A3385A44033B5A400DC
:1026C000B305B940898D63C10502B726001037658F
:1026D00000209386A6EB130585480147A6854A8608
:1026E000D13BFD57E302F5FAB7060B40DC5263E736
:1026F00027019856E31AF9F8E37897F883A78186BB
:102700007377043093953700B315B028F19B2FA54C
:10271000B7446D8D6DFD0F00300383A781860F00D8
:102720003003238007009377870073A0073033209E
:1027300000006DBF31D941B7F32750BE1397070191
:10274000635A0706B7670020011193878748D84767
:1027500022CC26CA06CE83C70700AA843A852E84D7
:102760003EC63AC4212A2247B247B305B440B3C794
:10277000E7209C4B3387A440B3B6E400958D898F46
:1027800063CD0504A9C933200000B7060B40D85219
:102790008147636B87009C56018F3337E000B3B7E6
:1027A000970093B71700D98FF2406244D2443E8518
:1027B00005618280B7060B40D8528147636BB70032
:1027C0009C560D8F3337E000B3B7A70093B71700BF
:1027D000D98F3E858280E378F7FA4D283385A4406F
:1027E00033B5A400B305B440898D63C70504B7268B
:1027F0000010B76700209386A6EB0147A6852286C6
:102800001385874845396359A00237070B405C534D
:1028100063EB870218576394870063669702B76774
:102820000020AA8513858748A533B7060B40D852E8
:102830008147E36B87F685B737070B405C5363F737
:102840008700814795B733200000D1BF1857818F8B
:10285000B337F0003337970013371700D98FA9B774
:10286000B787F4BFAA9793B717001385C186379629
:1028700004103E951306C60D6FE0FFA74C51AA87C2
:1028800088572E87CC53E31DB7FE8280B7070B40D5
:10289000CC5388572E87CC53E39DE5FE82803707C3
:1028A0000B405C5303288702BE865C53E39CD7FE33
:1028B00033060501BE953335A6002E95636CF502EF
:1028C0006388A702B7070B40DC5363F7A7003707FD
:1028D0000B405C53E3EFA7FE639BA70037070B4059
:1028E00021A054536395F6001457E3ECC6FE828092
:1028F000E37A06FDB7070B40DC537D552A86E39843
:10290000A7FCE9BF37070B405C53E3EFB7FE639BBF
:10291000F500B7070B4021A0D8536395E500985701
:10292000E36CA7FE8280011122CC2A84194526CAB5
:1029300006CEAE84F52A51CDB7870740370700048D
:10294000630DF40EB727024098C3B7060240B737AD
:10295000024098C3A1069C42B377F740EDFFB787CA
:10296000F8BFA2971387018793B71700B3A7E72093
:102970001945130700102390E7005D2A93173500CF
:10298000B3D79702850713D7770029EB9304000488
:10299000854654D018D4185893771700ADE385674F
:1029A0009387C702A297545423A0070018D819454B
:1029B0003EC4BD2A0A05335595025854A247130652
:1029C0001030134707071377E70798C38D4610D8D1
:1029D00034C4F2406244D244056182804166791673
:1029E000C166637FE604FD16014754D018D4185819
:1029F000B7044000938404FC93771700CDD38D6710
:102A000093870703A2979306103094C35C50145425
:102A100019459A07B6973AC63EC4192AB7862B8F2E
:102A2000938656B73335D502A2478145AA072D8133
:102A300033D5A702AD3532479DB73707000819B720
:102A400085839316670093F7F703B384F600BA867D
:102A50003E8781B7B70701403327A5203347F720CA
:102A600003284700C1676373F8005CC39387F5FFD1
:102A70009308C5FF81E793B72800B5E737880020A2
:102A8000130888CFB347052103A307008D67BA97C2
:102A9000131EB02823A0C7010A05631903020323EC
:102AA000070016068567334666001376060EBA974A
:102AB00090C30546637016078967BA971316B02846
:102AC00090C34295C16714C15CC3828083274801CB
:102AD000B3D767028507B3A7F72001009387E7FF05
:102AE000E3DE07FE6DBF8D67BA970D4823A007018F
:102AF0001C47858BF5DF03280700160685673346DC
:102B000006011376060EBA97378800200A0590C38F
:102B1000130888CF832807003316B028B3C81501DF
:102B200093F8380023A017011C47F18FF5DF69B730
:102B3000B7870020938787CF3345F52008418280EF
:102B4000B727B700938707B0B3D7B702832805002C
:102B5000C206320733E8E6003356F60263C40804BF
:102B6000B787054011676300F506B727024098C391
:102B7000B7060240B737024098C3A1069C42B3771C
:102B8000F740EDFF0D670CC1110710C52A97930799
:102B900010021CC31C41E3DF07FE23260501A147E9
:102BA0001CC382801C4193F7F703E39BB7FA1C45D3
:102BB000D207D183E396C7FA5C4537770700F98FD0
:102BC000E39007FB828021674DB7B7B70D40370709
:102BD000004098C329C5B7C607B0B747F84F378735
:102BE0000D409386360D9387D7F254CFA98F1CD30F
:102BF0004CD308D7B7B60D40B707004037070002DF
:102C00009CC24D17B7A7014098C7B70700079CC2E1
:102C100001EEB7A70D403707008098C38280B787C1
:102C20000D4023AE0700F9B73346C6203346C62011
:102C30003346C6200E06B7070001637EF600B28752
:102C400023AAF186B7870D40D0C337070040B7A746
:102C50000D4098C38280FD173E86DDB7B7871040D0
:102C60003325A5203345F5204CC185471CC1828002
:102C7000A1679387A7DF83D7070085458287411126
:102C800022C426C206C6AA842E846345050005C652
:102C900013E40503A1679387A7DF83D707001165B6
:102CA0008545130525258297AA87A6862286A945EC
:102CB00013052010829713E40502E9BFB7170E40F1
:102CC0009387878298437DDF0F0030038280B71798
:102CD0000E4037170E409387C7801307C7820F0037
:102CE000300323A007009107E39BE7FE82808567FE
:102CF000938707AA378704401CC39307A0115CC7BA
:102D0000B7B6FA00B7A7044094C35C43E3DF07FEFD
:102D1000828082803795041041111305051006C684
:102D2000EFE06FD9411122C426C237140110B71445
:102D3000011006C6130404B7938484BA6377940021
:102D40001C4011048297E36D94FEB24022449244E9
:102D500041018280B747EFEF9387F7B7B72602406C
:102D60003707F4039CC25917B7370240B706024031
:102D700098C3A1069C42B377F740EDFF8280B70766
:102D80001150F847A1676303F7008280B7271150FD
:102D900037070400F8C78280370700207D17B73750
:102DA0000240B706024098C3A1069C42B377F740A1
:102DB000EDFF8280156541111305352506C64D3D91
:102DC000B240AA871145410182871565411113055B
:102DD000352506C6713DB240AA8705454101828767
:102DE0006FE02FE3411122C406C626C24AC0370451
:102DF000014023220408E53DB73701400547D8DFED
:102E00007C40E39FE7FE0D47B737014098DB054460
:102E1000370701401C5FE39F87FE37366859A2855C
:102E2000130606F00947954637050540113B15473F
:102E300037968647BA86A285130606C037850540B1
:102E40000133B726B700938606B001468945114580
:102E50001131B7D6F008A2859386061801461545AC
:102E6000D53EB776DC02938606C0014681452145F2
:102E7000D536B776DC02938606C0014681452545E6
:102E8000D13EB7D6F008938606180146814519450C
:102E9000D136B7D6F00893860618014681451D4500
:102EA000553E11457131B7E71B43938737E8B3347B
:102EB000F50201441949C9802285A6850504793B9C
:102EC000E31C24FFB2402244924402494101828023
:102ED000411122C406C62A84EF70F02909CD3707B4
:102EE0000820B3078500130707006366F700B240A8
:102EF000224441018280379504101305C510EFE08C
:102F00008FBB411122C426C206C62A84AE84EF704C
:102F1000701B05C1B305940237070820130707008B
:102F2000B307B5006367F700B24022449244410101
:102F30008280379504101305C510EFE0CFB7637595
:102F4000D600B2952380A5008280828079714AD014
:102F50004ECE52CC56CA5AC862C466C26AC0C68C2B
:102F600006D622D426D293F838002A892E8AB2892E
:102F7000B68A3A8B3E8D428C63850806D1C75EC601
:102F8000B2843304AB01B38B84000345F4FF338672
:102F90008B40D686D2857D140299E3188BFEB24B06
:102FA000EA9493FC2C0063800C02B389344163FCE7
:102FB00089012686D686D2851305000285098504F7
:102FC0000299E3E889FFB25022540259F249624A59
:102FD000D24A424B224C924C024D26859254456176
:102FE000828063F50703B304F840B29432842286EA
:102FF000D6860504D285130500020299E31994FED2
:10300000E3030DFC5EC6B5BFB28461BFB284CDBF21
:10301000A24E3E83C28F93F72E00024E1248E9E77C
:10302000930703FEB337F000333FC30133FFE701DB
:1030300093F21E00630F080E638D020E63960F005D
:1030400093F3CE00638303007D18630F0F06130F05
:1030500000030503B3076700A38FE7FF930703FE91
:10306000B337F0006373C301EDF7639F020493F776
:103070000E01B9C393F70E4089E763096E0C63072D
:10308000030DC1476389F80EF9186394080E93077E
:1030900003FEE5C3930713003A9393082006230029
:1030A000130193080002638D170113831700BA9769
:1030B000930800032380170193070002631DF304A4
:1030C00093070002F68859B56370030391CF130F7D
:1030D000000311A091CB0503B3076700A38FE7FF9F
:1030E000930703FEE36803FF93F70E01F1D793F70D
:1030F0000E40C1FBE31303F8C1476387F80E89470D
:103100006392F80C93072006930800032300F7004E
:10311000A3001701094363910F0293F74E00BDCB43
:10312000B3086700130EB002930713002380C80191
:1031300051BFE31E0FF04DBFB3086700130ED0025E
:103140002380C80193071300F68809B59307F3FF9E
:10315000D1C3138E08FF631F0E069308E3FF13FE0F
:103160000E02BA98631A0E08130E80072380C80156
:103170003DBF9A873DB793F70E028DCB93070002B0
:10318000E300F3F4930713003A93930880052300B8
:10319000130101BF93F88E009A87E38508F23A93F2
:1031A0009308000285072300130129BF930700023B
:1031B000E308F3F0930713003A9393088007230082
:1031C0001301C5B5930700032300F7000543E38609
:1031D0000FF49DB7414E6386C803094EE399C8EDCD
:1031E0009A883E83C6874DBD93D75E48B307F040AB
:1031F000819B9387870709BF130E80052380C80131
:103200007DB593F80E02638608009A883E83C687D0
:10321000A5BF9A883E83C68745B711E182806F10AB
:10322000101E1971CAD8D2D4D6D2DECE2A892E8ADF
:10323000B28BB68A3A85BE853A86BE86A2DCA6DA0D
:10324000CED6DAD0E2CC86DE0A4BBA843E84428CFB
:10325000C68997100010E78020F2631C054AB7C7A3
:10326000041003A6072D83A6472D2685A285970067
:103270000010E780E04963410524B7C7041003A6A6
:10328000872D83A6C72D2685A28597000010E7808D
:10329000C03C6346A018B7C7041003A6072C83A63A
:1032A000472C2685A28597000010E780003B6343EA
:1032B000A014B7C7041003A6072E83A6472E2685A1
:1032C000A28597000010E780A0446345051226857B
:1032D000A28501468146EEC6E6CAEAC897000010FC
:1032E000E7800043814D6349051A93770B40639350
:1032F000071637C704108326872C0327C72C194CC1
:10330000B68C3A8D1810A28526853ACE3ECC971001
:103310000010E780A0E92ACA97100010E780E0F4C7
:103320002A86AE862685A28597100010E780A08B9E
:103330006686EA8697000010E780E0482EC62AC419
:1033400097100010E78080EC2AC897100010E780E3
:10335000C0F62A86AE862245B24597100010E78057
:103360008088B7C7041003A6872E83A6C72E2AC459
:103370002EC697000010E780402EC2485248E24710
:1033800072476353A026850846853ACC3ECA42C898
:1033900046C497100010E78040F26686EA869700E0
:1033A0000010E780802BA2484248D247624763441E
:1033B000050005088148630B0C1637D5CCCC1305E6
:1033C000D5CC13030002254E6380672C33B6A802C8
:1033D0008507B305F7007D1C0D82B346C62086061F
:1033E000B386D84093860603A38FD5FE637E1E273F
:1033F000B288D9BFA28766545AC1F650065B2687A9
:10340000CE88D654B6596288D686664C965A5E8661
:10341000D285F64B265A4A854659096169AE93779B
:103420004B00ADE737970410130747178D476654D5
:10343000F650D654664CDA884E88065BB659D68666
:103440005E86965AF64BD2854A85265A46590961B8
:103450006FF0DFAFA546814718109305000363F1B5
:1034600086358507B306F700A38FB6FE7D1C9386CD
:1034700007FE13067CFF91C26DF6B7C6041003A6C3
:10348000062C83A6462CB28C368DB5BD379704101A
:103490001307C716914761BF2686A286014581455D
:1034A00097000010E780207493770B40AA842E8445
:1034B000854DE38007E479BFE6CA93773B00937CB0
:1034C0002B00DE846386071E379C0410130CCC1778
:1034D0006284330B9400711C0345340033068B4027
:1034E000D686D2857D140299E31884FF9104638106
:1034F0000C02B387744163FD37012686D686D285D8
:103500001305000285040299B3877441E3E737FF8E
:10351000F6506654D64C4659B659265A965A065B0A
:10352000F64B664C2685D6540961828042853ACA9C
:1035300042C43EC897100010E78020D32A86AE868A
:103540002685A28597000010E780E069B7C70410C0
:1035500003A4872E83A4C72E2A8C2286A686AE8C2F
:1035600097000010E780C01A2248C2475247634FB5
:1035700005002286A6866285E68597000010E78012
:10358000C00D2248C24752476350A0123765666695
:1035900013057566930800021DA03316A80285075F
:1035A000B305F7000986158EB346C6208606B30616
:1035B000D84093860603A38FD5FE328825C2935642
:1035C000F841E39C17FD93763B0005466384C610E3
:1035D000DA884E88D6865E86D2854A85EFF01F97B8
:1035E000AA84464DB64D2DB73ECCB7C7041003A6EE
:1035F000872E83A6C72E2245B2453ACE46CA42C878
:1036000097000010E780C0104248D248E247724756
:10361000E34305DA63940808850871BB93763B00A1
:103620000546638BC61493060002E383D7FA13069C
:10363000D00263950D0293764B0099EE93768B0042
:10364000C1DA13060002B386C700B305C100AE9607
:103650002380C6FE8507ADBF1306B002B3862700E0
:103660002380C6028507ADB7638067023E9C930541
:10367000000313060002630CFC008507B306F70085
:10368000A38FB6FEE399C7FE9307000201B70A9C19
:103690009306E00285072300DC02CDBD93F61800F7
:1036A000E38B06D0850801BB05081378E8FFF9BD58
:1036B0009147E3FB37E11384CBFFB30434015E840D
:1036C0002286D6860504D285130500020299E319E5
:1036D00094FEDDBBE38E09EE63990D089376CB0073
:1036E000C9E663F33703938607FE99CE13060003FA
:1036F00011A095DA8507B306F700A38FC6FE93865F
:1037000007FEE3E837FF05B793060002E395D7F21B
:10371000C1B5E6CA93773B00937C2B005E84A5C3BA
:10372000B794041093848417138BD4FF228C03C5A1
:1037300024006286D686D285FD14050C0299E31812
:103740009BFE93043400E3850CDCB3877441E3F102
:1037500037DD2686D686D2851305000285040299B8
:10376000B3877441E3E737FF65B3FD19E3FD37EB3A
:10377000938607FEA5FE45BDE38709EAB1BF8D47E5
:10378000E3F037FB1384DBFF4E94DE842686D68677
:103790008504D285130500020299E39984FE49B796
:1037A000B79604109386065AB366DC209042D44242
:1037B000B28C368D89BE75714AC1DAD8DED6E6D2B2
:1037C0002A892E8BB28CB68B3A85BE853A86BE8608
:1037D00022C526C3CEDED2DCE2D406C7CA49BA84EB
:1037E0003E84428A468C97100010E780E09841E1C1
:1037F000B7C7041003A6872D83A6C72D2685A285EB
:1038000097000010E78060E56343A006B7C7041087
:1038100003A6072D83A6472D2685A28597000010B5
:10382000E78000EF634505042685A28501468146B1
:10383000D6DAEAD0EECE97000010E78060ED26D011
:10384000931AF46963430500A28A9317B028B3F76B
:10385000F90013F709403ECA3AC8B3E7540115EF1F
:10386000C1E7D247194A63860748154881A02687D1
:10387000A2874EC9E2885288DE866686DA854A8546
:103880002A44BA409A440A49F659665A465BB65BDE
:10389000265C965C49616FF0DF98A1EBD247638AA2
:1038A000074402C8C247014863CE47492685A2851E
:1038B0000146814642C897000010E78060E5424813
:1038C0002687D687635405009397FA699399B94878
:1038D00093E90940D65A065DF64D4EC9E288DE8668
:1038E0006686DA854A8569BF194A13D54A01137578
:1038F000F57F130515C097100010E7800097B7C734
:10390000041003A6072F83A6472F97000010E78017
:1039100080EBB7C7041003A6872F83A6C72F97F0A5
:10392000FF0FE78080299397CA003707F03FB183E4
:10393000D98FAE8DBE85B7C7041003A6073083A606
:1039400047302A8D268597000010E780C029B7C729
:10395000041003A6873083A6C73097000010E780C5
:1039600080E62A86AE866A85EE8597F0FF0FE780AF
:10397000C02497100010E78060832AC897100010B9
:10398000E780A08EB7C7041003A6073183A647318E
:103990002ACC2ECE97000010E780E0E2B7C70410D3
:1039A00003A6872E83A6C72E97F0FF0FE780E0209F
:1039B00097000010E780807FB7C7041003A6873107
:1039C00083A6C7312A8DF245624597000010E78033
:1039D00080DF2ACC6A856AD22ECE97100010E7804D
:1039E000C088B7C7041003A6073283A647329700E2
:1039F0000010E78040DD2A86AE866245F2459700DA
:103A00000010E780401E2A86AE862A8DAE8D970074
:103A10000010E78040DB2ACC2ECE6A86EE866A85CF
:103A2000EE8597F0FF0FE7804019B7C7041003A693
:103A3000873283A6C7322AD42ED66245F24597F044
:103A4000FF0FE780606F37C8041003260833832612
:103A5000483397F0FF0FE78040162A86AE8662450E
:103A6000F24597F0FF0FE780206DB7C7041003A65B
:103A7000872983A6C72997F0FF0FE78000142A86BD
:103A8000AE866245F24597F0FF0FE780E06AB7C760
:103A900004102ACC2ECE03A5873383A5C7336A86AC
:103AA000EE8697000010E78000142A86AE866245F5
:103AB000F24597F0FF0FE78040102A86AE86225528
:103AC000B25597F0FF0FE7802067B7C7041003A631
:103AD000073483A6473497F0FF0FE780000E925714
:103AE00001469387F73F9396470197000010E780C0
:103AF00080CD2A862AD2AE862ECC2685D685970002
:103B00000010E780E0C0E24712576353050237C850
:103B10000410BE85C2470326083383264833FD17A9
:103B20003A853EC897F0FF0FE78000612A87AE878D
:103B3000C2469305600C3A86938636063E8513FD91
:103B4000290063E9D512D246914D6392061491463D
:103B5000B68D63F78601631B0D1E9306CCFF36CA34
:103B6000C24699CAD6853A86BE86268597F0FF0F4B
:103B7000E780805C2AD0AE8A2685A28501468146F0
:103B800097000010E780C0B86344051A0257D68733
:103B9000D2489396B94893D95948528836C0668618
:103BA000DE86DA854A85FD19EFF0AFE793F9090261
:103BB0002A86DE8613855904DA85130416000299D5
:103BC000C24737DECCCC938EFDFFB306F040C24730
:103BD0001818130EDECCB3E6D70A13D8F7018147C5
:103BE00033B6C603850793B5A600B308F700138361
:103BF00007FE0D823345C6200605898E938606038F
:103C0000A38FD8FEB28699E1E31C03FC954636C427
:103C100076C202C02286A948DE86DA854A85EFF0A0
:103C20002FBFAA8463080D02330495416374840393
:103C300033868C00DE86DA851305000205040299BE
:103C4000E36884FF3387944105078147637DEC0C6B
:103C50008504BE94BA402A44D65A065DF64D0A49F8
:103C6000F659665A465BB65B265C965C26859A4496
:103C700049618280D24699EA9546B68DE3F486EF93
:103C800063180D0C9306BCFF36CAE9BD954D498EED
:103C9000E30A06C0B7C6041003A6863483A6C6345A
:103CA0002685D6853ACA3ECC97000010E780E09A78
:103CB0005247E24763420502B7C6041003A6862CAA
:103CC00083A6C62C2685D68597000010E78040A4E1
:103CD000E34A05BC5247E247630B0A0293F60940E8
:103CE0009DC67D1A63F58D01630A0D04094D02CA54
:103CF00085BD93F729003E8D95E393374C00FD1762
:103D00001307CCFFF98F3ECA02C8914DB5B5E3F059
:103D10008DFF63050D0202CA094D99B502CA02C89A
:103D2000094D914D91BD9387FCFFE297858F0DB7AB
:103D300002569396FA69B687328799BDB306BC419D
:103D400036CA39BD3308FA407D188DB6094D09BD14
:103D5000094D09BDB74700103571938747D526CB6C
:103D60004AC94EC752C5E6DA06CF22CDEAD823ACFF
:103D7000F1862E8AB68C3A89B289AA846386053C7C
:103D800003C50C00014D630A053C56C3DEDEB79A3D
:103D90000410B79B04105AC1E2DCEED6938A0A40A5
:103DA000938B4B44130B5002414411A86A86CE8674
:103DB000D2858294050D03C50C00630B0510850C9C
:103DC000E31665FF814603C50C0013871C009307AB
:103DD00005FE93F7F70F6366F400B3C757219C43C2
:103DE0008287930705FD93F7F70F25466379F60859
:103DF0009307A002814D630DF51A9307E002014875
:103E00006305F50A930785F993F7F70F4946636F42
:103E1000F602B3C777219C43828793E61600BA8CDB
:103E20005DB793E62600BA8C79BF93E64600BA8C5C
:103E300059BF93E60601BA8C79B793E68600BA8C2F
:103E400059B703C51C0093E60610050793077006D3
:103E5000BA8C63E9A70A93074002E3F9A7F4930732
:103E6000B5FD93F7F70F13072004E361F7F43797D5
:103E7000041013070749B3C7E7209C438287814D8D
:103E8000B3CDBD21B3ADAD2003450700BA8C938DF2
:103E90000DFD930705FD93F7F70F0507E372F6FE97
:103EA0009307E0020148E31FF5F403C51C00A54594
:103EB00093E60640930705FD93F7F70F3A8663F6FE
:103EC000F50C9307A002630DF52ABA8C05071DBFF8
:103ED0009A4A0A4BF65B665CB65D6A8463643D0190
:103EE000138DF9FFCE866A86D28501458294FA4009
:103EF00022856A44DA444A49BA492A4AD65C465D70
:103F00000D618280930575F913F7F50FBD47E3EF57
:103F1000E7E8256613061604B317E028F18F6392CD
:103F2000072429466300C70A1D46E311C7E8032793
:103F3000090011096309072693E81602BA8698005A
:103F4000254531A013B6060163180626918213F6A3
:103F5000F600930576036364C500930506038507A1
:103F60003306F700A30FB6FE138607FE61FEA146D7
:103F700046C442C036C26A86C1480148CE86D28550
:103F80002685EFF0EF882A8D3DB5334808210506D8
:103F90003328A82003450600130808FD930705FDF4
:103FA00093F7F70FE3F3F5FEB28C1307160099BDF4
:103FB000832D0900110963C40D0803C51C00BA8CC8
:103FC000050725BD930749003ED4032C090042860E
:103FD0006303081C03450C006296E287630A0532FE
:103FE0006386C70003C7170085077DFBB38787413A
:103FF0003ED293F706406388071C93F726003ED015
:104000009257B3D7070B3ED282576381073C89474B
:104010003ED0B307A8013ECE6A8929A84A86CE863B
:10402000D285829405093307A941629703450700A9
:10403000630E051AF247E39327FF3E8D4DAA03C591
:104040001C0093E62600BA8CB30DB041050775B38A
:1040500003C51C009307C006E317F5DE03C52C005B
:1040600093E6063013873C00D5B303C51C0093E6E6
:1040700006200507E1BB03C51C0093078006630902
:10408000F52293E606080507D1B39377D50F13778A
:10409000F50D1D099387B7FB130797FB137989FF6C
:1040A00093B717001337170003250900832549002C
:1040B0002E079607D98FD58F3EC02A87AE876A868E
:1040C000EE88CE86D2852685EFF0EFEE21092A8D87
:1040D000DDB1930760046300F5121D09137989FFB0
:1040E00003270900832749006A8636C0EE88CE86FA
:1040F000D2852685EFF0EF9221092A8D6DB96A8667
:10410000CE86D285130550028294050D6DB19307BA
:104110004900898A3ED0130C1D006388061A0345A6
:1041200009006A86CE86D285829485476E9D63F3A8
:10413000B7216286CE86050CD285130500028294D3
:10414000E319ACFF025985B903C50C00B734001060
:104150009384A4F4014DE31A05C20144E3643DD9FC
:1041600041B39307F006630BF50863F9A72A930799
:1041700080076308F5182946BD9A328C02DC51A0ED
:104180000328090003C52C00890C13871C00336821
:10419000080A110985B903450C007D566296E2872D
:1041A000E31005E4B5A293F8F6FE93F6064093E813
:1041B00018029800E38506D8A14646C442C036C21C
:1041C0006A86C1485DBB93F726003ED06382072410
:1041D00089473ED06A894A86CE86D285829405096F
:1041E0003307A94162970345070075F54A8D825749
:1041F000D1E32259C9B693E60602C5B52146328CF1
:1042000002DC13FF064013F336FF63060F0013F3BF
:1042100026FF130F004093760320639006129377D6
:104220000310930E49006390074A1377030471EF5C
:1042300013770308630E075203560900631706122B
:104240001373F3FE63030F128147980076CE1AC4EE
:104250006EC242C0E2886A860148CE86D285268533
:10426000EFE01FDB2A8D7249B9B693F726003ED0E6
:10427000638007526A899257E3FDB7F7EA9D338D51
:10428000FD404A86CE860509D28513050002829438
:10429000E319A9FF225905B6930780056301F502CA
:1042A000930720066313F5500946328C02DC91BF58
:1042B00003C52C0093E6060C13873C0041BE414623
:1042C00093E60602328C02DC2DBF854763FEB705FC
:1042D000130CFDFFB307BC013ECE6A8C6286CE860E
:1042E000D285130500028294F247050CE318FCFE08
:1042F000034509006286CE86D28582946E9D02595E
:104300005DBC4146328C02DCEDBD034609003DB781
:1043100093F706403ED2B1DB93F726003ED2638688
:1043200007466A8902D281BF034509006A86CE86A4
:10433000D28582940259628DBDBC1D09137989FF13
:10434000032E0900832E49002109B367DE01639C17
:1043500007221373F3FE63080F22814798001AC4E3
:104360006EC242C0E2886A8609B913575348130ED9
:10437000100619C3130E1004591E9800A545B376F4
:104380008603850763E5D502938606033305F700A8
:10439000A30FD5FE938607FEE38A06EAE36886EB61
:1043A000335686038507B3768603E3FFD5FCF29682
:1043B0003305F700A30FD5FE938607FEE38806E8D2
:1043C00093360601E39406E8118255BF925763F6CF
:1043D000B73D930700403ED092573389AD01330972
:1043E000F94042CE6A86CE86D285130500028294B9
:1043F000050D7248E3172DFF03450C00E30B05DEA6
:1044000093871D003ED28257E38607DC02D011B1AC
:104410009257E3E3B7FD85073ED26DBB9307900645
:1044200013F3F6FE631EF53613FF064063040F0018
:1044300013F3E6FE89C51305C5F9631005329375BC
:104440000320BDE993770310130C490063940722FE
:10445000137703046302072003470900BA869358C1
:10446000F7016301071EB7DECCCC938EDECC98003B
:1044700021A0138607FE1DC233B6D603850793B568
:10448000A600330EF7000D823345C6200605898E3F
:1044900093860603A30FDEFEB286E1DD42C01AC496
:1044A0006EC246886A86A948CE86D2852685EFE008
:1044B0003FB662892A8D01B21D09137989FF8323D2
:1044C000490083250900210993DFF301B3E7750053
:1044D000638B072693D7F341BD8D3387F540B3C374
:1044E0007700B387F34037D5CCCCB3B3E50037DFE3
:1044F000CCCCB3837740BA851305D5CC130FCFCC82
:1045000081479800A542B386750033B6B600B296CF
:1045100033B6A6029E888507330EF700AE8E135C75
:104520002600719A6296918EB386D54033B6D50037
:104530003386C3403306A602B383E6031E96B3B3A5
:10454000A602B386A6021E96131CF601935316000C
:104550008582E29633C6D62006063386C54013060A
:104560000603A30FCEFEB685639B080063E9D20164
:1045700042C01AC46EC27E886A86A94801B4938676
:1045800007FED1F2F5B7935753481307100699C3A6
:1045900013071004930767FF3EDE980081478146AA
:1045A0007285F6853ADA1AD83ED642D432D272D023
:1045B00076CE97E0FF0FE780202DB2579376F50F68
:1045C000A545F24E025E12562258425352578507B5
:1045D00063E3D50493860603B305F700A38FD5FEE6
:1045E000938607FEE38D06D6E256638BD615728559
:1045F000F68581463AD61AD43ED242D032CE97E0E2
:10460000FF0FE78000FA7246025892572253325742
:104610002A8EAE8E69B7F255AE96B305F700A38F1A
:10462000D5FE63950E00BD46E3FBC6D3938607FE19
:10463000E38706D29396CE01135E4E00369E93DE3C
:104640004E00B1BF9800E31B0FE493070003230063
:10465000F1049800854799B51377030863030710A1
:10466000031709001356F740B346C700918EB3C62F
:104670000608F5B38326090093D8F601EDCEB307FB
:10468000D040B7DECCCCB3E6F60A938EDECC9800F1
:1046900033B6D603850593B7A600330EB7000D8257
:1046A0003345C6200605898E93860603A30FDEFEDA
:1046B000B28681E7938705FEE1FF42C01AC46EC24D
:1046C0004688AE87C5B30326090011E61373F3FECF
:1046D000980063100F0693575348130E100699C3A2
:1046E000130E1004591E9800A545B377860385065E
:1046F00063E4F502938707033305D700A30FF5FEA4
:10470000938706FE9DC76366860333568603850638
:10471000B3778603E3F0F5FEF2973305D700A30FD6
:10472000F5FE9337060191E7938706FE99C3118240
:104730006DBF76CE1AC46EC242C0E288B68721BE73
:10474000E36FCEC06DB59800E3140FE2930700034A
:104750002300F1049800854721BD2946328C02DCF4
:104760005DBC03270900B306E040B366D70AC5B9AC
:1047700003260900E1B49800E3110FF49307000346
:104780002300F104980085450DBF930700403ED0FB
:10479000E3940DC422596FF00FE285073ED295B81D
:1047A00029469A86328C02DCA9BC13F3F6FE9305E7
:1047B00075F99DB939711303C102B28E373E0010ED
:1047C00036D63AD82E86F686AA851A871305EEF3D2
:1047D00006CE3EDA42DC46DE1AC6EFF0AFD7F24034
:1047E00021618280397103A38187130E410206CEB5
:1047F0002ED232D436D63AD83EDA42DC46DE72C603
:10480000630F0300AA86373500102C00728713054A
:10481000A5217D560293F2400545216182805121F8
:10482000F24001452161828083A78187011106CE74
:1048300091CFAA86373500102E871305A5216C006D
:104840007D568297F2400545056182809929F240A4
:104850000145056182800D45731025BE7D15E35D20
:1048600005FE05651305058073104530736004303F
:104870007310003482800290FDBF83A7C18781CF6F
:10488000370708203E95130707006361A70223AE90
:10489000A1863E858280938781913707082023AEC9
:1048A000F1863E9513070700E373A7FEFD573E858B
:1048B0008280AE87B28509E937C70410032687478F
:1048C0008326C7473E8549A47D5582809307F5FF1F
:1048D000854663EDF600011132C62E85B28501468C
:1048E00006CEA522F2403245056182807D55828048
:1048F0007D5582807D5582807D55828013353500BF
:104900008280411106C6853F4111B28706C62A86BC
:104910002E85B68589CF3797041013074718379827
:104920000410AA8613054819753D0545A937379720
:1049300004101307472BBA87DDB7411122C426C2E2
:1049400037140110B7140110130484BA938404BB04
:1049500006C6EFE02FBD637794001C4011048297D8
:10496000E36D94FEB24022449244410182801C4196
:104970002E85B28582878347550101114AC806CE2C
:104980002E89C1C76354C00622CC26CA83C705003E
:104990003284AA84D91781E783474501A1CF85478F
:1049A00001466304F40293061900854703C7060015
:1049B0003E888507591709E703C7F6FF4D1729EF0A
:1049C0008506E315F4FE635886009C40B305C44099
:1049D0003305C9008297B305890083C7F5FF624498
:1049E000CD1793B71700238AF400D244F24042490E
:1049F000056182801C4137C50410130505488945AF
:104A000082970546E311C4FAF9B71C41F2404A8582
:104A10004249B28505618287B305C8403305C900A4
:104A200063580601984036C63EC40297B246A24774
:104A3000984037C5041013050548894536C63EC45D
:104A40000297A247B2463E86A5BF397122DC26DA1C
:104A50004AD856D206DEB28A4ED652D45ECEAE8444
:104A60002A893684EFD09FE2B7470F009387072447
:104A7000AA9733B6A700370700802E967D17BE850C
:104A80006374C7003A86FD55377A002013058AD92A
:104A900097B0FF0FE780C065FD57AA8B6381F40ACA
:104AA00039C4B75900109389699703A441881DC080
:104AB00063940A0429A0638C8700004801CC1C4041
:104AC0002686CA852285F5DB83A70188EDF78299C2
:104AD000004875F4639E0B04F25062544259B25977
:104AE000225A925AF24B2685D25421618280B759BC
:104AF00000109389E99655BF5AD0294B29A0638CA1
:104B0000870000481DC01C402686CA852285F5DB2B
:104B100083A70188EDF7829922859305F100054668
:104B2000A30761018299004879FC025BE3860BFAD6
:104B300013058AD997B0FF0FE780806671BF4A8559
:104B4000EF609037AA84A9BF797126D24AD04ECEA1
:104B500052CC56CA5AC85EC606D622D4AA892E8915
:104B6000B28BB68A370A0B4003A4418809E415A822
:104B700089CB00481DC483A70188CA854E85E39967
:104B800087FE1C44FDD78297E355A0FEB250225405
:104B900092540259F249624AD24A424BB24B4561A1
:104BA000828083274A0263EA570103278A026394BB
:104BB000FA00636477017955D1BF05458145EFD08F
:104BC0001FCE5DB783A741881387418899C7638942
:104BD000A700138707019C4BFDFB91C108C382808E
:104BE000FDFD944B14C323A807008280411106C623
:104BF0004924EF00807AB2400545410182807971F5
:104C00004AD006D622D44ECE52CC2A89A307A10080
:104C1000EFD0DFC7B7470F0093870724AA9733B6B3
:104C2000A700370700802E967D17BE856374C700E6
:104C30003A86FD55B7790020138589D997B0FF0FC3
:104C4000E780004B03A441882A8A05C426D229A004
:104C5000630DF400004809CC1C4005469305F100A3
:104C60002285EDDB83A70188E5F7313300486DF439
:104C70009254631A0A00B2502254F249624A4A8599
:104C8000025945618280138589D997B0FF0FE7806B
:104C90002051B2502254F249624A4A850259456174
:104CA0008280411106C622C426C22A84EF60D02029
:104CB000AA8485462285A6853686413B03A4418881
:104CC00011C45C4091CB8297004865FCB2402244FD
:104CD0002685924441018280004865F4B240224416
:104CE0002685924441018280635EB00203A7018958
:104CF000B787F8BFBA9793B7170093860187B3A712
:104D0000D720039807003306B500B5458346050054
:104D1000630BD8001C4F93F70702EDFF14C3050582
:104D2000E316C5FE82801C4F93F70702EDFF0CC30C
:104D3000D5B703A8C1886353B00603A7018981468C
:104D40001C4FC18B85EF85061C4FC18BF5FF1043AF
:104D5000B307D500A38FC7FEE394D5FE630D08000B
:104D6000930700051CDF5C5B85669386460393F71B
:104D7000870336971CC3AE8636858280630D080094
:104D8000930700051CDF5C5B05661306460393F77B
:104D9000870332971CC3EDF2F556F9BFE30E08FE08
:104DA00083A7018913070005856698DFD85B938682
:104DB0004603B6971377870398C3F55675BF83A745
:104DC000C18881CB03A7018903A58188232C070211
:104DD0008287828003A701891C4FA18BF5FF828007
:104DE00003A70189B787074001112A863305F740D9
:104DF0001335150006CE2E881305150283A5C1882C
:104E000009C68DC9F24005618280EDDD232C0702C1
:104E100081452AC6EFC08FE53245B755001093850E
:104E2000E5DBEFC03FB5F24023A6018823A401884B
:104E300005618280B75500109385E5DB2AC623A65D
:104E4000C18823A40189EFC00FEA32458545EFC030
:104E5000EFE183A7018913070005856698DFD85B1A
:104E6000F24093864603B6971377870398C305618C
:104E70008280B7C7041083C7874B4111B7C704109E
:104E800083C7474B22C4B7C7041083C7074BB70774
:104E900007408945014506C623A8F188EFC0AFB693
:104EA00089450545EFC02FB603A50189F1659385B6
:104EB0000520EFD05FA72244B240376500201305DC
:104EC000856685454101FDB98280238A01888280FB
:104ED00003C755009307F00F0145631DF70083C713
:104EE000650089EB83C77500FD1781E713369600CF
:104EF00019C20145828003C725002545238AE18820
:104F000082800545828085476384F500054582805F
:104F1000834756008346460003C74189A207D58FC1
:104F200001456303F7008280411106C683471600DE
:104F30006380B70209476385E700B2404101828080
:104F40000145130640068145EFD03FC80545F5B73A
:104F50008345360003472600A20593F70510D98D37
:104F600089CB13D695003285058A93F5F507EFD0E6
:104F70001FD17D5513D69500C5BF37950410130575
:104F8000456C828085476390F50283471600639ED7
:104F9000B70003475600834746009D4622075D8FB2
:104FA00081476307D7003E85828081473E858280A6
:104FB000B7970410B2859306600A1386C7616F1015
:104FC000C06B0547B79704102300E5001385C75F42
:104FD000828083C6150003C6050003C7250083C76A
:104FE0003500A206D18E4207558FE207D98F1307ED
:104FF000004B6383E70082804111014681457D5566
:1050000006C6EFD0DFC723A8A18A23A6B18A828073
:1050100003C5018A6FC00FCA1387418A1C4341111F
:1050200006C622C426C24AC0B5C7F376043013961A
:1050300037003316C028F19BAFA5C744F18DEDFDB5
:105040000F00300354C31C43A380018A0F003003B8
:1050500023800700A18A73A006300144814403C560
:10506000018AEFC00FC419E90144B24022852244ED
:1050700081440249A68592444101828003C5018A88
:10508000EFC04FC3B240228522440249A685924414
:10509000410182801304803E8144D1B7411126C270
:1050A000AA8401454AC006C62E89EF10D01159C105
:1050B0000145EF1050153DCD22C4EFD02FFDB7476D
:1050C0000F0093870724AA9733B6A70037070080FD
:1050D0002E967D17BE856363C7041385418B97B0F9
:1050E000FF0FE780E00031C50145EF10D00D09C585
:1050F0000145EF10501115E581457D55EF00103C3D
:10510000F5541385418B97B0FF0FE7806009224467
:10511000B240024926859244410182803A86FD557B
:105120006DBFA6854A860145EF105010AA8471F91B
:10513000C1BF2244F554E9BF411106C622C4EFD0D5
:10514000EFF4B7470F0093870724AA9733B6A70059
:10515000370700802E967D17BE856374C7003A8698
:10516000FD551385418B97B0FF0FE78060F815C19F
:105170007D558145EF0090340145EF1050166DF9D3
:105180001385418B2244B240410117B3FF0F6700E2
:105190002301B24022444101828001114AC84EC617
:1051A00006CE52C4AA892E89EFD04FEEB7470F0022
:1051B00093870724AA9733B6A700370700802E9657
:1051C0007D17BE856374C7003A86FD551385418BF4
:1051D00097B0FF0FE780C0F119E5F2404249B249AC
:1051E000224A056182800145EF10E07D45C922CC4D
:1051F00056C20144635020050145EF10B0202A86B5
:10520000B30789403346F60AB3858900014521C2B8
:10521000EF10901881452A947D55EF00302A014502
:10522000EF10F00BEFD08FE623ACA18823AEB1884E
:10523000E34424FD6244924AF2404249B249138554
:10524000418B224A056117B3FF0F670063F5814563
:105250007D55EF00B0260145EF1070080145EF10B5
:105260008076AA870145F9D7EF10D01971F1EFD0F8
:10527000EFE183A7818937A7070083A6C1891307B8
:1052800007123E97B337F700B697E3E5B7FAE39115
:10529000F5FAE361A7FAE34124F769BFF240424916
:1052A000B249814601471385418B224A23ACD188FC
:1052B00023AEE188056117B3FF0F670063EE41116C
:1052C00022C41385418B814506C697B0FF0FE78046
:1052D00060D339E51387418A1C439DCFF3760430B0
:1052E000139637003316C028F19BAFA5C744F18D44
:1052F000EDFD0F00300383C7118A854554C393F732
:10530000F70F1843A380B18A0F0030032300070072
:10531000A18A73A00630A1C7B24022444101828015
:1053200081457D5526C2EF0070190145EF10A06D33
:10533000AA841385418B97B0FF0FE78060E699C878
:1053400083A7018B81CB22449244B24003A5C18A3A
:1053500041018287B2402244924441018280EFD0D1
:105360006F832A84EFD08FD29307853E33B6A70090
:10537000370700802E967D17BE856374C7003A8676
:10538000FD5522852244B240B7560010938686010F
:105390008547014741016FD08F804111B70700D089
:1053A00022C4804306C6EFC0FFFEEFD06FA763079D
:1053B0008500B2402244014541018280B7C70410F4
:1053C00083C7C74B81450145EF2000001385418B02
:1053D0001C41C5CB0545EFC05F9EB7550010AA879D
:1053E0001375F50F9385E52B2380F18AEFC0AF8FFE
:1053F00003C5018A8545EFC06F873945EFC0CF8C63
:1054000025E19387418A23A0070023A20700EFC06C
:105410007FF82A84EFD08FC79307853E33B6A70065
:10542000370700802E967D17BE856374C7003A86C5
:10543000FD55B756001022859386860185470147A2
:10544000EFC0FFF5E34705F6376500201305056853
:105450008545EFF02FF7B240224405454101828097
:105460000545EFB0DFF9AA851385418AEFC0DFA3B8
:10547000B75500109385050101463945EFC0CF8E21
:10548000E1B7EFC0DF9DB9B7379504101305057676
:105490008280379504101305C5708280B78700207D
:1054A00083C68718011106CE2A87A5C605E337856E
:1054B000002093079040130505D22311F5009307B0
:1054C00040302310F500F24005618280954763EC7F
:1054D000E704B79704109387476F37850020334759
:1054E000F720130505D21843130625008147CD4543
:1054F00039A02310D600050709066383B702834647
:105500000700850793F7F70FEDF6860793E7073057
:105510004DBF2AC6C545138587189120324779B7F4
:105520009307803279BF014579BF1565397113053D
:10553000753406DEEFD0CFF3AA8705466800A5458F
:105540008297D24762471386C18B93D787695CC223
:10555000F2501357876923AEE18A21618280854723
:105560006385F51A9387C18B03C707002548FD158E
:105570009356474013860603634CD8182300C50092
:105580008546638FD51C3D8B2546930607036364D0
:10559000E618A300D50009476384E51C03C717007C
:1055A000254893564740138606036349D8162301BE
:1055B000C5008D466386D51A3D8B254693060703A5
:1055C0006361E616A301D5001147638BE51803C795
:1055D0002700254893564740138606036346D81490
:1055E0002302C5009546638DD5163D8B254693064F
:1055F0000703636EE612A302D50019476382E5161E
:1056000003C7370025489356474013860603634374
:10561000D8122303C5009D466384D5143D8B2546CF
:1056200093060703636BE610A303D5002147638944
:10563000E51203C7470025489356474013860603E3
:105640006340D8102304C500A546638BD5103D8B5D
:105650001306070363E9E60EA304C5002947638127
:10566000E51003C7570025489356474013860603A5
:10567000634ED80C2305C500AD466383D50E3D8B24
:105680002546930607036366E60CA305D50031475C
:105690006388E50C03C76700254893564740138687
:1056A00006036354D800138676032306C500B54667
:1056B0006388D50A3D8B2546930607036374E6008D
:1056C00093067703A306D5003947638BE50883C7A4
:1056D0007700254613D74740930607036354E60037
:1056E000930677032307D5003D47638BE506F98FC3
:1056F000A5461387770363E4F60013870703A30720
:10570000E500C147638EF504410523000500828052
:1057100013867603A5B593067703A5BD1386760396
:1057200079B59306770379BD1386760355BD930645
:105730007703D1B513867603E9BD93067703EDB5FC
:105740001386760301B71306770339B713867603FA
:1057500015B793067703A305D5003147E39CE5F21F
:105760002E95230005008280411106C622C47D2C9F
:1057700037041150B147B70500203CDC93856533F1
:105780001306F00F3945EFB03FDEB7870020130650
:105790000004138587D58145EF501059AA87054528
:1057A000A380A700B705105023A205082E87130871
:1057B00000082320070893060710130600044297E9
:1057C0009385450898D7239CC70023A20700A38090
:1057D0000702239CC702A38D070223A2070223917D
:1057E00007038CC7D4C7D4D797B0FF0FE780C09EFC
:1057F000054528C037070020F56778C4C10723286E
:10580000F408B2402244B72711504167F8C741015C
:105810008280854539456FB07FC5378500201305E7
:1058200085D70146814589A42382B18C99C5B727C4
:1058300011503707020023A8E708828083C70500BC
:1058400093F7F70791C3828003C715009547E31CC0
:10585000F7FE03C72500B707115098C3828003C61F
:10586000350005480D8A6302061103C5250003C7EC
:10587000550083C54500935675009378F507B3A787
:10588000D8203783002022074D8F9607130383D536
:105890009A971377F77FB3C506012381A700A381E9
:1058A0000700A38DC700239CE700A380B700638592
:1058B0000609B70510509385450813956800B3E5B0
:1058C000B8201A950CC523A0050063850808B70702
:1058D00010509107B3E7F8205CC101111307F703DB
:1058E000198306CE8947931577006304F600931554
:1058F000670003A6818CB3A7D82096073307B600AC
:105900009A9723A4E18CD0C7B7151050637AB706D5
:10591000B3A7D82096079A9703C7B701B7051050C9
:10592000D4432D8E9317A701F240D18F9397F72977
:105930009CC2054505618280B70710509387070810
:1059400093956800B3E7F8209A959CD523A00700AB
:10595000639F08009606B70710509A969387071022
:1059600023A20600DCC605458280014582803705FA
:10597000105021059387F8FFB3E7A720DCD1B1BF12
:105980003EC636C446C2EFD0EFB8B247A2469248F0
:10599000D047B7870020138387D59DBF17B3FF0F6C
:1059A0006700838393F7F5079D81B3A7B7203785F9
:1059B00000209607130585D54111B2853E953686A0
:1059C00006C65D20B24005454101828013F5F5070A
:1059D00019E593B715008507372711503CD79D81EE
:1059E0003325B520B78700201605938787D53E95C8
:1059F0001316B028814517B3FF0F6700630F93F7A5
:105A0000F50791E382809D81B3A7B72037850020F9
:105A10009607130585D5FD753E959385F57F01465F
:105A2000A301050017B3FF0F6700830C411106C6E1
:105A3000B7270240B706001094C337070240B737B4
:105A4000024094C321071C43B3F7F640EDFF0566FF
:105A5000814537051050EF50302DB240B707115037
:105A60002547F8DB41018280411122C406C68547E3
:105A7000231AC500231B05000CC9230DF5002A8439
:105A800097B0FF0FE780200119C5B72711503707DE
:105A9000020023A8E708228597B0FF0FE7804002A5
:105AA00001C98547230EF400B2402244410182809F
:105AB00022852244B240410117B3FF0F67008308DB
:105AC000011126CA4EC6B7A9041022CC4AC852C436
:105AD00003C7018E06CE2A899389C9810144814773
