:020000041000EA
:10000000F2EB8871E07D0010FC7D0010A80000106C
:1000100090A31AE7D3DEFFFF420101114403000061
:100020003600001000200820FF040000C0BB0000C4
:10003000793512AB79A897510010938161901721FF
:100040000810130121FC173500101305B553731068
:100050005530732540F135ED1707000013070705EC
:100060000C4391C55043144731071D28D5BF974510
:1000700000109385A5D6174600101306A60E21A0E2
:1000800023A005009105E39DC5FEEF1040225D28E9
:10009000EF10601E0290FDBF884108C29105110655
:1000A000E36CD6FE82800100FC7D00100000002081
:1000B000D83D0020D4BB001000000820000008201C
:1000C000D4BB001000100820001008200000000021
:1000D000828021651305C5DF028552B837440020B0
:1000E000834784F599EF9307000089CB377500109B
:1000F0001305C57A97000000E70000008547230C30
:10010000F4F452BE9307000089CFB745002037753D
:1001100000109385C5F51305C57A17030000670025
:10012000000082804111FD4506C622C42A84252B89
:10013000228581450146852322852244B24081459E
:1001400041018DAB5D7186C6A2C4A6C266D2CAC08B
:100150004EDE52DC56DA5AD85ED662D46AD06ECE03
:10016000EF10201869457D3F6D456D3FB70C0A4083
:1001700083A70C00BD6637170A40F58F1CC31545D1
:10018000A12B93070002370400D01CDC1145A923E2
:10019000B787001083A787D7C1443EC604DCB727C2
:1001A0000A40114798C383A70C0093F70710E5DFB7
:1001B00003AC4C003704088013041408334C0C08BB
:1001C00013178C0033078741331487029356F74186
:1001D000854B130B007D370D00D021493A942D84B7
:1001E000158C9379F40F333730013307E040B3EBCC
:1001F000790B9306F00F33F48640B3FBEB00638872
:100200000902130A0002814A23204D030545814556
:1002100063CC8A06232C9D00232C2D01850AEF0038
:100220003041E3C33AFF1307F00F638EE906DE8D1A
:10023000930A0002130AF00F232C5D010545814546
:1002400063C78D06232C9D00232C2D01850DEF0007
:10025000303EE3934DFF7D1BE3130BFA628597104D
:100260000010E780803AB245EF00D063971000108D
:10027000E7804043B77700102A86AE861385077B58
:10028000E285EF10503821BF23209D02232C2D0141
:1002900005458145850AEF00B039E3C73AF71307F2
:1002A000F00FE396E9F87D1BE31F0BF445BF232015
:1002B0009D02232C2D0105458145850DEF0050370A
:1002C000E39C4DF77D1BE31C0BF249BF8280377521
:1002D000001041111305857D06C65D24411122C41D
:1002E00026C237740010B774001006C613040477D2
:1002F0009384847A637794001C4011048297E36DA1
:1003000094FEB2402244924441018280B747EFEF0D
:100310009387F7B7B72602403707F4039CC25917F3
:10032000B7370240B706024098C3A1069C42B37794
:10033000F740EDFF8280B7071150F847A1676303CC
:10034000F7008280B727115037070400F8C7828072
:10035000370700207D17B7370240B706024098C321
:10036000A1069C42B377F740EDFF828015654111ED
:100370001305352506C6EF00904CB240AA871145FB
:1003800041018287156541111305352506C6EF0029
:10039000104BB240AA8705454101828765A44111EF
:1003A00022C406C626C24AC03704014023220408DC
:1003B000EF00F04CB73701400547D8DF7C40E39FA2
:1003C000E7FE0D47B737014098DB0544370701408A
:1003D0001C5FE39F87FE37366859A285130606F037
:1003E0000947954637050540EF00903B154737967E
:1003F0008647BA86A285130606C037850540EF00FA
:10040000303AB726B700938606B0014689451145B4
:100410005120B7D6F008A2859386061801461545E7
:100420009528B776DC02938606C0014681452145B2
:100430009520B776DC02938606C0014681452545A6
:100440009128B7D6F00893860618014681451945CC
:100450009120B7D6F00893860618014681451D45C0
:10046000152811453122B7E71B43938737E8B3348A
:10047000F50201441949C9802285A6850504EF00CB
:10048000D03AE31B24FFB240224492440249410186
:1004900082800000B70701403327A5203347F720AB
:1004A00003284700C1676373F8005CC39387F5FFB7
:1004B0009308C5FF81E793B72800B5E737480020C8
:1004C0001308480FB347052103A307008D67BA97A8
:1004D000131EB02823A0C7010A05631903020323D2
:1004E000070016068567334666001376060EBA9730
:1004F00090C30546637016078967BA971316B0282C
:1005000090C34295C16714C15CC3828083274801B0
:10051000B3D767028507B3A7F72001009387E7FFEA
:10052000E3DE07FE6DBF8D67BA970D4823A0070174
:100530001C47858BF5DF03280700160685673346C1
:1005400006011376060EBA97374800200A0590C3B5
:100550001308480F832807003316B028B3C81501C5
:1005600093F8380023A017011C47F18FF5DF69B716
:10057000B74700209387470F3345F5200841828015
:1005800039713773001022CC2A841305437E06CEBE
:100590002ED232D436D63AD83EDA42DC46DEEF10DE
:1005A000701201CC4C1022852EC6EF0030423775F8
:1005B00000101305457FEF10F0100545EF00504681
:1005C000F3760430B74700209387F70D1397370071
:1005D0003317E028F19B2FA8E7443378E800E31CA9
:1005E00008FE0F00300393D735003E950347050002
:1005F00093F77500B317F0283378F70063110802FA
:100600005D8F2300E5000F003003B747002093877C
:10061000470DA3850700A18A73A00630828041118F
:10062000328506C6B13F37470020034587DCDD46EB
:100630009307150093F7F70F63F3F600C147230400
:10064000F7DC8280B74600209386460D814713066B
:1006500000020F0030033387F600230007008507F0
:10066000E399C7FE8280B78703409107B347F5201F
:1006700098438566BE96134707041377070C3786A1
:10068000024098C23365C5200D67BA974CC1130765
:10069000001098C38280B787034091073345F52047
:1006A0001C418E050A064D8E3D8E8567318A3E952A
:1006B00010C18280B787034091073345F52099C563
:1006C00089673E95930700041CC182808D673E9523
:1006D000930700041CC18280B316A028370700D0FE
:1006E000B787034034C3910714D3B347F520984329
:1006F0008566BE96134707041377070C37860240BA
:1007000098C23365C52015478D6658C1B697130743
:10071000001098C3828081463D481D4593054003E3
:1007200093F736008A073317F80013D626004207DE
:10073000518F733037BEB317F500C207D18F73A046
:1007400037BE8506E39EB6FC736004308280935703
:10075000550086073315A028C176E98E1387170048
:100760004205558F5D8D91C9733025BE733027BE0C
:10077000732005BE732007BE8280733005BE7330C0
:1007800007BE8280011106CE73770430B747002080
:100790009387D70D93963700B316D028F19B2FA6D9
:1007A000D744758E6DFE0F003003F32750301305CC
:1007B0004503F19BB347F5209443638FD500B737CA
:1007C0000020938747726389F6002EC62AC43AC276
:1007D000FD3CB24522451247F3275030F19B33458B
:1007E000F5200CC10F0030030F003003B747002085
:1007F0009387470DA3840700218B73200730F240B5
:1008000005618280B74700209387470DAE971CC1D2
:100810008280011122CC26CA37440020B744002030
:1008200006CE130484DD938484DD637694024AC883
:100830004EC61309F00FFD591C409DC3ED33AA8528
:100840002285C937231224010F0030032104E365F8
:1008500094FE4249B249F2406244D244056182802A
:10086000D933AA852285793F230234010F00300352
:100870002104E36394FCF1BFB746002083A7C613AD
:1008800073770430139637003316C028F19BAFA559
:10089000C744F18DEDFD0F00300383A7C6130F0091
:1008A0003003238007009377870073A0073033203D
:1008B0001000014581458280397106DE22DC26DA8E
:1008C0004AD84ED652D456D25AD05ECE62CC66CAE0
:1008D0006AC8F32750BE139707016347073213D93D
:1008E00047009377C91F13793900B3192029B70B33
:1008F0000B406397073437470020B3C727211307FE
:10090000C711B3C7E72083AA07008D679387470401
:10091000DE97371A001023A03701130A8A8B7D5403
:10092000FD54039B8A0023AE3B0363570B0883D718
:100930004A009397576063DC071483C76A00639586
:10094000071E039B8A0063460B0403A74A01332B4F
:100950006B21FD57336BEB20032C8B00032BCB005B
:100960006301FC2AB346792103A78B029C4A330614
:10097000EC40998F636FF60283A70B02B3D7274928
:100980008DCB5E85E12B63C66501E31CBBF8E37A82
:1009900085F933201000F2506254D2544259B259B2
:1009A000225A925A025BF24B624CD24C424D216168
:1009B000828023A88601F1B783A74A01332C6B21DB
:1009C0005E85336CFC20832CCC00032D8C007923B6
:1009D000E3CF95F56383BC1C63C50C1C83270C0116
:1009E00083254C016385472503978A0003552C0016
:1009F0004207598D82972E87AA87B3E6E700638264
:100A0000061A63590720B306FD40333DDD00B38766
:100A1000EC40B387A74103170C002324DC002326F6
:100A2000FC00E34607F003A84A013325E72013162C
:100A30001700336505214C4583288500E3C9B7EECF
:100A40006394F500E3E516EF2394EA0013858A002A
:100A500031A0832886004C46131617003A9663CEC1
:100A6000B7006383F51E336506210317050033269F
:100A7000E72033660621E35E07FC2310EC00231019
:100A8000650183D74A0093975760E3C807EA83A7B5
:100A90000A017377043093963700B316D028F19B80
:100AA0002FA6D744758E6DFE0F00300383D84A0001
:100AB000FD572392FA009398586083A70A010F000C
:100AC0003003238007009377870073A00730E3C6C5
:100AD00008E603A54A0103978A0033A81821336862
:100AE000A82093858A006345070203238800032614
:100AF000C80001A8638BC60E03970700BE85634933
:100B00000700B327E720B3E7A720D447E354D6FE76
:100B100023901501831808002310E800E3DD08FA8C
:100B200083C76A00E38F07E023830A00039B8A00E0
:100B3000FD555A87E30FBBE403A54A01B327E7201D
:100B40003A86B3E7A72083D62700039707001388C8
:100B50008A009396566063C206023E88E305B7DEBC
:100B6000B327E720B3E7A72083D627003A86039769
:100B7000070093965660E3D206FE80C7C4C7E30F12
:100B8000CBFC2310E80083D68A00328B2390D70059
:100B90002394CA00E316B7FC7DB3E36AA5D9E3DF6B
:100BA0000CE203570C0083A70A012394EA00737731
:100BB000043093963700B316D028F19B2FA6D74464
:100BC000758E6DFE0F00300383D62A0083A70A01BD
:100BD0002310DC0023916A010F00300323800700FB
:100BE0009377870073A0073099B39447E376D3F0E7
:100BF00023901501831808002310E800E3DD08ECBA
:100C000005B7E3118BD7B5BB8549CE870149B78BB3
:100C10000B40D5B15E853AC63EC48926A24732470D
:100C2000B306F500B3B7A600BA95AE97EDB39C49ED
:100C30002E852EC4829735D5A2459C41D84175BBDF
:100C40008547B78B0B4045B9E3FF16E13DB5B73794
:100C5000002093878754984B19C737450020130508
:100C6000C513A94545B641118D4537050B4006C64C
:100C700022C4E924373400209307845437080B40FA
:100C800023A607014D3293078454AA850D4523807E
:100C9000A700370700D003230700B7460020D84B32
:100CA0009386460D37061100AE967D16BD4894CB4F
:100CB000A380670090C723911701FD550943914810
:100CC000154699462392B70023146704231C17077F
:100CD0002318C7082314D70A9D42A146A54F294FC0
:100CE000AD4E314E3543B9480546231CD70C231071
:100CF000A7062310570C2318F70F2314E71123100E
:100D0000D713231CC7132318671423141717231092
:100D1000B7002318C702231C070037080B40B7157C
:100D200000102320D802374700209385858B232489
:100D3000F712893C85450D45193C2244B240B7273E
:100D40000B40A146B4C3374500201305C513A94580
:100D500041014DBCB283AA8710492E83F37504303C
:100D6000131536003315A028719A2F28A64433781E
:100D7000A800E31C08FE0F0030038398270013F639
:100D800085008C4B63CE0808C84B33A81821336804
:100D9000A820035508002391A7000F0030032380EB
:100DA0000500732006300356280085451395080179
:100DB0002E96460645823376B60A232AE800232873
:100DC000D80023246800232678002311C800518D01
:100DD000984BF3760430131637003316C028719BF6
:100DE000AF25C744F18DEDFD0F00300303D647005A
:100DF000984B2310C800239217010F0030032300E3
:100E0000070013F786007320073003C70700DC478D
:100E10008966938646043317E028B69798C3828084
:100E20000F00300323800500732006307D5582803B
:100E3000011122CC26CA2A844AC806CE2E894EC663
:100E40003522B304A40033B484002E99B707008080
:100E50004A94FD1763F487003E84FD541389A4FF70
:100E6000B33999009307F4FFBE99636A340363862C
:100E70008902ED283305A940B385B940B337A900ED
:100E80009D8D634AB002CDC9A2856244F2404249B9
:100E9000B2492685D2440561DDA0E3FC24FDF9209A
:100EA000014981493305A940B385B940B337A90049
:100EB0009D8DE35AB0FC5D283305A9403335A90068
:100EC000B385B940898D63C10502B7160010373567
:100ED000002093868687130585540147CA854E8670
:100EE000953DFD57E302F5FAB7060B403746002063
:100EF000DC5263E737019856E398F9F8E37627F96F
:100F00008327C6137377043093953700B315B02841
:100F1000F19B2FA5B7446D8D6DFD0F003003832726
:100F2000C6130F003003238007009377870073A058
:100F30000730332000006DBF21D9B5BFB787F4BF9C
:100F4000AA973745002093B7170013050514377685
:100F500000103E951306867F6FF08FE64C51AA87EE
:100F600088572E87CC53E31DB7FE8280B7070B400E
:100F7000CC5388572E87CC53E39DE5FE82803707FC
:100F80000B405C53E3EFB7FE639BF500B7070B40E4
:100F900021A0D8536395E5009857E36CA7FE8280A3
:100FA000B727B700938707B0B3D7B70283280500E8
:100FB000C206320733E8E6003356F60263C408047B
:100FC000B787054011676300F506B727024098C34D
:100FD000B7060240B737024098C3A1069C42B377D8
:100FE000F740EDFF0D670CC1110710C52A97930755
:100FF00010021CC31C41E3DF07FE23260501A147A5
:101000001CC382801C4193F7F703E39BB7FA1C458E
:10101000D207D183E396C7FA5C4537770700F98F8B
:10102000E39007FB828021674DB7B78710403325D7
:10103000A5203345F5204CC185471CC18280A1679E
:101040009387A7DF83D7070085458287B7170E40B0
:101050009387878298437DDF0F0030038280B71724
:101060000E4037170E409387C7801307C7820F00C3
:10107000300323A007009107E39BE7FE828085678A
:10108000938707AA378704401CC39307A0115CC746
:10109000B7B6FA00B7A7044094C35C43E3DF07FE8A
:1010A0008280000063D405001315F5690B46751D99
:1010B0008BC6751D9302F00F25CEC1C6630D560871
:1010C0006384560A1358F5411317850093978500DA
:1010D0001317F7299397F729B305F7023337F70268
:1010E000131507603317A700098E3696130626F8E6
:1010F0006359C002B335B0004D8F935587482E9782
:101100001307F707635C070063505602337606093E
:101110005E06060725833305C70082800583050622
:10112000E5B71315F801828033F502095E05828068
:10113000639056029397950099C32E8582807D55C2
:101140008280631756009315950091E17D5582804A
:101150007D817E058280131795006DFFE39C56FE0E
:1011600093979500F9FB828093979500F9F77D8519
:1011700033F5A2085E058280010011E182806F00D4
:10118000704B37430020397103234314130E41027F
:1011900006CE2ED232D436D63AD83EDA42DC46DEFD
:1011A00072C6630F0300AA86371500102C007287E1
:1011B0001305A5177D560293F240054521618280F3
:1011C000EF005050F240014521618280B747002076
:1011D00083A74714011106CE91CFAA8637150010B8
:1011E0002E871305A5176C007D568297F2400545A2
:1011F00005618280EF00104DF2400145056182805B
:101200000D45731025BE7D15E35D05FE05651305CF
:101210000580731045307360043073100034828091
:101220000290FDBF83A7C18081CF370708203E957C
:10123000130707006361A70223A6A1803E85828071
:10124000938741823707082023A6F1803E95130734
:101250000700E373A7FEFD573E8582807D5582809F
:101260007D5582807D5582807D5582807D5582802E
:10127000133535008280411106C65D374111B287B2
:1012800006C62A862E85B68589CF378700101307B4
:10129000C78637880010AA861305C887DD3505453F
:1012A0004137377700101307477DBA87DDB7411103
:1012B00022C426C237740010B77400101304847A55
:1012C0009384C47A06C6EFF06F81637794001C4064
:1012D00011048297E36D94FEB2402244924441018E
:1012E00082803727024085471CC3B7360240370744
:1012F00002409CC221071C438546B3F7F640E5FF38
:1013000037070A4085471CC31C4393F70710EDDFDE
:101310008280B3B7C502011106CEB385C502BDEB0D
:101320005128AA8725CD0326C5FF93064002719A4E
:10133000711663EFC602CD452A8763F1C5022320EB
:101340000500232205006D47637DC70223240500A5
:1013500023260500130705016307D6042320070091
:101360002322070023240700F2403E850561828086
:1013700081452AC6EF007047B247F2403E850561BD
:1013800082801307850023200700232207002324DF
:101390000700D9BFEF003037B1471CC1F240814789
:1013A0003E850561828023280500232A0500130756
:1013B00085016DB7397122DC06DE9387B500594788
:1013C0002A84636FF704C14663E5B604E52BC14682
:1013D00061478948373800201308887242975C4378
:1013E000130687FF6389C730D843D0478C47719B6A
:1013F0003E975443D0C53EC60CC693E616002285E0
:1014000054C3D123B247F25062541385870021613F
:101410008280B1471CC00145F25062542161828034
:1014200093F687FFE3C707FEE3E5B6FE36C6592B02
:10143000B2469307701F63F9D73693D79600638738
:1014400007101147636EF72E93D7660093889703B2
:10145000138E8703139538003738002013088872DD
:1014600042955C4161156301F5023D4339A0CC47CB
:1014700063510626630AB500AE87D843719B3306D5
:10148000D740E356C3FEF28883270801373E002089
:10149000130E0E736389C721D843BD45719B330674
:1014A000D74063C4C532232AC8012328C801635228
:1014B00006301306F01F032348006363E624137607
:1014C00087FF210642960C4215833313E328130746
:1014D00086FF8CC7D8C7232268001CC2DCC513D581
:1014E00028403315A028636AA306B377650089EF07
:1014F000060593F8C8FFB3776500910891E70605E4
:10150000B37765009108E5DFBD4EB3EF08217E8318
:101510000327C300468F6305E3245043BA87584727
:10152000719AB305D64063C5BE24E3C605FE3E9658
:1015300054428C47228593E6160054C2D8C50CC786
:101540003EC65121B24713858700F9B51305002027
:1015500093080004130EF00301B783278800D843D3
:10156000719B3306D7406366D70093250601638FCE
:1015700005123743002083A581810325C3DC7D56F6
:10158000B695630AC52E05663D06B29593F50580AE
:101590009395B548228542CE3ECC36CA3AC82EC66F
:1015A000EF0010137D56B2454247D246E2477248DB
:1015B000AA8837430020630CC5243385E70063E61F
:1015C000A824374E0020130E4EF703260E002E9649
:1015D0002320CE00B28E63091533032FC3DC7D5662
:1015E0006300CF343386A84076962320CE0093FE46
:1015F0007800638A0E2893F888FF0566A108210603
:101600003383B8003306D6413306664052069355FD
:101610004601228542D672D43ED236D03ACE46CC4E
:1016200076CA1AC82EC6EF00B00A7D56B2454243AC
:10163000D24EE248724782569257225E3258630178
:10164000C53203260E00330515412E95136515008E
:10165000232418012E9623A2A8002320CE006386FF
:1016600007033D456371E52CCC435117619B858988
:10167000D98DCCC31543B385E70023A2650023A40D
:1016800065006364E52E03A5480003A741816374E8
:10169000C70023AAC18003A701816374C70023A8E0
:1016A000C180C68785AA0323480015BD13E716002D
:1016B000D8C3BE96136616002324D8002285D0C254
:1016C0003EC61126B247F25062541385870021614D
:1016D000828090473E9754434CC63EC693E6160020
:1016E00090C5228554C3C524B247F2506254138575
:1016F0008700216182805C478908E307F7D8EDB154
:1017000013569700914563FAC50ED14563EBC51A90
:101710001305C6050E059305B605429510416115E2
:101720006316C50099AA10466306C5004C42F1999C
:10173000E36BB7FE4846C8C790C71CC55CC645B337
:1017400051476375F70E130740056368F71893D781
:10175000C6009388F706138EE70613953800EDB997
:10176000050F93773F002103F1CF0327C30065B333
:10177000884793E8160023A2170158C508C7BE96EC
:10178000232AD8002328D80013E715003E9623A665
:10179000C60123A4C601D8C222850CC23EC6252498
:1017A000B247138587008DB993D83600138786001A
:1017B00015B13E9754433EC6228593E6160054C3A6
:1017C0001924B2471385870081B993E51600CCC36D
:1017D000BE96232AD8002328D800936516003E978A
:1017E00023A6C60123A4C601CCC2228510C33EC6CF
:1017F000D92AB2471385870005B113566700130530
:1018000096030E059305860309BF6385070F83279B
:101810008800C84371993306D5406366D500132705
:101820000601E30507E82285792AF5B69388C705FE
:10183000138EB7051395380005B183A78F00FD18E7
:10184000639FF71793F73800E11FE5FB83274800F4
:10185000B3F7A7402322F80006051307F5FFE37E40
:10186000F7CE3377F50011E706053377F500110F52
:1018700065DFFA8859B9C10531BB89853313B328AF
:10188000232268004DBD3383B80033066040520602
:1018900093554601228542D472D23ED036CE3ACC00
:1018A00046CA2EC61AC82D257D56B245D248624773
:1018B000F2468257125E2258E315C5D8424581454B
:1018C00049B39305400563E4C5061356C7001305E5
:1018D000F6060E059305E60689B513074015636401
:1018E000F70693D7F60093888707138E770713952B
:1018F00038009DB6374E0020130E4EF7832E0E0093
:10190000AE9E2320DE01D1B9139F4801E3170FCC0F
:1019100083288800BA9513E5150023A2A800B5B363
:10192000232613DDE9B1854723A2F800EDBD930519
:10193000401563EEC5041356F700130586070E0520
:1019400093057607D9BB13074055636EF70493D709
:1019500026019388D707138EC70713953800EDBC6F
:10196000E11E3305D3018145E9B9228593858700BE
:1019700042CA72C836C6EF0070135248424EB24691
:101980008328880003260E0003A54800FDB99305AF
:10199000405563E1C502135627011305D6070E050E
:1019A0009305C6079DBB1305803F9308F007130EF0
:1019B000E0075DB41305803F9305E007B9BB8327BB
:1019C000480059BD82808280638E0514011122CCAB
:1019D00026CA2E8406CEAA8432C0ED3782455947E6
:1019E0009387B5006371F70EE19BBE8613D7F701AD
:1019F00063EDB714631B07140326C4FF130884FFA9
:101A00001377C6FF635CD70C373E0020130E8E722F
:101A100083288E003303E8000325430063806814A5
:101A20009378E5FF9A9883A8480093F8180063918B
:101A3000080E7199B308A70063DBD808058A0DE288
:101A4000832E84FFB30ED84103A64E00719A3295BF
:101A5000B308E50063D0D822B308C70063DFD81A03
:101A600026853AC442C23EC0EFF0DF948247124856
:101A70002247AA866300052E0326C4FF930585FF2F
:101A8000799A4296630AB6161306C7FF9307400277
:101A900063EDC71C4D476366C716AA8722871043AC
:101AA00090C35043D0C3184798C7A285268536C037
:101AB000EF00C07F2685013F8246F2406244D24457
:101AC000368505618280C146B687014715B78326F2
:101AD000C30003268300468754C690C68326480069
:101AE0003305F740BD45858A3306E80063EFA5025C
:101AF000D98E2322D8005C4293E717005CC226856A
:101B0000D935A286F2406244D2443685056182808E
:101B1000058A39F6832E84FFB30ED84103A64E0002
:101B2000719A1DBFB2856FF0FF88DD8E2322D80029
:101B3000B305F80013651500C8C15C42A1052685F0
:101B400093E717005CC29D275DBFB1479CC08146EB
:101B5000F2406244D2443685056182807199B308AF
:101B6000E5001383070163DC6818058AE31A06EEB3
:101B7000832E84FFB30ED84103A64E00719A32958E
:101B8000B308E500E3CA68EC83A6CE0083A58E0007
:101B90001306C7FF13074002D4C58CC693868E0078
:101BA0006365C71ECD45368763FEC5000C406D4793
:101BB00023A4BE004C4023A6BE006363C7202104BB
:101BC00013870E01104010C3504050C3104410C77B
:101BD0003386FE003387F8402324CE0013671700B6
:101BE00058C203A74E00268536C0058BD98F23A285
:101BF000FE00D13B824639B78326C5FFF19A36975E
:101C0000F1BD0C406D470CC14C404CC16362C70C28
:101C1000130784009307850059B583A6CE0083A5DA
:101C20008E001306C7FF13054002D4C58CC69386E9
:101C30008E00636AC50ACD45368763FEC5000C4039
:101C40006D4723A4BE004C4023A6BE006368C70EA8
:101C5000210413870E01104010C3504050C310449C
:101C600010C736844687768895BDA2852AC04D2444
:101C7000824625BD8326C300832583001306C7FF44
:101C800013054002D4C58CC603A7CE0083A68E00E0
:101C900013888E00D8C614C76366C508CD46428730
:101CA00063FEC60014406D4723A4DE00544023A603
:101CB000DE00636EC70A210413870E01144014C3AB
:101CC000544054C3144414C742844687768839B5B7
:101CD000184418C5584458C56302F6081307040190
:101CE000930705016DBB3685A28576C63EC446C204
:101CF00036C0392CB24EA247924882469DB73E98D4
:101D00003387F84023240E01136717002322E800CD
:101D10000327C4FF2685058BD98F232EF4FE65315A
:101D2000A286CDB34285A28576C63EC446C242C0D5
:101D3000C52202489248A247B24E79B7184423A858
:101D4000EE00584423AAEE006301A606410413875F
:101D50008E0111B7268585398146DDBB10481307F2
:101D600084019307850110C9504850C90DBB144424
:101D70001307400223A8DE00544423AADE00630FA9
:101D8000E604410413878E0115BF3685A28576C609
:101D90003EC446C236C0AD2AB7370020138E8772C4
:101DA000B24EA2479248824625B5104813870E02CC
:101DB000610423ACCE000326C4FF23AECE0061BD78
:101DC0000C441307400223A8BE004C4423AABE00C3
:101DD0006301E602410413878E01EDB314481387B3
:101DE0000E02610423ACDE008326C4FF23AEDE00B6
:101DF000F1B5104813870E0223ACCE0050486104A1
:101E000023AECE00C1B337430020032343DD397135
:101E100032D436D62ED23AD83EDA42DC46DE83259C
:101E2000830054102A861A8506CE36C64525F24010
:101E300021618280B747002083A747DDAA859047AC
:101E40003E856F205070397122DC2A842E852EC683
:101E500006DE2526B245B7770010585893081500BE
:101E60009387477F0548101089462ED02AD246CE48
:101E70003ED442D632CA36CC0C441DCF8397C5001F
:101E8000F8519396270163C306029397D728131737
:101E9000D7482396F500F8D122855008EF2050311D
:101EA00011E92945F250625421618280931727017C
:101EB000E3D407FE7D55FDB722852EC6EF20902D79
:101EC000B2456DBFB7470020AA8503A547DDA5BF72
:101ED000411122C426C2AA842E8506C623A00182EF
:101EE000EFF04FB4FD576307F500B240224492442F
:101EF0004101828083A70182EDDBB24022449CC075
:101F0000924441018280B747002003A547DD8280CB
:101F100063F1A502B387C500637DF50005CE2A965F
:101F200003C7F7FF7D16FD172300E600E31AC5FE81
:101F30008280BD4763E1C702AA879306F6FF5DC2B0
:101F40008506BE9603C7050085078505A38FE7FEB6
:101F5000E39AD7FE8280B367B5008D8BAE88BDEF64
:101F600093574600139847002A98FD172A879441F3
:101F7000C10541072328D7FE83A645FF232AD7FEA4
:101F800083A685FF232CD7FE83A6C5FF232ED7FE6D
:101F9000E31F07FD92073387170193050701AA97EF
:101FA0001378C600C1072E8E9376F600630D0802E3
:101FB000F116F19A369751073308154103A305002E
:101FC000B3880501910523A06800E399E5FE138716
:101FD0004600B305C701BA970D8A85B79306F6FF89
:101FE000AA87B9BF8280368689BF3D432A8763733B
:101FF000C3029377F700BDEFADE5937606FF3D8A08
:10200000BA960CC34CC30CC74CC74107E36BD7FE51
:1020100011E28280B306C3408A06970200009696BA
:102020006780A6002307B700A306B7002306B70002
:10203000A305B7002305B700A304B7002304B70026
:10204000A303B7002303B700A302B7002302B7001E
:10205000A301B7002301B700A300B7002300B70016
:10206000828093F5F50F93968500D58D93960501A3
:10207000D58D61B7939627009702000096968682C9
:10208000E78086FA9680C1171D8F3E96E374C3F8E9
:10209000A5B7B3C7A5008D8BB308C500B1E713364C
:1020A000460039E2937735002A87CDE713F6C8FF5B
:1020B000B306E6409307000263C4D704AE86BA872E
:1020C0006371C70203A806009107910623AE07FFBC
:1020D000E3EAC7FE7D16198E719A91051107B29534
:1020E00032976366170182802A87E37E15FF83C7D4
:1020F000050005078505A30FF7FEE39AE8FE828039
:10210000944183A2450083AF850003AFC50083AE31
:10211000050103AE450103A3850103A8C50114C34E
:10212000945113074702232057FE232ED7FE232264
:10213000F7FFB306E6402324E7FF2326D7FF232833
:10214000C7FF232A67FE232C07FF93854502E3C9B7
:10215000D7FAADB783C60500050793773700A30FFD
:10216000D7FE8505A1D783C60500050793773700FD
:10217000A30FD7FE8505F9FF15BF937735002A8792
:102180009DEFB7867F7F9386F6F7FD5510431107C5
:10219000B377D600B697D18FD58FE389B7FE834644
:1021A000C7FFB307A7408DCA8346D7FF9DC203452B
:1021B000E7FF3335A0003E9579158280F9D2834739
:1021C0000700050793763700F5FB098F1305F7FF26
:1021D00082801385D7FF82801385C7FF828001111B
:1021E0004AC83739002022CC26CA4EC62E8406CED5
:1021F000AA8913098972EFF0EFFC8327890005672C
:10220000C443F1989387F47F9387077F3384874093
:1022100031807D143204634AE40081454E854D3996
:1022200083278900A697630DF5004E85EFF0AFF97F
:10223000F2406244D2444249B2490145056182807C
:10224000B30580404E856931FD57630AF502374773
:10225000002083268900832747F7818C93E41400AC
:102260004E85818FC4C2232AF7F6EFF0CFF5F240F6
:102270006244D2444249B2490545056182808145A4
:102280004E85B93103278900BD46B307E540E3DE3B
:10229000F6F8B746002003A6C6DC93E71700B7465A
:1022A0000020118D5CC323AAA6F641B7F9CD011118
:1022B00022CC2EC62A8406CEEFF0CFF0B2453738B6
:1022C00000201308887203A5C5FF138785FF8328A4
:1022D00088009377E5FF3306F70054421373150027
:1022E000F19A638FC81054C2B308D60083A848007F
:1022F00093F818006316030603A385FFB735002083
:10230000938505733307674008479A97630DB50CAB
:102310000323C700232665002324A300638D081030
:1023200093E6170054C31CC29306F01F63E9F60638
:1023300093F687FFA10603264800C2968C42958338
:10234000B317F628138686FF0CC750C72322F80060
:1023500098C2D8C522856244F24005616FF0AFE6AD
:1023600063960802B7350020B69793850573144627
:1023700093E817003305F700638BB60E5046D0C6BE
:1023800014C6232217011CC145B7828013651500AE
:1023900023AEA5FE1CC29306F01FE3FBF6F893D60E
:1023A00097001146636BD60893D667009385960312
:1023B0008E0513868603C2959441E1156396D50078
:1023C000C9A094466386D500D042719AE3EBC7FE5C
:1023D000CC464CC714C722856244F24098C5D8C683
:1023E00005616FF04FDE639908064C461046BE96B5
:1023F00093E716004CC690C55CC3369714C399BFCB
:10240000BE96631A030083A785FF1D8F1047BE96F3
:102410005C475CC690C7B747002013E6160083A749
:1024200007DD50C32324E800E3E6F6F283A58181AB
:102430002285753305B7B6971DBF51466373D60223
:10244000130640056367D60493D6C7009385F60646
:102450008E051386E60685B793E6170054C31CC2A3
:10246000D5BD9385C6058E051386B605A9B7232A63
:10247000E8002328E8004CC70CC7232217011CC121
:10248000D1BD832748000986B397C7282322F800C7
:1024900089B713064015636AD60093D6F700938573
:1024A00086078E051386760739B713064055636A8B
:1024B000D60093D627019385D6078E051386C607C7
:1024C000DDBD9305803F1306E007F5B54571232672
:1024D000111C2324811C2322911C2320A11B36CCF8
:1024E000328DAE842320211D2A842AC6EF20504637
:1024F00018413A853ADA51312AD882C909C45C5860
:1025000099E36F10A03D8397C400F850939627017C
:1025100063C506249397D7281317D7482396F4004A
:10252000F8D09397576013F78700630E071C9848FD
:10253000630B071CE98B29476382E71EB7870010EE
:10254000232E311B232C411B9309C10E378A001007
:10255000938707B02328611B232A511B2326711B55
:102560002324811B2322911B232EB11982C782C5EC
:10257000CEC34E8B3ED0130ACAC602D202DC02DEA4
:1025800082C882C0414402CA83470D00EA8A138789
:10259000B7FD29C3A1C3568C83C71A00850A81C71A
:1025A0001387B7FD6DFBB38CAA416385AA03BE47B1
:1025B0002E452320AB01E697050523229B01BEC7CC
:1025C000AAC59D47210B63C0A718D247E6973ECA0C
:1025D00083471C0099E36F10A03D83C81A00138D38
:1025E0001A00A301010AFD5A02C8814B130CA00571
:1025F000050D938708FE636CFC020257B3C7E72002
:102600009C438287938708FD02C8A54642478348BA
:102610000D00050D3347E720B327F7203EC8938709
:1026200008FDE3F5F6FE938708FEE378FCFC63946F
:1026300008006F10E037854C23061113A301010A2F
:10264000668C02CE814A02D602D4014E7C123E46EE
:1026500093FD4B083288638E0D760347310A31C3F0
:10266000AE4501471305310A2320AB000506054599
:1026700085052322AB00B2C7AEC51D45210B634CB7
:10268000B53C05C3AE4558112320EB0009060947A8
:1026900085052322EB00B2C7AEC51D47210BE34ED3
:1026A000B74213070008E381ED30B38A9A41634FC4
:1026B000507313F70B106319077C2320FB00AE4700
:1026C0006696B2C7850723229B011D47BEC563419D
:1026D000F746210B13F34B0063070300C247B38A8D
:1026E0008741E34C5041C247B3E6870BD247B697C8
:1026F0003ECAE3170636F24782C581C7F245324526
:1027000075364E8B51B53245A685EF20700631E9FE
:102710008397C4002947E98BE392E7E28397E400BB
:10272000E3CE07E0E24632456A86A685EF103065C3
:102730002A896F00503783480D005DBD83480D0026
:1027400093EB0B0275B53245D001A685EF10306CC6
:1027500019C16F1090434E8B8DBD93162701E3D4A2
:1027600006DC7D596F00303493F78B00E3900766E9
:10277000E247080946CE9D07E19BD0438C43A10761
:102780003ECC97100010E78080C44A46DA466A477C
:10279000FA47F248880946CEBECFB2C9B6CBBACD09
:1027A000EF20B0522AD58947F2486314F5006F1024
:1027B000201985476314F5006F10602A13FCF8FD9B
:1027C000930710046304FC006F10202D930700038F
:1027D0002302F10A13071006930780056394E800AB
:1027E0006F104064A302F10A9307300663D45701C7
:1027F0006F10E06F7E47CE465E46EE45635407009D
:102800006F10F02D82C202CE7C12930D010932C3EB
:102810002EC56E850C013011BEC446DC36C13AC7E8
:10282000EF2050226A474A46DA463AC57A4732C113
:1028300036C39018B706FC3F0C016E85B6DE3AC76A
:1028400082D882DA82DC97F0FF0FE780601D4A436E
:102850005A486A460C016E851AD642D432D202C159
:1028600002C302C502C797F0FF0FE78000F213E929
:102870002B001256FA4B22583253E258A64719E160
:10288000854636D5930610066394D8006F10D04164
:10289000B78600101387068D3AD25AD4CAC4DE8C8C
:1028A000A6CA46D692543EDC3E89EAC61A8B328CC2
:1028B000C28B1DA00C016E855AC95ECB62CD66CF5E
:1028C00002C102C302C502C797F0FF0FE780E0EB29
:1028D00019E16F10502DFD1AB707034090180C0135
:1028E0006E85BEDE5AC15EC362C566C782D882DA13
:1028F00082DC97F0FF0FE780A0126E859710001022
:10290000E7802098AA852A8D6E85CA4C5A4CEA4BDE
:102910007A4B97100010E78040A06A474A46DA4693
:10292000BAD47A47B2D08C1890100801E6D8E2DA0F
:10293000DEDCDADEBAD6B6D297000010E78060B6E9
:102940003387A401834507004A8705090A4B9A4B40
:102950002A4CBA4CA30FB9FEE39E0AF4B258E257D0
:102960005A835E886286E68BB70AFE3F0C016E854D
:10297000BACEC6CC3ED6D6444A8CEA8C2649364DD1
:102980001AC99ACA42CBC2C632CDB2C45ECF02C106
:1029900002C302C556C797F0FF0FE780A0EA225B8B
:1029A000B257E64876476342A0020C016E8546D6D0
:1029B0003AD497F0FF0FE78040DDB258E25739E58F
:1029C00093FC1C00225763830C043AD91257034628
:1029D000FCFF8345F7006287639EC5001305000373
:1029E000A30FA7FE4A579306F7FF36D90346F7FF12
:1029F000E388C5FE930516001305900393F5F50FC4
:102A00006314A6006F102069A30FB7FE2A56138720
:102A1000F800230AE10AB306FC401307F6FF3AD593
:102A200036D2635407006F10B0259306B002A30A94
:102A3000D10AA54663D4E6006F10005C9306610BD3
:102A4000130707032380E600180B998E1387D60D12
:102A50003ADC6F10C0603245D001A685F2CABEC60E
:102A6000C6C4BAC2EF10B03AE31305003E46564E54
:102A7000B647A64816474E8B29B1AE4A925605472F
:102A80003A96BA9A930D8B00E351D72A0547232231
:102A9000EB002320FB00B2C7D6C51D47E3475753C1
:102AA0004257850AD6C53A965257B2C7A10D23ACF4
:102AB000EDFE425723AEEDFE1D47E34657536E47EA
:102AC0004E45DE453ED63ACD92577E472AC92ECB9B
:102AD00008090C0132D402C102C302C502C73ACFB1
:102AE000138BF7FF97F0FF0FE78020CA2256E3070A
:102AF0000526B257850A5A968507D6C5B2C723A0C0
:102B0000FD0023A26D019D47E3CE5723A10DE2579F
:102B1000E25658193E9693871A0023A0ED00B2C7DB
:102B2000BEC523A2DD001D47138B8D00E354F7BA09
:102B30003245D001A685EF10902D631A05723E46EE
:102B40004E8B49BEE2476247A301010A9C43130929
:102B50004700E38D073AE3C70A663E8556868145FE
:102B600046D43ECCEF2000502ACE0347310AE2473C
:102B7000A25819E16F10C067B30CF54033EC0C0A92
:102B800011C3050C4ACC6F00903993F70B02CDE3CB
:102B9000E24713F70B01910719C36F10006FE2466C
:102BA00013F70B0403AC0600E3030766131C5C6019
:102BB000935CFC413ECC66876348070863C60A0AFB
:102BC000B3679C0193FBFBF7C5E3639F0A08834E41
:102BD000310AE3870E6E014C014E02CE814C814AD0
:102BE0001C0B050C63140E006F1070143E46AE45AE
:102BF00093FD4B08090C32882E8563830D6C02D639
:102C000002D4014EE3810EA80947A9BCE247854CD6
:102C1000A301010A9C432306F112E24791073ECC2F
:102C200005B493F70B0213E30B01E388071C9A8B9F
:102C3000E2479D07E19BD8439386870036CC03ACDF
:102C40000700BA8CE35C07F6B3378001B30C904100
:102C5000B38CFC409307D002A301F10A330C8041EE
:102C600063C40A0093FBFBF763970C34A54763E446
:102C70008735834E310A130C0C03054FA3078119C6
:102C8000FA8C33ECEA0B014E9307F11802CEE38B7A
:102C90000EF4050C81BFE2479C433EC8E3DD0710FC
:102CA000C247B307F0403EC8E24791073ECC834895
:102CB0000D0093EB4B002DBA9307B00283480D0033
:102CC000A301F10A35B283480D0093EB0B080DB256
:102CD00083480D009307A00293061D006394F8003B
:102CE0006F10607D938708FD25460147368D814A28
:102CF000E361F69083C806003347E7203327F720C7
:102D0000938708FD8506E377F6FEFD57368DB36A97
:102D1000F70AC5B032494A85EF2080435C413E85C1
:102D2000BEC0EFF08FC5AA874A85BEC83E89EF2096
:102D30002042184583480D003ADEE30B098AE30977
:102D4000078A83470700E385078A93EB0B404DB062
:102D500083480D0093EB1B0061B88347310A834819
:102D60000D00E397078893070002A301F10A49B019
:102D700093F70B0293E60B01E38D0708E2479D07EB
:102D8000E19B138787003ACCD0439843A301010A03
:102D900093FBF6BF63C00A5EB367C70093FBF6B749
:102DA000639A075C63980A5C13FC160063060C7652
:102DB0003E4693070003A307F11802CE02D602D4C1
:102DC00093FD4B08E28C014E9307F1183288E3968D
:102DD0000D884247330787416344E06A0347310A5D
:102DE000E3100788B38A9A41E355508D3788001065
:102DF000AE451308C8C6635A54055689BEC49D4DD6
:102E0000DA87C6C2F28A528B21A041196359240382
:102E10004106850523A04701C0C3B2C7AEC5A107BF
:102E2000E3D5BDFE3245D001A685EF10407E63108C
:102E3000054441193E46AE45CE87E34B24FD5A88F2
:102E400096483E8BA647568ECA8A569685052320FD
:102E50000B0123225B01B2C7AEC51D47210BE35A0C
:102E6000B7843245D001A685F2C6BEC4C6C2EF10F3
:102E7000007A631E053E13F70B103E46364EA647FA
:102E800096484E8BE30B078213075006E35717BF94
:102E90005E47CE456E453ACB7E472EC92ACD0C0102
:102EA0000809B2C4BEC2F2C602C102C302C502C74B
:102EB0003ACF97F0FF0FE780408D96472646364E73
:102EC000631D054EAE473787001013078783232005
:102ED000EB000506054785072322EB00B2C7BEC5F8
:102EE0001D47210BE341F720AA57125763D0E76C27
:102EF0004257AE47210B3A9652578507B2C7232C4B
:102F0000EBFE4257BEC5232EEBFE1D47634FF776FF
:102F10009257938AF7FF635F50FB37880010C14CCC
:102F2000AE479D4D1309C8C663C65C01B9A3C11A5B
:102F3000E3D85C1F4106850723202B0123229B0138
:102F4000B2C7BEC5210BE3D4FDFE3245D001A68534
:102F5000EF10E06B631D05303E46AE474E8BC1BFA0
:102F600083480D00930780066382F87493EB0B048B
:102F70006FF00FE893F70B026399071E93F70B01AD
:102F800099C36F10002B624793F70B04032C0700C3
:102F900011073ACCE3890728A301010A334C0C0836
:102FA000814CE3C30ACC33EE8A0193FBFBF7630346
:102FB0000E10E38D0CCAB7DDCCCCB7D6CCCC938D3C
:102FC000DDCC9386C6CC13F80B4001450C0B46892B
:102FD0009DA0725703470700130617F019C2E30FAD
:102FE000A710628E6683BE8533069C013337860147
:102FF0003A963337B603935E2700719B7697198E06
:103000003307CC403336EC003386CC40330FD70245
:103010003306B603B33EB7037A963307B703769603
:10302000931EF601935C16000583338CEE00631447
:1030300003006F10801A33069C01333786013297E4
:103040003333B70305059387F5FF135E230013732E
:10305000C3FF7293330767403307EC403307B7036E
:1030600005833347E72006073307EC4013070703C0
:10307000A38FE5FEE31F08F4628E6683BE85BDB7AD
:10308000A1679387078362472312F10AE247A301EE
:10309000010A18439107014663C20A5A13F3FBF76A
:1030A000936B2300E39B0A0EE319070E3ECC094EF7
:1030B00093088007834E310A814A014C814C1C0BD6
:1030C00002CEF1B693F70B0263970756E24713F768
:1030D0000B01910719C36F10E01A624793F60B04B6
:1030E0001843E3830616334707083ECCDE860146C5
:1030F00071B9624793F70B0211076394075293F774
:103100000B01E395070893F70B04E398073E13F3CD
:103110000B20E30D0306E247D2463ACC9C432380C2
:10312000D7006FF06FC683480D009307C006638811
:10313000F85693EB0B016FF0AFCB93F70B0213E351
:103140000B018DE7E2476247A301010A9107032CB7
:103150000700814CE3CF0A163ECC937BF3F7E317CD
:103160000CB0E3950AB0014EB1B75E83E247A3010C
:10317000010A9D07E19B138787003ACC03AC070047
:1031800083AC470063C00A50937BF3F7E39E0AAC1D
:10319000B3679C01E39A07AC014E29BF83480D0039
:1031A00093EB8B006FF0CFC44247B30D8741635E52
:1031B000B0CFC14EAE453788001063C4BE016F105A
:1031C000800F6E89BEC4EA8DDA87668D9D42E28CDF
:1031D000C6C2568C728B930AC8C621A0411963DB04
:1031E0002E034106850523A0570123A2D701B2C7AC
:1031F000AEC5A107E3D4B2FE3245D001A685EF10DB
:10320000004135E5C14E41193E46AE45CE879D424F
:10321000E3C92EFD5A8E96483E8BA6475688E28A11
:10322000668CEA8C6E8DCA8D6E96850523200B0107
:103230002322BB01B2C7AEC51D47210B6357B7C6DA
:103240003245D001A685F2C6BEC4C6C2EF10203CEE
:1032500019ED3E469648A647364E4E8B6FF0EFC4AA
:103260003245D001A685EF10803A630605C8F245C5
:10327000524981C53245EFF06F8383D7C40083295B
:10328000C11B032A811B93F70704832A411B032BCD
:10329000011B832BC11A032C811A832C411A832D05
:1032A000C119639007CC8320C11C0324811C832493
:1032B000411C032D011A4A850329011C7961828072
:1032C000424702D602D433078741014E6344E024CB
:1032D000638B0EBA09476FF0EFB83245D001A6856F
:1032E000F2C6BEC4C6C2EF10803251F13E46364E21
:1032F000A64796484E8B6FF0CFBAC14CAE47378881
:10330000001063C45C016F00B07832499D4D930B8F
:10331000C8C721A0C11A63D95C03410685072320D1
:103320007B0123229B01B2C7BEC5210BE3D4FDFE66
:10333000D001A6854A85EF10802D15F9C11A3E46A9
:10334000AE474E8BE3CB5CFD5E8856968507B2C7D1
:10335000BEC523200B0123225B011D476355F7B82F
:103360003245D001A685EF10802AE31205F03E46D3
:103370006FF06FB71C0B9315D601937677000D8312
:103380003E852E97938606030D82B365C700A38FF3
:10339000D7FEFD17EDF1938606FD89C613F71B00D6
:1033A00063110724180BB30CF74033EC9A0B02CED1
:1033B00002D602D4014E6FF08FA92A556356A04859
:1033C0001257B34AEE0A635F50012E4756962320E8
:1033D000FB00050723225B01B2C7BAC59D45210B3F
:1033E000E3CAE508B3EA0A0AB30A5E41634050350E
:1033F00013F70B40B38DC70163160772AA5A125711
:1034000063C6EA0013F71B00E307070CC2562E47FA
:103410009D453696D2560507B2C72320DB00C2561B
:10342000BAC5210B232EDBFEE3CCE5581257B38C33
:10343000E700B38CBC41B30A5741B3CC5C0B635F6C
:103440009001AE4766962320BB01850723229B018E
:10345000B2C7BEC51D47210BE348F75AB3EC0C0AAF
:10346000B38A9A41635850A737880010C14CAE47C1
:103470009D4D1309C8C663CF5C311308C8C655A15A
:103480002E45C14E4286AA8537880010E3DEEE54F1
:10349000BEC49D43DA873A89568BC6C2F2C6930AE8
:1034A000C8C721A0411963DC2E034106850523A06E
:1034B000570123A2D701B2C7AEC5A107E3D4B3FE1B
:1034C0003245D001A685EF108014E31205DAC14E13
:1034D00041193E46AE45CE879D43E3C82EFD568832
:1034E0009648DA8A364E3E8BA6474A873A96850535
:1034F0002322EB00B2C7AEC523200B011D47634D4D
:10350000B7300347310A210B55EF63800D9A814D87
:103510006FF06F97894DB5B7814C814A02D602D4BE
:10352000014E02CE1C0B6FF08F92B3F5EB00639F40
:1035300005D42320FB002322EB00B2C7D6C59D474C
:1035400063D757DD3245D001A685EF10400CE3105C
:1035500005D23E46AE4ACE8D6FF06FDB12578547DF
:1035600063D7E7DAC54737880010E3D3E776C14C65
:103570009D471309C8C621A0411B63DD6C47410666
:10358000850A23A02D0123A29D01B2C7D6C5A10D96
:10359000E3D457FF3245D001A685EF104007E3186A
:1035A00005CC3E46AE4ACE8D9D47F9B793F71B003A
:1035B0006382079235BAE24783480D0091073ECCFB
:1035C0006FF00F836E87814D6FF0CF89E2476247BE
:1035D0009C4311073ACC9043D4439847DC476FF0A3
:1035E0006F9B7915180BB30CA74013070003A38F2B
:1035F000E7FE33EC9A0BAA875DBBE247910762476F
:103600009A8B3ECC032C0700935CFC4166876FF0DD
:10361000AFDAE2479107624701463ECC18436FF0AC
:10362000EFF6E247D24652469C43FD863ACC90C321
:10363000D4C36FE07FF5DE866FF04FF4B7850010DE
:1036400093EB2B003ECC9385C58B094E814E93089E
:1036500080071C0B9376F700AE9683C60600118395
:10366000FD172380D7009316C60136971182B366E3
:10367000C700EDF2180BB30CF74033EC9A0B02CEF7
:103680006FF0EFE09A8B6FF02FDE3245D001A68508
:10369000EF00F077E31D05BC3E464E8B95B883489E
:1036A0001D0093EB0B02050D6FE09FF483481D0096
:1036B00093EB0B20050D6FE0BFF3B78500109385EA
:1036C000058D93F70B02FDC3E2479D07E19B13872E
:1036D00087003ACCD043984393F71B00B366C700EA
:1036E00099C3639B061CA301010A63C20A1293FBE0
:1036F000FBB7014E63940A00E38E069A834E310AAB
:1037000089BFB78500109385C58B65BF994633DCAB
:10371000DA0AB78700104ACCE28C9387478E02CE34
:10372000814A02D602D4014E6FE07FF2C1482E4793
:1037300037880010E3D1585F56899D4CBE8DF2C288
:10374000930AC8C621A0411963D0283B410605074A
:1037500023205B0123221B01B2C7BAC5210BE3D48E
:10376000ECFE3245D001A685EF00706AE31105B08A
:103770003E462E474E8BC148F9B73245D001A6854B
:10378000EF00F068E31505AE3E46AE474E8BC11A1A
:1037900063D85C194106850723202B0123229B0156
:1037A000B2C7BEC5210BE3D4FDFEC1BFE2466247EE
:1037B00093F70B01910636CC1843A1EB93F70B045A
:1037C000A9C333470708014601BF3245D001A6858A
:1037D0003ED4EF00D063E31C05A83E46AE4AA25794
:1037E000CE8D6FF0EFAB3245D001A6853ED4EF0011
:1037F0001062E31E05A63E46AE4AA257CE8D6FF07C
:103800000FAC93F70B206396074E0146F1B593FB7F
:10381000FBBF014E814E35BD3245D001A685F2C6B3
:10382000BEC4C6C2EF00B05EE31305A40347310A6D
:103830003E469648A647364E6307071A6E87AE4542
:10384000814D4E8B6FE01FE22E47B78500109385A8
:1038500085832320BB000506854505072322BB0081
:10386000B2C7BAC59D45210BE3CCE5061257498F77
:1038700063010742C2562E479D453696D25605072C
:10388000B2C72320DB00C256BAC5210B232EDBFEB4
:1038900063C5E542E342051A925605072320FB0063
:1038A0003696B2C7BAC52322DB009D4763C4E70042
:1038B0006FE03FE26FF0CFA793070003A302110B65
:1038C000A301010A2302F10A63C90A2013F3FBB71B
:1038D000834E310A936B2300094EA5BB3245EF108E
:1038E000600B6FE05FC23245D001A685EF00305219
:1038F000E31F05963E464E8B6FF00FDF63920C463A
:103900002547636F8745180BB30CF740834E310A88
:10391000CA882AD233EC9A0B014E02CE6FF02FB731
:103920004A8856968507B2C7BEC523200B012322BD
:103930005B011D476344F7006FE0BFD96FF04F9FF5
:103940004E47DE470C013AC93ECB6E47FE47080999
:1039500002C102C302C502C73ACD3ECF97E0FF0FB6
:10396000E78020FDF24893FBFBF7E34E0502930747
:1039700070040347310A63C0173FB787001093876D
:10398000C78A631307108D4C668C51BBE247D24641
:103990009C4394C33ACC6FE03FBFB7850010834E81
:1039A000310A3ECC9385C58B93088007094E55B1EB
:1039B000BE475249E383078C3245D001A685EF000C
:1039C000104565B83E8546CE3ECCEFE00FFB034781
:1039D000310AE247F248AA8C336C050A6304079A5D
:1039E000050C6FF02F9A63830D30AE45814D4E8BE1
:1039F0006FE07FC94A885A96850AB2C7D6C523A008
:103A00000D0123A26D019D4763D2579125BE13F787
:103A10000B2063080730131C4C60935CFC413ECCC8
:103A200066876FF06F9913FE0B20A301010A6313E1
:103A30000E2E814C63CC0AA293FBFBF763980AA27B
:103A4000630A0CE66FF08FA293F60B20638F062AB1
:103A50001377F70F3ECCDE8601466FF02FB3FE4F93
:103A6000B707008093FBFBF733FEFF0063010E2CCA
:103A70009307D002A301F10A93077004E3DF171143
:103A8000B78700109387878B02CE8D4C814A02D670
:103A900002D4014E114C6FE09FBB13E70B10FD5792
:103AA0003ACECE4E5E4FEE42FE4C6381FA3893071B
:103AB0009CFB99E3638C0A46E3CD0C0082C29DAE69
:103AC00002CE814C02D602D4014E1C0B014C6FE099
:103AD0001FB83ECC9A8B6FF06F9913F3FBBF936BBB
:103AE0002300094E814EB5B6164E5688EE87CA8A17
:103AF0005696050723200B0123225B01B2C7BAC5E6
:103B00009D45210BE3D6E58E3245D001A685F2C452
:103B1000BEC2EF00D02F631C05F43E46264E9647EA
:103B20004E8BF9B02257B256558FE30F072012572C
:103B3000DEC4E2C6EE8BEACAA25AB25D464C725DA2
:103B4000B7880010DA869388C8C61D48C14CBEC22B
:103B5000338BE7006342B0077D1DFD1AAE47064771
:103B60006296850798C223A28601B2C7BEC5A10688
:103B70006340F80C83450D00B3077B415A8733C976
:103B8000B70A63502003AE454A96B2C7850523A005
:103B9000760123A22601AEC5634BB80A83450D000A
:103BA000A106B367090A3389F54063492001AE9B3A
:103BB000E34250FB6351B037FD1D4DB7B782001093
:103BC000AE459382C2C663D72C053AD446D621A00F
:103BD000411963DF2C034106850523A0160123A2AA
:103BE0009601B2C7AEC5A106E354B8FE3245D00176
:103BF000A685EF00D021631C05E6B78700104119A8
:103C00003E46AE45CE869388C7C61D48E3C52CFD0B
:103C10002257B2524A968505B2C7AEC523A05600B8
:103C200023A22601634FB85483450D00A10641B776
:103C30003245D001A685EF00901D631A05E2B787D3
:103C400000103E46CE869388C7C61D4825B732452C
:103C5000D001A6855AD4EF00901B631A05E0B78700
:103C6000001083450D003E462257CE869388C7C676
:103C70001D4805BF3245D001A685F2C4BEC2EF0083
:103C80001019631605DE3E46264E96474E8B6FF0A2
:103C90006FF513F71B0019E36FE0DFA3C2562E4741
:103CA0009D453696D2560507B2C72320DB00C25683
:103CB000BAC52322DB0063D3E54C3245D001A6858B
:103CC0003ED4EF00D014631405DA2A553E462E4741
:103CD000A2574E8BC1B61257B38CE700B38CBC41D0
:103CE000B30A5741B3CC5C0B6FF04FF74E8B6FE0CC
:103CF000DF9B1377F70F0146C5B2E247D2463ACCB5
:103D00009C432390D7006FE03F883ECCDE8601467F
:103D10006FF0CF87137CFC0F814C63D60AA86FE04D
:103D2000BFF4935CFC413ECC66876FE0FFE89307ED
:103D300070040347310A63DD1765B7870010938766
:103D4000878BE31C07008D4C668C814A02D602D417
:103D500002CE6FE0DF8FB78700109387078B15B116
:103D60004647864542D2B388E7403A86468546CEE6
:103D7000EF10C03633079C01B337870137D6CCCC60
:103D80001306D6CC3E97B335C70237D5CCCC130536
:103D9000C5CCF257F256F24883C717001258B33712
:103DA000F00013D32500F1999A950D8F3307EC405D
:103DB000B335EC00B385BC403305A702B697B7D640
:103DC000CCCC3EDE9386C6CC9387F8FFB385C50284
:103DD000AA953335C7023307C702AA951393F50195
:103DE00093DC150005450583330CE30033079C0184
:103DF000B33587012E97B335C70213D32500F19948
:103E00009A950D8F3307EC403307C702058333477C
:103E1000E72006073307EC4013070703A38FE8FEEC
:103E20006FF02F9B930780076FE0DF9B63C20C4A04
:103E300082C2994A930760046311FC2C32457C11BD
:103E40003811D6860C091308010B0D46C6C476C975
:103E500076D67ACB7AD416CD16D266CFEF10E04C58
:103E600083460500130700039252225FB25EA64804
:103E7000AA87330955016382E65AAA5D08090C0135
:103E80003ED466CF46D276C97ACB16CD02C102C3E4
:103E900002C502C797E0FF0FE780208FA257B30C3F
:103EA000B9016E8E631405563387FC403AD213F77E
:103EB0001B00336757016351C06363170758F28CC7
:103EC0009308600613F30B4033EC0C0A63120348AB
:103ED0001647630A07341307D002A301E10A050C51
:103EE000F24B814A02CE02D602D46FE04FF6324541
:103EF00093851A0046CEEFD0EFCBF248AA87630C29
:103F000005627E472ACECE465E46EE45634B073CB1
:103F100082C26FE09F8FDE8D6ADE9647A64B364CDD
:103F2000564D368BB3DDED0A6FF04FCD82C263D7AD
:103F30000C009307D002939CFC69BEC23245930DDE
:103F400001097C11EE851308010B381185460946DD
:103F5000C6C676C9F6C47ACB7AD616CD16D466CF45
:103F6000EF10A03CA252325FA64EB648854AAA87FF
:103F700056D213F71B00630507126E850C013ED65F
:103F800046D476C97ACB16CD66CF02C102C302C52C
:103F900002C797D0FF0FE780407FA258B257630A4D
:103FA000055692564A57B38CD7006370975D130637
:103FB00000039306170036D92300C7004A57E36A67
:103FC00097FF1D8F930670043AD22A5E630EDC0CB5
:103FD00013076004E30DECEC1307FEFF230A110B3B
:103FE0003AD5634B07469306B002A30AD10AA54609
:103FF00063DEE6465E8902CE930E310C37D3CCCC1D
:1040000076851303D3CC130F3006B33667023A8894
:10401000AA857D158D8233C6D6200606118F13071B
:104020000703A38FE5FE3687E3410FFF13870603DF
:10403000A30FE5FE1387E5FF6373D74F1305610BED
:10404000AA860346070005078506A38FC6FEE31A66
:10405000D7FF2A9709070D8F5419158F3ADC92560E
:1040600062560547B38CC6006352D72A4257BA9CA2
:1040700016471373F9BF936B0310137E290033ECBB
:104080000C0A630E0722930ED002A301D10B814AC2
:10409000050C6FE03FB5925683C5A6006FE0DF9632
:1040A0004A572A5E1D8F3AD21327DEFF19E363D4E5
:1040B000CA01F91815B712576340EE1E13F71B001B
:1040C000F28C01C74257B30CEE0013F30B406304AC
:1040D0000300634DC02733EC0C0A93087006CDBB78
:1040E0003245D001A6853ED41D23631205982A557A
:1040F0003E46A2574E8B6FF06FF79307BCFB3245DD
:1041000093B71700D697930D01093ED2BE8638119A
:104110007C11EE851308010B0946C6C676C9F6C4A4
:104120007ACB7AD616CD16D466CFEF1000201307BF
:104130007004A252325FA64EB648AA87E30BECE2A7
:104140002AD60C016E8546D476C97ACB16CD66CFB9
:1041500002C102C302C502C797D0FF0FE780E06229
:10416000A258B257630B054092564A57B38CD700FA
:10417000E36F97E31D8F2A5E3AD2B9BD210B6FF032
:10418000AFF13245D001A6853AD451216311058E95
:10419000B787001083450D003E462257CE86938890
:1041A000C7C61D4829B49307D002A301F10A93079B
:1041B000700463DF1713B78700109387078BE9B08C
:1041C0003245D001A6853ED499216312058AAA5AA8
:1041D0003E46A2574E8B6FF06FA525476374C7010B
:1041E0006FE07FE56FF02FF21308C8C76FF00FB0D4
:1041F0004ACC63050710138C1A00D68C02D6814A6C
:1042000002D4014E6FE0AFC43245D001A685012132
:1042100019C16FF0CF85AA5A92573E464E8BB38A8A
:1042200057416FF0AFA30347310AE30B07CA050CF0
:1042300045B95E836FE01FF1C155B30AA0403788CE
:1042400000106359B530C14C9D4D3ED41309C8C60A
:1042500021A0C11A63D15C0D4106050723202B0163
:1042600023229B01B2C7BAC5210BE3D4EDFE324530
:10427000D001A685692E19C16FE07FFF3E462E470B
:104280004E8BC1BFDE866FF00FB95E836FF02FB724
:104290001308C8C76FF06F8B1257C2569308700689
:1042A000B30CD700E340C0C3338FCC41930C1F0045
:1042B00033EC0C0A31B91308C8C66FE0FFF6834E21
:1042C000310A814A63840E006FE0BF9C6FE09F91CA
:1042D000994A9307D002939CFC69BEC2A1BE02CE4C
:1042E0007C121305D0021317F769AAC26FE0EFD151
:1042F000B78700109387C78A6FF00FF9D68C568C5A
:1043000002D6814A02D4014E6FE06FB43377E900E0
:10431000E30007D6A1BBA2574A8856960507B2C745
:10432000BAC523200B0123225B019D45E3D8E5E4B8
:104330003245D001A6853ED4D92C19C16FE03FF398
:104340003E462E47A2574E8B6FF00FD5930870064E
:10435000725703470700930617F0638C0620635AD1
:10436000C721F2560145814501A88505850613063A
:1043700017F035C66355C707330EEE4003C7160066
:104380006DF703C706000505DDB752496FE0FFEE84
:10439000B78700109387478B6DB2B787001093875C
:1043A000478B6FF06FEE4A8C938CFAFF225BB2580A
:1043B000E2572649364DD644E29A62871306000337
:1043C00063D40C006FE08FE40507A30FC7FEE39DE5
:1043D000EAFE33079C01130C17006FE02FE336DE73
:1043E000C6463307B5002ED43307D7022AD6BA9C67
:1043F000164733EC0C0A45C31307D002F24BA30156
:10440000E10A050C02CE814A6FE06FA44A57925828
:10441000E36F97B91D8F3AD265BE08090C013ED4EF
:1044200046D276C97ACB16CD66CF02C102C302C589
:1044300002C797D0FF0FE78040359258A2575DE141
:104440002A5EB30CC9018DB44257338FCA01930859
:104450006006B30CEF00BDB41307D002A30AE10A53
:10446000E15605473307C741E346DEB8930600032C
:10447000230BD10A5E8902CE9306710B6FE04FDCED
:104480001307D002A30AE10AE1560547118FE3455D
:10449000D6B66FE0AFDA0347310A49C7F24B050CD5
:1044A00002CE814A6FE0AF9AB78600101387C68BA1
:1044B0003AD26FE08FBEE247624683481D009843C0
:1044C0001106FD5732CC368DB36AF70A6FE04F9272
:1044D0001308C8C66FF02FD21DE3054CE28C930879
:1044E0006006FDB2854F4A57B38F5F417ED5938CEE
:1044F0001700E36E97AB1D8F7E8E3AD24DBA4257AE
:1045000093086006130F1700B30C5F0133EC0C0A1D
:10451000C1B22A5E51BE1308C8C66FF06FDD0947ED
:104520003ADC35BEF24B814A02CE6FE04F9202D6A2
:1045300002D46FE0CF9183D7C400524993E70704B8
:104540002396F4006FE07FD312573E97B3DDED0A58
:104550006FE0DFEA1308C8C6C9B3814A02D602D4A5
:1045600002CE8D4C114C6FE08F8E1D8F2A5E3AD299
:1045700025BE014702D602D49DBD2A5EB1BC83D7B9
:10458000C50083AE450603DEE50003A3C50183A88D
:104590004502130101B7F59B1308010813070040FA
:1045A000232481482E842C08232291482312F102CF
:1045B0002326114802D8F6DE2313C1031ADA46DE99
:1045C00042CC42D43AD03AD6AA84EFD03FF0AA8760
:1045D00063570502035741021377070419C70357AE
:1045E000C400136707042316E4008320C148032492
:1045F0008148832441483E851301014982802AC6AF
:104600002C0826856D2AB24771D5FD57E1B71846AB
:1046100009E70145232206008280011106CE32C639
:10462000412EB247F24023A4070023A207000561F0
:1046300082808397C500011122CC4EC606CE13F7A7
:1046400087002E84AA8969E3D4411397B72823965B
:10465000E5006358D010032884026301080A26CAC3
:104660009396370183A4090023A0090063C20610B2
:104670004C4C014685464E850298FD572A86630EAE
:10468000F5100317C40003288402118B19C7584082
:104690001C58198E99C35C5C1D8E4C4C81464E850E
:1046A00002987D578317C4006316E50C83A60900A2
:1046B0007547636FD70E3707402005073356D74835
:1046C00065CA14481397B7482316E4002322040050
:1046D00014C0139737016355070083A70900DDC78E
:1046E0000C5823A09900C5C9930704046385F500FD
:1046F0004E85EFD0BFBBD24423280402F24062446F
:10470000B2490145056182804AC803A90501630FCA
:10471000090426CA84418D8B23A02501B38424413A
:10472000014791E3D84918C4634690003DA82A99EF
:10473000635D90025C504C4CA6864A864E858297FB
:10474000898CE346A0FE8357C400424993E70704DF
:10475000F2402316F4006244D244B2497D5505610B
:104760008280D45DE349D0EE51BFD244424979B74B
:10477000304821BF14481397B7482316E40023227A
:10478000040014C013973701E35C07F40C5828C8E1
:1047900023A09900B1F9D24495B783A70900E38219
:1047A00007EE138737FE01CBA91791C78357C400C3
:1047B00093E7070471BF23A09900D24481B7AA8769
:1047C00019C1585901CB0397C50019E301458280EF
:1047D0003E8585B501112EC606CE2AC4652AB2458E
:1047E000A2470397C50009C7F2403E85056191B510
:1047F000F24001450561828037460020B775001000
:1048000037450020130606C593850556130505B3E5
:10481000D1A14C414111B747002022C406C693875D
:10482000C7F92A846384F500EF2090530C44B747FE
:104830000020938747006385F5002285EF205052C2
:104840004C44B74700209387C7066388F50022854C
:104850002244B24041016F20B050B2402244410195
:1048600082800111B747001022CC9387877F37449D
:104870000020374500201304C4F906CE26CA4AC8D2
:104880004EC652C423AEF18021469147814513059F
:1048900085FF5CC423200400232204002324040099
:1048A0002322040623280400232A0400232C0400C6
:1048B000EFD0AFF3375A0010B75900103759001036
:1048C000B754001037450020C167130A8ADC93896A
:1048D000C9DF130949E59384E4E8A507214681452A
:1048E000130505067CD82320440323223403232404
:1048F000240344D440CC232404062326040623287E
:1049000004062326040C232C0406232E040623204D
:104910000408EFD08FED3747002037450020B70758
:104920000200C907130747001305850C214681457E
:10493000232444092326340923282409232A9408FC
:10494000232EF40C2328040C232A040C232C040CFF
:10495000232A04122320040E2322040E2324040EEF
:104960002322E408EFD06FE8B74700209387C706FB
:104970002328440F232A340F232C240F232E940E94
:10498000F2402326F40E6244D2444249B249224AFC
:10499000056182805C5991C38280B757001003A7DC
:1049A000C181938727815CD965FB65BD8280828048
:1049B0001C46638107188396C500397122DC52D4E6
:1049C00056D206DE93F786002E84AA8A328AADC3B9
:1049D0009C49B9CF26DA4AD84ED65AD093F726004A
:1049E00083240A00B5C7370B0080130B0BC0814925
:1049F0000149B356690B4E865685630709125C5010
:104A00004C4C8297635DA02A83278A00AA993309B8
:104A1000A940898F2324FA00E9FFD2544259B259A0
:104A2000025B0145F2506254225A925A21618280FF
:104A3000A2855685352B631A051A8316C40026DA1B
:104A40004AD84ED65AD093F7260083240A00C1FFD5
:104A50005ECE62CC93F71600E5E31C40370700807A
:104A6000130CF7FF014B8149638A090A13F70620EB
:104A7000032984003E85630C0716CA8B63EF291D4A
:104A800013F706483DC758480C483327E720135909
:104A9000F701B38BB7403A9993871B00135919401C
:104AA000CE974A866374F9003E893E8693F60640A7
:104AB000638C061CB2855685EFC0DF8F630405202A
:104AC0000C485E862AC6EFD0CFDC8357C40032473D
:104AD00093F7F7B793E707082316F400B307794174
:104AE00033057701232A240118C808C01CC44E8945
:104AF000CE8BDA855E86EFD0AFC118441C403307F9
:104B0000274118C403278A00DE971CC033073741AA
:104B10002324EA006302071A8316C40003AB0400CF
:104B200083A94400A10489B783A9040003A9440010
:104B3000A104C1B501458280014B814B0145014C67
:104B4000630C0B0435C1DE895448032984000840F6
:104B50001C48B3593B0B369963F4A70063403907EF
:104B600063C7D9105C504C4C6286568582972A895F
:104B70006351A006B38B2B41054563830B0E83273E
:104B80008A00B38727412324FA0063870712330B77
:104B90002B414A9CE3180BFA03AB4400A687A104FF
:104BA000E30C0BFE03AC07005A86A94562855D291C
:104BB000630005100505B30B854171B7E2854A8690
:104BC000EFD00FB51C40A2855685CA971CC0C53EC4
:104BD00055D18317C400F24B624CD2544259B2599A
:104BE000025B93E707042316F4007D5525BD1848A2
:104BF0006360F704584863EDE902B3D6890B33E7E5
:104C0000E6025C504C4C5A865685998E8297E35248
:104C1000A0FC2A8983278A00B3892941B3872741C9
:104C20002324FA00D1CB8316C4001C404A9B2DBD1F
:104C30003359390B3E854A86DA85EFD06FAD1C407B
:104C40001844CA97330727411CC018C461F7A285CE
:104C50005685EFF0DFB65DDDADBF4E89CE8B51BD21
:104C6000A2855685EFF0BFB5E30B05F09DB74E86E4
:104C7000E285EFD0EFA918441C404E893307374135
:104C8000CE9718C41CC0FDB55685EFC0FFD32A8748
:104C9000E31605E40C485685EFD04FE18357C40076
:104CA0003147F24B624C23A0EA0093F7F7F735B790
:104CB00093091B00CE8B49BDF24B624CB9BB8317E5
:104CC000C40021BFB14723A0FA00F24B8317C400F0
:104CD000624C21B779714AD04ECE52CC56CA5AC8CE
:104CE0005EC606D622D426D2B28A2A8BAE8B014A61
:104CF00085497D5983A44A00FD1463C6040203A4B8
:104D00008A008357C40063FBF9008317E400A2857F
:104D10005A8563852701829B336AAA00FD14130418
:104D20008406E39024FF83AA0A00E3950AFCB250AC
:104D3000225492540259F249D24A424BB24B528504
:104D4000624A456182802A8719C15C598DCB1C4615
:104D500093F6F50FFD171CC663D80700084E63CE07
:104D6000A700938766FF91CB1C4213F5F50F1387BD
:104D7000170018C22380D70082803A8521AA01112A
:104D800032C62EC406CE2AC231313246A24512475F
:104D90001C4693F6F50FFD171CC663D80700084E96
:104DA00063C0A702938766FF81CF1C4213F5F50FFE
:104DB0001387170018C22380D700F2400561828054
:104DC000F2403A850561F9A0411122C42E848395F1
:104DD000E50006C6E52E634905003C48B240AA97A7
:104DE0003CC82244410182808357C400B24093975B
:104DF000C7482316F4002244410182808397C500EE
:104E000036832E8793F6071089EA8395E5009397FA
:104E1000C7482316F7009A86C5AE8395E5000111B1
:104E200032C48946014606CE1AC63AC02AC28D2629
:104E300002473243A2488317C7001248F240831545
:104E4000E7009397C7482316F7009A86468642855F
:104E500005615DAE411122C42E848395E50006C62E
:104E6000052E7D578317C400630BE5009397C72871
:104E7000B24028C82316F40022444101828093974F
:104E8000C748B2402316F400224441018280839532
:104E9000E500E1A4011122CC26CA06CEAA842E8404
:104EA00019C15C59E9C3184E8317C60018C613F719
:104EB000870031CF184A21CF93962701785263D5C6
:104EC00006069317270163CE070818421C4A544A66
:104ED000B307F74063D8D706850714469305170034
:104EE0000CC2FD1614C623008700584A1374F40F31
:104EF0006304F706930764FF89E78357C600858B31
:104F0000A1EFF24022856244D24405618280B285DD
:104F1000268532C6B12831E532468317C60078525D
:104F200093962701E3CF06F89397D7281317D7480E
:104F30002316F60078D21C4A1842544AB307F740A9
:104F4000E3CCD7F8B285268532C6EFF05F8711E94A
:104F500032468547184251B7B2852685EFF03F8625
:104F60004DD17D5479BF32C6EFF0DFA2324625BF66
:104F7000B747002003A747DD011106CE2A86AE877A
:104F800019C3545BE1C20397C700937687009DC2A3
:104F9000944B8DCE0397C7001376170039CAD04BB8
:104FA00023A4070001453306C04090CFB9CAF240A0
:104FB0000561828093760701D1CE93764700B9EAE6
:104FC000944B136787002396E700E9F6D8479305CB
:104FD000002013770728E30FB7FA3285BE853EC459
:104FE000EF208062A2470397C700944B1376170007
:104FF0005DF613762700814511E2CC4B8CC7014545
:10500000DDF693760708C5D6136707042396E700F5
:105010007D5571BF8C5B85C193860704638BD5007A
:1050200032853EC632C4EFD06FA8B24722460397FE
:10503000C70023A80702944B1377B7FD23A20700EC
:1050400094C341B72AC43A852EC6EFF0BF94B24745
:10505000224615BFA5461367070414C22396E7002E
:105060007D55B1B79377350013F7F50F99CB2DC662
:10507000834705007D166380E706050593773500B5
:10508000FDF70D48637FC80293F5F50F93978500F0
:10509000BE95939705013703FFFEB7888080BE95C4
:1050A0001303F3EF938808081C41AD8FB3866700A4
:1050B000B3F7F640B3F7170191E771161105E365F1
:1050C000C8FE19CA2A9621A005056307C5008347B3
:1050D0000500E39BE7FE828001458280B3E7A500DF
:1050E0008D8B81E79337460095CB2A8711A883C61D
:1050F000F5FF1308F6FFA38FD7FE81CA3E874286CD
:1051000085059307170065F68280329763010804CE
:105110008507A38F07FEE39DE7FE8280B708FFFEA9
:10512000378880809388F8EF130808082A870D4392
:105130009441B3871601B3F7D740B3F70701E9F3FA
:10514000711614C311079105E364C3FE55BF828035
:10515000374500201305C5D48280411122C426C2E0
:10516000AA842E8506C623A00182EFC0AF8FFD570B
:105170006307F500B240224492444101828083A734
:105180000182EDDBB24022449CC092444101828006
:105190004111AE8722C426C2B285AA8436863E85D6
:1051A00006C623A00182EFC02F8CFD576307F500D0
:1051B000B240224492444101828083A70182EDDB08
:1051C000B24022449CC09244410182804111AE878A
:1051D00022C426C2B285AA8436863E8506C623A08E
:1051E0000182EFC0AF87FD576307F500B24022444C
:1051F00092444101828083A70182EDDBB2402244C8
:105200009CC09244410182804111AE8722C426C2D3
:10521000B285AA8436863E8506C623A00182EFC0E9
:105220002F84FD576307F500B240224492444101A8
:10523000828083A70182EDDBB24022449CC092446D
:1052400041018280D845597183A8050003A8450013
:105250009445A6D2A164A2D486D693570701FD1423
:1052600023200600BACEE58FC6C8C2CAB6CC2A84AF
:10527000638F970888000C18CAD0C6C046CCC2C23B
:1052800042CAB6C436C8BAC63AC6328902D802DAA9
:1052900002DC02DE3ECE97C0FF0FE780004F3247B0
:1052A000C2465248E24841C1F24781459DEFB707E7
:1052B00071400C181010880036DC3ADE3ED646D815
:1052C00042DA02D002D202D497C0FF0FE7804075C5
:1052D000364786451646A64693570701AEC8B2CA5A
:1052E000B6CCBACEE58F9305E0F8F176890676471D
:1052F000B69737060180AE977D162320F900C64881
:105300005648E6460659718F3706FE3F518FB65014
:10531000232014012322040114C458C422852654D6
:105320009654656182800659DDB7B788001093886E
:10533000C8C803A38800717183AE080003AE48009B
:105340009AD203A3C80083A8080122D526D3C6D6C3
:10535000832885034AD14ECF52CD56CB5AC96AC154
:10536000EEDE06D75EC762C566C3F6CEF2D09AD42B
:1053700042CE03A90500C441804503AAC500AA8AFC
:10538000328DB68D3A8BBE8963870800C685EF10D3
:10539000806623AC0A0226579356FA0123A0D9004F
:1053A00093571740F58FB98FBED413171A00F177B2
:1053B0009319FA49938717F9135C1701B34B0A083D
:1053C00008180C104AD826DA22DC4AD026D222D479
:1053D0004EDE4ED6CAC6A6C8A2CAB30CFC00DECCAE
:1053E00097E0FF0FE780C0E371ED3707FF7FFD57C0
:1053F0007D170C1008183AD63ED03ED23ED497E026
:10540000FF0FE780E0E139ED0C10081897C0FF0F9F
:10541000E78020526358A0048D47BEC4F247B8000D
:105420006E883EC06686EA875685DA88F400EC0806
:105430001D2A03270B00E1776317F700B7070080E9
:10544000FD172320FB00BA502A549A540A59FA49EE
:105450006A4ADA4A4A4BBA4B2A4C9A4C0A4DF65DD4
:105460004D618280C1670C1008184EDE3ED64AD8C6
:1054700026DA22DC02D002D202D497C0FF0FE780E6
:10548000603C63480500939B0B298547DECCBEC476
:1054900071B70C1008184AD826DA22DC52DE02D086
:1054A00002D202D402D697C0FF0FE780002E19E186
:1054B00082C4ADB7F177938727F90947B30CFC0095
:1054C000BAC4A9BF9147BEC491BF397122DC40451F
:1054D0004AD84ED6032985008329450052D4032A91
:1054E00005001314F44908088A8506DE22CE22C678
:1054F00052C852C04ECA4EC24ACC4AC497E0FF0FAF
:10550000E78000D229E93707FF7FFD577D178A859D
:10551000080826DA3AC63EC03EC23EC4854497E03B
:10552000FF0FE780E0CF11CDF250625413951400C5
:105530008947D2544259B259225A33F5A7402161C2
:1055400082808A85080897C0FF0FE780803EE35D70
:10555000A0FC8144D1BFF25062544259B259225A40
:1055600005452161828055714EDF83290700A2C560
:105570004E4466D313F3F9FC86C7232067000D4E13
:1055800013F3F9003EC042C4A28C6300C32D6AD15C
:1055900013F4C900228D631004246ECF46CE36CAA0
:1055A00032D02ED63AD4AA8D630C0326CAC103A9E1
:1055B000050093070002814563D62701860785050C
:1055C000E3CE27FF6E85EF10E0682A846309052289
:1055D000D2479306F9FF958693952600A6C3B3C6D6
:1055E000F62013074501904391071107232EC7FEAC
:1055F000E3FBF6FED24785068507B3B6F600FD1637
:1056000033F7D50011079307040193542740BA9745
:1056100021A0F117638B04249843A686FD1475DB43
:10562000B3C48420C84814C836CCEF100078E246D2
:105630009606B384A6402285EF10E05982572AC708
:105640003EDA631C05501C486386071C6C012285EA
:1056500056DB5AD95ED762D552DDEF107061939751
:10566000C500B1833707F03F5D8F5258B7870010F0
:1056700003A607D883A647D82698AA88BA85930B8D
:10568000F8FF3AD2428CC6C8AAC097C0FF0FE78085
:10569000A093B787001003A687D883A6C7D897B072
:1056A000FF0FE7806050B787001003A607D983A6D5
:1056B00047D997B0FF0FE780E094AA8A5E852E8BCA
:1056C00097C0FF0FE78060EFB787001003A687D968
:1056D00083A6C7D997B0FF0FE780004D2A86AE8614
:1056E0005685DA8597B0FF0FE780C091AA8A2E8B86
:1056F0005E8563D50B000545330585411305B5BCB3
:10570000635AA00297C0FF0FE78020EBB787001015
:1057100003A607DA83A647DA97B0FF0FE780C048F1
:105720002A86AE865685DA8597B0FF0FE780808D92
:10573000AA8A2E8BDA85568597C0FF0FE780E0E1B5
:105740005A8AD2852A8B0146568581465ACC97B013
:10575000FF0FE780003A635205025A8597C0FF0F9A
:10576000E780A0E55686D28697C0FF0FE78060FBF2
:105770003335A000B307AB403ECC125793974B0193
:10578000338AE700338774419306F7FF36D8E24641
:10579000D94763EFD70CE24737880010930808CB4E
:1057A000B3E81721064603A5080083A54800D28662
:1057B0003AD297B0FF0FE780602812576345A03CAC
:1057C000E357E03AC257624782C602DCBA973ED836
:1057D000BAC202DE7DA891476315F3022E440A5D2A
:1057E000BE40FA59E17766869A5CB785001023A01F
:1057F000F800F2869385859069616F1000190E4953
:10580000FA4D8147BE402E440A5DFA599A5C3E85A6
:1058100069618280A2856E85EF10004A9E440E4920
:10582000F2478546B785001066866E8594C39385DA
:105830008583EF108015BE402E44AA87FA4D0A5D7D
:10584000FA599A5C3E856961828022862E44BE4068
:10585000FA599A5CE177B785001023A0F800938588
:10586000C58FA14669616F10401223280400E1B37F
:105870008547BEC6C25702DC63C20730E24763D821
:10588000072EE257624782C2998F3EDCB307E040A1
:105890003EDE0247A54763E4E74082471547635A67
:1058A000F760F1173EC082469147638DF642E38C64
:1058B000E622894782CC814A6389F6428D473EC001
:1058C000A2476247BA97BEC485073ED26352F02C06
:1058D000BE856E853EC7EF106007AA876302055C30
:1058E00032570328C7007D18630C08006353080073
:1058F000094893F90910638009320D4733080741BD
:1059000012571337F7006308073063860A3062477F
:105910003367E800631107300647B64602C7BACEC0
:10592000D2D495C2B786001003A606DB83A646DB59
:105930003A85D285BEC0BAD097B0FF0FE780601B12
:105940008647E34F053CBEC0F647B709C0FC3E861C
:105950003E85A657BE86BE8597A0FF0FE780806A6A
:1059600037870010032687DC8326C7DC97A0FF0F4C
:10597000E7804069125786472A83AE99630407245B
:105980001257F64A265B82D6BAC0064737880010FF
:10599000930808CBB3661721664703A686FF83A644
:1059A000C6FF6309076637870010032587DD832557
:1059B000C7DD9AD0BEC8C6DACED89389170097B093
:1059C000FF0FE78000BC0656C656D68B5A8A97B0A2
:1059D000FF0FE780605F2A86AE865685DA85B68A35
:1059E000328B97C0FF0FE78040B72A8C97C0FF0F1C
:1059F000E780A0BC2A86AE865E85D28597B0FF0F71
:105A0000E780805CC64713070C032A86AE86238096
:105A1000E7002A8AAE8B5A85D68597B0FF0FE780BC
:105A2000E001C647E34BA04EB786001003A746DB54
:105A300083A606DB37860010BAD2B6D00327C6DBB2
:105A4000832686DB228CCADCA6DEB6C8BACABED8DC
:105A50005284DA845689BDA0BA47064785073EC7F7
:105A6000E3D7E75497B0FF0FE78000144646D646C9
:105A7000AA842E892285DE8597B0FF0FE780C012A9
:105A8000AE8A2A8A97C0FF0FE78020AD2A8497C08C
:105A9000FF0FE78080B22A86AE865285D68597B002
:105AA000FF0FE7806052930704032686CA8623808F
:105AB000F90085092A84AE8B97B0FF0FE780600359
:105AC000E34A0544065596552286DE8697B0FF0FB9
:105AD000E780804F2686CA8697B0FF0FE780600177
